{"abi":[{"type":"function","name":"DOMAIN_SEPARATOR","inputs":[],"outputs":[{"name":"","type":"bytes32","internalType":"bytes32"}],"stateMutability":"view"},{"type":"function","name":"allowance","inputs":[{"name":"owner","type":"address","internalType":"address"},{"name":"spender","type":"address","internalType":"address"}],"outputs":[{"name":"","type":"uint256","internalType":"uint256"}],"stateMutability":"view"},{"type":"function","name":"approve","inputs":[{"name":"spender","type":"address","internalType":"address"},{"name":"amount","type":"uint256","internalType":"uint256"}],"outputs":[{"name":"","type":"bool","internalType":"bool"}],"stateMutability":"nonpayable"},{"type":"function","name":"balanceOf","inputs":[{"name":"owner","type":"address","internalType":"address"}],"outputs":[{"name":"","type":"uint256","internalType":"uint256"}],"stateMutability":"view"},{"type":"function","name":"burn","inputs":[{"name":"account","type":"address","internalType":"address"},{"name":"amount","type":"uint256","internalType":"uint256"}],"outputs":[],"stateMutability":"nonpayable"},{"type":"function","name":"decimals","inputs":[],"outputs":[{"name":"","type":"uint8","internalType":"uint8"}],"stateMutability":"view"},{"type":"function","name":"initialize","inputs":[{"name":"name_","type":"string","internalType":"string"},{"name":"symbol_","type":"string","internalType":"string"},{"name":"decimals_","type":"uint8","internalType":"uint8"}],"outputs":[],"stateMutability":"nonpayable"},{"type":"function","name":"mint","inputs":[{"name":"account","type":"address","internalType":"address"},{"name":"amount","type":"uint256","internalType":"uint256"}],"outputs":[],"stateMutability":"nonpayable"},{"type":"function","name":"name","inputs":[],"outputs":[{"name":"","type":"string","internalType":"string"}],"stateMutability":"view"},{"type":"function","name":"nonces","inputs":[{"name":"","type":"address","internalType":"address"}],"outputs":[{"name":"","type":"uint256","internalType":"uint256"}],"stateMutability":"view"},{"type":"function","name":"permit","inputs":[{"name":"owner","type":"address","internalType":"address"},{"name":"spender","type":"address","internalType":"address"},{"name":"value","type":"uint256","internalType":"uint256"},{"name":"deadline","type":"uint256","internalType":"uint256"},{"name":"v","type":"uint8","internalType":"uint8"},{"name":"r","type":"bytes32","internalType":"bytes32"},{"name":"s","type":"bytes32","internalType":"bytes32"}],"outputs":[],"stateMutability":"nonpayable"},{"type":"function","name":"symbol","inputs":[],"outputs":[{"name":"","type":"string","internalType":"string"}],"stateMutability":"view"},{"type":"function","name":"totalSupply","inputs":[],"outputs":[{"name":"","type":"uint256","internalType":"uint256"}],"stateMutability":"view"},{"type":"function","name":"transfer","inputs":[{"name":"to","type":"address","internalType":"address"},{"name":"amount","type":"uint256","internalType":"uint256"}],"outputs":[{"name":"","type":"bool","internalType":"bool"}],"stateMutability":"nonpayable"},{"type":"function","name":"transferFrom","inputs":[{"name":"from","type":"address","internalType":"address"},{"name":"to","type":"address","internalType":"address"},{"name":"amount","type":"uint256","internalType":"uint256"}],"outputs":[{"name":"","type":"bool","internalType":"bool"}],"stateMutability":"nonpayable"},{"type":"event","name":"Approval","inputs":[{"name":"owner","type":"address","indexed":true,"internalType":"address"},{"name":"spender","type":"address","indexed":true,"internalType":"address"},{"name":"value","type":"uint256","indexed":false,"internalType":"uint256"}],"anonymous":false},{"type":"event","name":"Transfer","inputs":[{"name":"from","type":"address","indexed":true,"internalType":"address"},{"name":"to","type":"address","indexed":true,"internalType":"address"},{"name":"value","type":"uint256","indexed":false,"internalType":"uint256"}],"anonymous":false}],"bytecode":{"object":"0x608060405234801561001057600080fd5b50610fa1806100206000396000f3fe608060405234801561001057600080fd5b50600436106100f55760003560e01c806340c10f19116100975780639dc29fac116100665780639dc29fac146101f6578063a9059cbb14610209578063d505accf1461021c578063dd62ed3e1461022f57600080fd5b806340c10f191461019257806370a08231146101a55780637ecebe00146101ce57806395d89b41146101ee57600080fd5b806318160ddd116100d357806318160ddd1461015057806323b872dd14610162578063313ce567146101755780633644e5151461018a57600080fd5b806306fdde03146100fa578063095ea7b3146101185780631624f6c61461013b575b600080fd5b610102610268565b60405161010f9190610ab0565b60405180910390f35b61012b610126366004610b1a565b6102fa565b604051901515815260200161010f565b61014e610149366004610bf8565b610367565b005b6003545b60405190815260200161010f565b61012b610170366004610c6c565b610406565b60025460405160ff909116815260200161010f565b610154610509565b61014e6101a0366004610b1a565b61052f565b6101546101b3366004610ca8565b6001600160a01b031660009081526004602052604090205490565b6101546101dc366004610ca8565b60086020526000908152604090205481565b61010261053d565b61014e610204366004610b1a565b61054c565b61012b610217366004610b1a565b610556565b61014e61022a366004610cc3565b6105db565b61015461023d366004610d2d565b6001600160a01b03918216600090815260056020908152604080832093909416825291909152205490565b60606000805461027790610d60565b80601f01602080910402602001604051908101604052809291908181526020018280546102a390610d60565b80156102f05780601f106102c5576101008083540402835291602001916102f0565b820191906000526020600020905b8154815290600101906020018083116102d357829003601f168201915b5050505050905090565b3360008181526005602090815260408083206001600160a01b038716808552925280832085905551919290917f8c5be1e5ebec7d5bd14f71427d1e84f3dd0314c0f7b2291e5b200ac8c7c3b925906103559086815260200190565b60405180910390a35060015b92915050565b60095460ff16156103b55760405162461bcd60e51b81526020600482015260136024820152721053149150511657d253925512505312569151606a1b60448201526064015b60405180910390fd5b60006103c18482610de9565b5060016103ce8382610de9565b506002805460ff191660ff83161790556103e6610839565b6006556103f1610852565b60075550506009805460ff1916600117905550565b6001600160a01b038316600090815260056020908152604080832033845290915281205460001981146104625761043d81846108f5565b6001600160a01b03861660009081526005602090815260408083203384529091529020555b6001600160a01b03851660009081526004602052604090205461048590846108f5565b6001600160a01b0380871660009081526004602052604080822093909355908616815220546104b49084610958565b6001600160a01b038086166000818152600460205260409081902093909355915190871690600080516020610f75833981519152906104f69087815260200190565b60405180910390a3506001949350505050565b6000600654610516610839565b1461052857610523610852565b905090565b5060075490565b61053982826109b7565b5050565b60606001805461027790610d60565b6105398282610a34565b3360009081526004602052604081205461057090836108f5565b33600090815260046020526040808220929092556001600160a01b0385168152205461059c9083610958565b6001600160a01b038416600081815260046020526040908190209290925590513390600080516020610f75833981519152906103559086815260200190565b4284101561062b5760405162461bcd60e51b815260206004820152601760248201527f5045524d49545f444541444c494e455f4558504952454400000000000000000060448201526064016103ac565b60006001610637610509565b6001600160a01b038a16600090815260086020526040812080547f6e71edae12b1b97f4d1f60370fef10105fa2faae0126114a169c64845d6126c9928d928d928d9290919061068583610ebf565b909155506040805160208101969096526001600160a01b0394851690860152929091166060840152608083015260a082015260c0810188905260e001604051602081830303815290604052805190602001206040516020016106fe92919061190160f01b81526002810192909252602282015260420190565b60408051601f198184030181528282528051602091820120600084529083018083525260ff871690820152606081018590526080810184905260a0016020604051602081039080840390855afa15801561075c573d6000803e3d6000fd5b5050604051601f1901519150506001600160a01b038116158015906107925750876001600160a01b0316816001600160a01b0316145b6107cf5760405162461bcd60e51b815260206004820152600e60248201526d24a72b20a624a22fa9a4a3a722a960911b60448201526064016103ac565b6001600160a01b0381811660009081526005602090815260408083208b8516808552908352928190208a90555189815291928b16917f8c5be1e5ebec7d5bd14f71427d1e84f3dd0314c0f7b2291e5b200ac8c7c3b925910160405180910390a35050505050505050565b6000610aac8061084b63ffffffff8216565b9250505090565b60007f8b73c3c69bb8fe3d512ecc4cf759cc79239f7b179b0ffacaa9a75d522b39400f60006040516108849190610ed8565b60405180910390207fc89efdaa54c0f20c7adf612882df0950f5a951637e0307cdcb4c672f298b8bc66108b5610839565b604080516020810195909552840192909252606083015260808201523060a082015260c00160405160208183030381529060405280519060200120905090565b6000818310156109475760405162461bcd60e51b815260206004820152601c60248201527f45524332303a207375627472616374696f6e20756e646572666c6f770000000060448201526064016103ac565b6109518284610f4e565b9392505050565b6000806109658385610f61565b9050838110156109515760405162461bcd60e51b815260206004820152601860248201527f45524332303a206164646974696f6e206f766572666c6f77000000000000000060448201526064016103ac565b6109c360035482610958565b6003556001600160a01b0382166000908152600460205260409020546109e99082610958565b6001600160a01b038316600081815260046020526040808220939093559151909190600080516020610f7583398151915290610a289085815260200190565b60405180910390a35050565b6001600160a01b038216600090815260046020526040902054610a5790826108f5565b6001600160a01b038316600090815260046020526040902055600354610a7d90826108f5565b6003556040518181526000906001600160a01b03841690600080516020610f7583398151915290602001610a28565b4690565b600060208083528351808285015260005b81811015610add57858101830151858201604001528201610ac1565b506000604082860101526040601f19601f8301168501019250505092915050565b80356001600160a01b0381168114610b1557600080fd5b919050565b60008060408385031215610b2d57600080fd5b610b3683610afe565b946020939093013593505050565b634e487b7160e01b600052604160045260246000fd5b600082601f830112610b6b57600080fd5b813567ffffffffffffffff80821115610b8657610b86610b44565b604051601f8301601f19908116603f01168101908282118183101715610bae57610bae610b44565b81604052838152866020858801011115610bc757600080fd5b836020870160208301376000602085830101528094505050505092915050565b803560ff81168114610b1557600080fd5b600080600060608486031215610c0d57600080fd5b833567ffffffffffffffff80821115610c2557600080fd5b610c3187838801610b5a565b94506020860135915080821115610c4757600080fd5b50610c5486828701610b5a565b925050610c6360408501610be7565b90509250925092565b600080600060608486031215610c8157600080fd5b610c8a84610afe565b9250610c9860208501610afe565b9150604084013590509250925092565b600060208284031215610cba57600080fd5b61095182610afe565b600080600080600080600060e0888a031215610cde57600080fd5b610ce788610afe565b9650610cf560208901610afe565b95506040880135945060608801359350610d1160808901610be7565b925060a0880135915060c0880135905092959891949750929550565b60008060408385031215610d4057600080fd5b610d4983610afe565b9150610d5760208401610afe565b90509250929050565b600181811c90821680610d7457607f821691505b602082108103610d9457634e487b7160e01b600052602260045260246000fd5b50919050565b601f821115610de457600081815260208120601f850160051c81016020861015610dc15750805b601f850160051c820191505b81811015610de057828155600101610dcd565b5050505b505050565b815167ffffffffffffffff811115610e0357610e03610b44565b610e1781610e118454610d60565b84610d9a565b602080601f831160018114610e4c5760008415610e345750858301515b600019600386901b1c1916600185901b178555610de0565b600085815260208120601f198616915b82811015610e7b57888601518255948401946001909101908401610e5c565b5085821015610e995787850151600019600388901b60f8161c191681555b5050505050600190811b01905550565b634e487b7160e01b600052601160045260246000fd5b600060018201610ed157610ed1610ea9565b5060010190565b6000808354610ee681610d60565b60018281168015610efe5760018114610f1357610f42565b60ff1984168752821515830287019450610f42565b8760005260208060002060005b85811015610f395781548a820152908401908201610f20565b50505082870194505b50929695505050505050565b8181038181111561036157610361610ea9565b8082018082111561036157610361610ea956feddf252ad1be2c89b69c2b068fc378daa952ba7f163c4a11628f55a4df523b3efa164736f6c6343000814000a","linkReferences":{}},"methodIdentifiers":{"DOMAIN_SEPARATOR()":"3644e515","allowance(address,address)":"dd62ed3e","approve(address,uint256)":"095ea7b3","balanceOf(address)":"70a08231","burn(address,uint256)":"9dc29fac","decimals()":"313ce567","initialize(string,string,uint8)":"1624f6c6","mint(address,uint256)":"40c10f19","name()":"06fdde03","nonces(address)":"7ecebe00","permit(address,address,uint256,uint256,uint8,bytes32,bytes32)":"d505accf","symbol()":"95d89b41","totalSupply()":"18160ddd","transfer(address,uint256)":"a9059cbb","transferFrom(address,address,uint256)":"23b872dd"},"id":12}