{"abi":[{"type":"constructor","inputs":[{"name":"_baseToken","type":"address","internalType":"address"},{"name":"_operator","type":"bytes32","internalType":"bytes32"},{"name":"_blueprintSelection","type":"uint64[]","internalType":"uint64[]"},{"name":"_mads","type":"address","internalType":"address"},{"name":"_rewards","type":"address","internalType":"address"},{"name":"_name","type":"string","internalType":"string"},{"name":"_symbol","type":"string","internalType":"string"}],"stateMutability":"nonpayable"},{"type":"function","name":"DOMAIN_SEPARATOR","inputs":[],"outputs":[{"name":"","type":"bytes32","internalType":"bytes32"}],"stateMutability":"view"},{"type":"function","name":"addRewardToken","inputs":[{"name":"token","type":"address","internalType":"address"}],"outputs":[],"stateMutability":"nonpayable"},{"type":"function","name":"allowance","inputs":[{"name":"","type":"address","internalType":"address"},{"name":"","type":"address","internalType":"address"}],"outputs":[{"name":"","type":"uint256","internalType":"uint256"}],"stateMutability":"view"},{"type":"function","name":"approve","inputs":[{"name":"spender","type":"address","internalType":"address"},{"name":"amount","type":"uint256","internalType":"uint256"}],"outputs":[{"name":"","type":"bool","internalType":"bool"}],"stateMutability":"nonpayable"},{"type":"function","name":"asset","inputs":[],"outputs":[{"name":"","type":"address","internalType":"contract ERC20"}],"stateMutability":"view"},{"type":"function","name":"balanceOf","inputs":[{"name":"","type":"address","internalType":"address"}],"outputs":[{"name":"","type":"uint256","internalType":"uint256"}],"stateMutability":"view"},{"type":"function","name":"blueprintSelection","inputs":[{"name":"","type":"uint256","internalType":"uint256"}],"outputs":[{"name":"","type":"uint64","internalType":"uint64"}],"stateMutability":"view"},{"type":"function","name":"cancelUnstake","inputs":[{"name":"assets","type":"uint256","internalType":"uint256"}],"outputs":[],"stateMutability":"nonpayable"},{"type":"function","name":"cancelWithdraw","inputs":[{"name":"assets","type":"uint256","internalType":"uint256"}],"outputs":[],"stateMutability":"nonpayable"},{"type":"function","name":"claimRewards","inputs":[{"name":"user","type":"address","internalType":"address"},{"name":"tokens","type":"address[]","internalType":"address[]"}],"outputs":[{"name":"rewards","type":"uint256[]","internalType":"uint256[]"}],"stateMutability":"nonpayable"},{"type":"function","name":"convertToAssets","inputs":[{"name":"shares","type":"uint256","internalType":"uint256"}],"outputs":[{"name":"","type":"uint256","internalType":"uint256"}],"stateMutability":"view"},{"type":"function","name":"convertToShares","inputs":[{"name":"assets","type":"uint256","internalType":"uint256"}],"outputs":[{"name":"","type":"uint256","internalType":"uint256"}],"stateMutability":"view"},{"type":"function","name":"decimals","inputs":[],"outputs":[{"name":"","type":"uint8","internalType":"uint8"}],"stateMutability":"view"},{"type":"function","name":"deposit","inputs":[{"name":"assets","type":"uint256","internalType":"uint256"},{"name":"receiver","type":"address","internalType":"address"}],"outputs":[{"name":"shares","type":"uint256","internalType":"uint256"}],"stateMutability":"nonpayable"},{"type":"function","name":"executeUnstake","inputs":[],"outputs":[],"stateMutability":"nonpayable"},{"type":"function","name":"getClaimableRewards","inputs":[{"name":"user","type":"address","internalType":"address"},{"name":"token","type":"address","internalType":"address"}],"outputs":[{"name":"","type":"uint256","internalType":"uint256"}],"stateMutability":"view"},{"type":"function","name":"getRewardData","inputs":[{"name":"token","type":"address","internalType":"address"}],"outputs":[{"name":"index","type":"uint256","internalType":"uint256"},{"name":"lastUpdateTime","type":"uint256","internalType":"uint256"},{"name":"isValid","type":"bool","internalType":"bool"},{"name":"rewardTimestamps","type":"uint256[]","internalType":"uint256[]"},{"name":"rewardAmounts","type":"uint256[]","internalType":"uint256[]"}],"stateMutability":"view"},{"type":"function","name":"getRewardTokens","inputs":[],"outputs":[{"name":"","type":"address[]","internalType":"address[]"}],"stateMutability":"view"},{"type":"function","name":"mads","inputs":[],"outputs":[{"name":"","type":"address","internalType":"contract MultiAssetDelegation"}],"stateMutability":"view"},{"type":"function","name":"maxDeposit","inputs":[{"name":"","type":"address","internalType":"address"}],"outputs":[{"name":"","type":"uint256","internalType":"uint256"}],"stateMutability":"view"},{"type":"function","name":"maxMint","inputs":[{"name":"","type":"address","internalType":"address"}],"outputs":[{"name":"","type":"uint256","internalType":"uint256"}],"stateMutability":"view"},{"type":"function","name":"maxRedeem","inputs":[{"name":"owner","type":"address","internalType":"address"}],"outputs":[{"name":"","type":"uint256","internalType":"uint256"}],"stateMutability":"view"},{"type":"function","name":"maxWithdraw","inputs":[{"name":"owner","type":"address","internalType":"address"}],"outputs":[{"name":"","type":"uint256","internalType":"uint256"}],"stateMutability":"view"},{"type":"function","name":"mint","inputs":[{"name":"shares","type":"uint256","internalType":"uint256"},{"name":"receiver","type":"address","internalType":"address"}],"outputs":[{"name":"assets","type":"uint256","internalType":"uint256"}],"stateMutability":"nonpayable"},{"type":"function","name":"name","inputs":[],"outputs":[{"name":"","type":"string","internalType":"string"}],"stateMutability":"view"},{"type":"function","name":"nonces","inputs":[{"name":"","type":"address","internalType":"address"}],"outputs":[{"name":"","type":"uint256","internalType":"uint256"}],"stateMutability":"view"},{"type":"function","name":"operator","inputs":[],"outputs":[{"name":"","type":"bytes32","internalType":"bytes32"}],"stateMutability":"view"},{"type":"function","name":"owner","inputs":[],"outputs":[{"name":"","type":"address","internalType":"address"}],"stateMutability":"view"},{"type":"function","name":"permit","inputs":[{"name":"owner","type":"address","internalType":"address"},{"name":"spender","type":"address","internalType":"address"},{"name":"value","type":"uint256","internalType":"uint256"},{"name":"deadline","type":"uint256","internalType":"uint256"},{"name":"v","type":"uint8","internalType":"uint8"},{"name":"r","type":"bytes32","internalType":"bytes32"},{"name":"s","type":"bytes32","internalType":"bytes32"}],"outputs":[],"stateMutability":"nonpayable"},{"type":"function","name":"previewDeposit","inputs":[{"name":"assets","type":"uint256","internalType":"uint256"}],"outputs":[{"name":"","type":"uint256","internalType":"uint256"}],"stateMutability":"view"},{"type":"function","name":"previewMint","inputs":[{"name":"shares","type":"uint256","internalType":"uint256"}],"outputs":[{"name":"","type":"uint256","internalType":"uint256"}],"stateMutability":"view"},{"type":"function","name":"previewRedeem","inputs":[{"name":"shares","type":"uint256","internalType":"uint256"}],"outputs":[{"name":"","type":"uint256","internalType":"uint256"}],"stateMutability":"view"},{"type":"function","name":"previewWithdraw","inputs":[{"name":"assets","type":"uint256","internalType":"uint256"}],"outputs":[{"name":"","type":"uint256","internalType":"uint256"}],"stateMutability":"view"},{"type":"function","name":"redeem","inputs":[{"name":"shares","type":"uint256","internalType":"uint256"},{"name":"receiver","type":"address","internalType":"address"},{"name":"owner","type":"address","internalType":"address"}],"outputs":[{"name":"assets","type":"uint256","internalType":"uint256"}],"stateMutability":"nonpayable"},{"type":"function","name":"rewardData","inputs":[{"name":"","type":"address","internalType":"address"}],"outputs":[{"name":"index","type":"uint256","internalType":"uint256"},{"name":"lastUpdateTime","type":"uint256","internalType":"uint256"},{"name":"isValid","type":"bool","internalType":"bool"}],"stateMutability":"view"},{"type":"function","name":"rewardTokens","inputs":[{"name":"","type":"uint256","internalType":"uint256"}],"outputs":[{"name":"","type":"address","internalType":"address"}],"stateMutability":"view"},{"type":"function","name":"rewardsContract","inputs":[],"outputs":[{"name":"","type":"address","internalType":"contract Rewards"}],"stateMutability":"view"},{"type":"function","name":"scheduleUnstake","inputs":[{"name":"assets","type":"uint256","internalType":"uint256"}],"outputs":[],"stateMutability":"nonpayable"},{"type":"function","name":"scheduleWithdraw","inputs":[{"name":"assets","type":"uint256","internalType":"uint256"}],"outputs":[],"stateMutability":"nonpayable"},{"type":"function","name":"scheduledUnstakeAmount","inputs":[{"name":"","type":"address","internalType":"address"}],"outputs":[{"name":"","type":"uint256","internalType":"uint256"}],"stateMutability":"view"},{"type":"function","name":"scheduledWithdrawAmount","inputs":[{"name":"","type":"address","internalType":"address"}],"outputs":[{"name":"","type":"uint256","internalType":"uint256"}],"stateMutability":"view"},{"type":"function","name":"symbol","inputs":[],"outputs":[{"name":"","type":"string","internalType":"string"}],"stateMutability":"view"},{"type":"function","name":"token","inputs":[],"outputs":[{"name":"","type":"address","internalType":"contract ERC20"}],"stateMutability":"view"},{"type":"function","name":"totalAssets","inputs":[],"outputs":[{"name":"","type":"uint256","internalType":"uint256"}],"stateMutability":"view"},{"type":"function","name":"totalSupply","inputs":[],"outputs":[{"name":"","type":"uint256","internalType":"uint256"}],"stateMutability":"view"},{"type":"function","name":"transfer","inputs":[{"name":"to","type":"address","internalType":"address"},{"name":"amount","type":"uint256","internalType":"uint256"}],"outputs":[{"name":"","type":"bool","internalType":"bool"}],"stateMutability":"nonpayable"},{"type":"function","name":"transferFrom","inputs":[{"name":"from","type":"address","internalType":"address"},{"name":"to","type":"address","internalType":"address"},{"name":"amount","type":"uint256","internalType":"uint256"}],"outputs":[{"name":"","type":"bool","internalType":"bool"}],"stateMutability":"nonpayable"},{"type":"function","name":"transferOwnership","inputs":[{"name":"newOwner","type":"address","internalType":"address"}],"outputs":[],"stateMutability":"nonpayable"},{"type":"function","name":"unstakeAmount","inputs":[{"name":"","type":"address","internalType":"address"}],"outputs":[{"name":"","type":"uint256","internalType":"uint256"}],"stateMutability":"view"},{"type":"function","name":"userSnapshots","inputs":[{"name":"","type":"address","internalType":"address"},{"name":"","type":"address","internalType":"address"}],"outputs":[{"name":"rewardIndex","type":"uint256","internalType":"uint256"},{"name":"timestamp","type":"uint256","internalType":"uint256"},{"name":"shareBalance","type":"uint256","internalType":"uint256"},{"name":"lastRewardIndex","type":"uint256","internalType":"uint256"},{"name":"pendingRewards","type":"uint256","internalType":"uint256"}],"stateMutability":"view"},{"type":"function","name":"withdraw","inputs":[{"name":"assets","type":"uint256","internalType":"uint256"},{"name":"receiver","type":"address","internalType":"address"},{"name":"owner","type":"address","internalType":"address"}],"outputs":[{"name":"shares","type":"uint256","internalType":"uint256"}],"stateMutability":"nonpayable"},{"type":"event","name":"Approval","inputs":[{"name":"owner","type":"address","indexed":true,"internalType":"address"},{"name":"spender","type":"address","indexed":true,"internalType":"address"},{"name":"amount","type":"uint256","indexed":false,"internalType":"uint256"}],"anonymous":false},{"type":"event","name":"Delegated","inputs":[{"name":"operator","type":"bytes32","indexed":true,"internalType":"bytes32"},{"name":"amount","type":"uint256","indexed":false,"internalType":"uint256"},{"name":"blueprintSelection","type":"uint64[]","indexed":false,"internalType":"uint64[]"}],"anonymous":false},{"type":"event","name":"Deposit","inputs":[{"name":"caller","type":"address","indexed":true,"internalType":"address"},{"name":"owner","type":"address","indexed":true,"internalType":"address"},{"name":"assets","type":"uint256","indexed":false,"internalType":"uint256"},{"name":"shares","type":"uint256","indexed":false,"internalType":"uint256"}],"anonymous":false},{"type":"event","name":"Deposited","inputs":[{"name":"amount","type":"uint256","indexed":false,"internalType":"uint256"}],"anonymous":false},{"type":"event","name":"OwnershipTransferred","inputs":[{"name":"user","type":"address","indexed":true,"internalType":"address"},{"name":"newOwner","type":"address","indexed":true,"internalType":"address"}],"anonymous":false},{"type":"event","name":"RewardIndexUpdated","inputs":[{"name":"token","type":"address","indexed":true,"internalType":"address"},{"name":"index","type":"uint256","indexed":false,"internalType":"uint256"},{"name":"timestamp","type":"uint256","indexed":false,"internalType":"uint256"}],"anonymous":false},{"type":"event","name":"RewardSnapshotCreated","inputs":[{"name":"user","type":"address","indexed":true,"internalType":"address"},{"name":"token","type":"address","indexed":true,"internalType":"address"},{"name":"index","type":"uint256","indexed":false,"internalType":"uint256"},{"name":"timestamp","type":"uint256","indexed":false,"internalType":"uint256"},{"name":"rewardIndex","type":"uint256","indexed":false,"internalType":"uint256"}],"anonymous":false},{"type":"event","name":"RewardTokenAdded","inputs":[{"name":"token","type":"address","indexed":true,"internalType":"address"}],"anonymous":false},{"type":"event","name":"RewardsClaimed","inputs":[{"name":"user","type":"address","indexed":true,"internalType":"address"},{"name":"token","type":"address","indexed":true,"internalType":"address"},{"name":"amount","type":"uint256","indexed":false,"internalType":"uint256"}],"anonymous":false},{"type":"event","name":"Transfer","inputs":[{"name":"from","type":"address","indexed":true,"internalType":"address"},{"name":"to","type":"address","indexed":true,"internalType":"address"},{"name":"amount","type":"uint256","indexed":false,"internalType":"uint256"}],"anonymous":false},{"type":"event","name":"UnstakeCancelled","inputs":[{"name":"user","type":"address","indexed":true,"internalType":"address"},{"name":"amount","type":"uint256","indexed":false,"internalType":"uint256"}],"anonymous":false},{"type":"event","name":"UnstakeCancelled","inputs":[{"name":"operator","type":"bytes32","indexed":true,"internalType":"bytes32"},{"name":"amount","type":"uint256","indexed":false,"internalType":"uint256"}],"anonymous":false},{"type":"event","name":"UnstakeScheduled","inputs":[{"name":"operator","type":"bytes32","indexed":true,"internalType":"bytes32"},{"name":"amount","type":"uint256","indexed":false,"internalType":"uint256"}],"anonymous":false},{"type":"event","name":"Withdraw","inputs":[{"name":"caller","type":"address","indexed":true,"internalType":"address"},{"name":"receiver","type":"address","indexed":true,"internalType":"address"},{"name":"owner","type":"address","indexed":true,"internalType":"address"},{"name":"assets","type":"uint256","indexed":false,"internalType":"uint256"},{"name":"shares","type":"uint256","indexed":false,"internalType":"uint256"}],"anonymous":false},{"type":"event","name":"WithdrawalCancelled","inputs":[{"name":"user","type":"address","indexed":true,"internalType":"address"},{"name":"amount","type":"uint256","indexed":false,"internalType":"uint256"}],"anonymous":false},{"type":"event","name":"WithdrawalCancelled","inputs":[{"name":"amount","type":"uint256","indexed":false,"internalType":"uint256"}],"anonymous":false},{"type":"event","name":"WithdrawalScheduled","inputs":[{"name":"amount","type":"uint256","indexed":false,"internalType":"uint256"}],"anonymous":false},{"type":"error","name":"ExceedsScheduledAmount","inputs":[]},{"type":"error","name":"InsufficientScheduledAmount","inputs":[]},{"type":"error","name":"InvalidRewardToken","inputs":[]},{"type":"error","name":"NoRewardsToClaim","inputs":[]},{"type":"error","name":"NoScheduledAmount","inputs":[]},{"type":"error","name":"RewardTokenAlreadyAdded","inputs":[]},{"type":"error","name":"Unauthorized","inputs":[]},{"type":"error","name":"WithdrawalNotUnstaked","inputs":[]}],"bytecode":{"object":"0x61016060405234801562000011575f80fd5b50604051620047e6380380620047e68339810160408190526200003491620003c2565b828785338a86868181846001600160a01b031663313ce5676040518163ffffffff1660e01b8152600401602060405180830381865afa1580156200007a573d5f803e3d5ffd5b505050506040513d601f19601f82011682018060405250810190620000a091906200050d565b5f620000ad8482620005c2565b506001620000bc8382620005c2565b5060ff81166080524660a052620000d26200016b565b60c052505050506001600160a01b0391821660e05250600680546001600160a01b03191691831691821790556040515f907f8be0079c531659141344cd1fd0a4f28419497f9722a3daafe3b4186f6b6457e0908290a3506001600160a01b03918216610100528116610120521661014052600d86905584516200015d90600e90602088019062000205565b505050505050505062000704565b5f7f8b73c3c69bb8fe3d512ecc4cf759cc79239f7b179b0ffacaa9a75d522b39400f5f6040516200019d91906200068a565b6040805191829003822060208301939093528101919091527fc89efdaa54c0f20c7adf612882df0950f5a951637e0307cdcb4c672f298b8bc660608201524660808201523060a082015260c00160405160208183030381529060405280519060200120905090565b828054828255905f5260205f2090600301600490048101928215620002af579160200282015f5b838211156200027857835183826101000a8154816001600160401b0302191690836001600160401b0316021790555092602001926008016020816007010492830192600103026200022c565b8015620002ad5782816101000a8154906001600160401b03021916905560080160208160070104928301926001030262000278565b505b50620002bd929150620002c1565b5090565b5b80821115620002bd575f8155600101620002c2565b80516001600160a01b0381168114620002ee575f80fd5b919050565b634e487b7160e01b5f52604160045260245ffd5b604051601f8201601f191681016001600160401b0381118282101715620003325762000332620002f3565b604052919050565b5f82601f8301126200034a575f80fd5b81516001600160401b03811115620003665762000366620002f3565b60206200037c601f8301601f1916820162000307565b828152858284870101111562000390575f80fd5b5f5b83811015620003af57858101830151828201840152820162000392565b505f928101909101919091529392505050565b5f805f805f805f60e0888a031215620003d9575f80fd5b620003e488620002d7565b60208981015160408b01519299509750906001600160401b03808211156200040a575f80fd5b818b0191508b601f8301126200041e575f80fd5b815181811115620004335762000433620002f3565b8060051b6200044485820162000307565b918252838101850191858101908f8411156200045e575f80fd5b948601945b8386101562000490578551925084831683146200047f575f8081fd5b828252948601949086019062000463565b9a50620004a49250505060608c01620002d7565b9650620004b460808c01620002d7565b955060a08b0151925080831115620004ca575f80fd5b620004d88c848d016200033a565b945060c08b0151925080831115620004ee575f80fd5b5050620004fe8a828b016200033a565b91505092959891949750929550565b5f602082840312156200051e575f80fd5b815160ff811681146200052f575f80fd5b9392505050565b600181811c908216806200054b57607f821691505b6020821081036200056a57634e487b7160e01b5f52602260045260245ffd5b50919050565b601f821115620005bd575f81815260208120601f850160051c81016020861015620005985750805b601f850160051c820191505b81811015620005b957828155600101620005a4565b5050505b505050565b81516001600160401b03811115620005de57620005de620002f3565b620005f681620005ef845462000536565b8462000570565b602080601f8311600181146200062c575f8415620006145750858301515b5f19600386901b1c1916600185901b178555620005b9565b5f85815260208120601f198616915b828110156200065c578886015182559484019460019091019084016200063b565b50858210156200067a57878501515f19600388901b60f8161c191681555b5050505050600190811b01905550565b5f808354620006998162000536565b60018281168015620006b45760018114620006ca57620006f8565b60ff1984168752821515830287019450620006f8565b875f526020805f205f5b85811015620006ef5781548a820152908401908201620006d4565b50505082870194505b50929695505050505050565b60805160a05160c05160e051610100516101205161014051613ff6620007f05f395f818161040b01526124aa01525f818161077d01528181612100015281816121e9015281816123d5015281816127f101528181612d0501528181612dca0152818161306901528181613176015261357401525f81816108bc015281816120d7015281816123a6015281816127c201528181612cce01528181612dfb0152818161303a015261354501525f81816104be01528181610be20152818161141701528181612c070152818161331201526134db01525f61112e01525f6110fe01525f61047d0152613ff65ff3fe608060405234801561000f575f80fd5b5060043610610330575f3560e01c80637ecebe00116101b3578063c4f59f9b116100f3578063d905777e1161009e578063ef8b30f711610079578063ef8b30f71461087e578063f2fde38b14610891578063f56f4f0f146108a4578063fc0c546a146108b7575f80fd5b8063d905777e14610800578063dd62ed3e14610835578063e031cc831461085f575f80fd5b8063cce9d801116100ce578063cce9d801146107c7578063ce96cb77146107da578063d505accf146107ed575f80fd5b8063c4f59f9b1461079f578063c63d75b6146104e0578063c6e6f592146107b4575f80fd5b8063a209a86f1161015e578063b3d7f6b911610139578063b3d7f6b91461073f578063b460af9414610752578063ba08765214610765578063c20bb5ac14610778575f80fd5b8063a209a86f146106e1578063a9059cbb14610700578063b294eb1814610713575f80fd5b806394bf804d1161018e57806394bf804d146106b357806395d89b41146106c65780639f01f7ba146106ce575f80fd5b80637ecebe00146106555780638da5cb5b14610674578063919dd0b714610694575f80fd5b80632b187b2b1161027e57806348e5d9f811610229578063596404bb11610204578063596404bb146105a15780636e553f651461061057806370a08231146106235780637bb7bed114610642575f80fd5b806348e5d9f8146105375780634cdad50614610585578063570ca73514610598575f80fd5b806338d52e0f1161025957806338d52e0f146104b9578063402d267d146104e0578063451831e414610513575f80fd5b80632b187b2b14610465578063313ce567146104785780633644e515146104b1575f80fd5b8063106d08df116102de5780632026ffa3116102b95780632026ffa3146103e6578063220cce971461040657806323b872dd14610452575f80fd5b8063106d08df146103b757806318160ddd146103ca5780631c03e6cc146103d3575f80fd5b8063095ea7b31161030e578063095ea7b3146103775780630a28a4771461039a5780630cea2bda146103ad575f80fd5b806301e1d1141461033457806306fdde031461034f57806307a2d13a14610364575b5f80fd5b61033c6108de565b6040519081526020015b60405180910390f35b6103576108ed565b60405161034691906139ba565b61033c610372366004613a23565b610978565b61038a610385366004613a62565b6109a4565b6040519015158152602001610346565b61033c6103a8366004613a23565b610a1d565b6103b5610a3c565b005b6103b56103c5366004613a23565b610ac2565b61033c60025481565b6103b56103e1366004613a8a565b610bc2565b6103f96103f4366004613aa3565b610e9b565b6040516103469190613b5b565b61042d7f000000000000000000000000000000000000000000000000000000000000000081565b60405173ffffffffffffffffffffffffffffffffffffffff9091168152602001610346565b61038a610460366004613b6d565b61101b565b6103b5610473366004613a23565b61103a565b61049f7f000000000000000000000000000000000000000000000000000000000000000081565b60405160ff9091168152602001610346565b61033c6110fb565b61042d7f000000000000000000000000000000000000000000000000000000000000000081565b61033c6104ee366004613a8a565b507fffffffffffffffffffffffffffffffffffffffffffffffffffffffffffffffff90565b610526610521366004613a8a565b611150565b604051610346959493929190613ba6565b610568610545366004613a8a565b60086020525f908152604090208054600182015460029092015490919060ff1683565b604080519384526020840192909252151590820152606001610346565b61033c610593366004613a23565b61124f565b61033c600d5481565b6105e86105af366004613bde565b600960209081525f9283526040808420909152908252902080546001820154600283015460038401546004909401549293919290919085565b604080519586526020860194909452928401919091526060830152608082015260a001610346565b61033c61061e366004613c0f565b611259565b61033c610631366004613a8a565b60036020525f908152604090205481565b61042d610650366004613a23565b6113bc565b61033c610663366004613a8a565b60056020525f908152604090205481565b60065461042d9073ffffffffffffffffffffffffffffffffffffffff1681565b61033c6106a2366004613a8a565b600c6020525f908152604090205481565b61033c6106c1366004613c0f565b6113f1565b6103576114a2565b6103b56106dc366004613a23565b6114af565b61033c6106ef366004613a8a565b600a6020525f908152604090205481565b61038a61070e366004613a62565b6115d4565b610726610721366004613a23565b6115ea565b60405167ffffffffffffffff9091168152602001610346565b61033c61074d366004613a23565b611625565b61033c610760366004613c30565b611643565b61033c610773366004613c30565b6117c3565b61042d7f000000000000000000000000000000000000000000000000000000000000000081565b6107a7611944565b6040516103469190613c69565b61033c6107c2366004613a23565b6119b1565b6103b56107d5366004613a23565b6119d0565b61033c6107e8366004613a8a565b611a9f565b6103b56107fb366004613cc2565b611acd565b61033c61080e366004613a8a565b73ffffffffffffffffffffffffffffffffffffffff165f9081526003602052604090205490565b61033c610843366004613bde565b600460209081525f928352604080842090915290825290205481565b61033c61086d366004613a8a565b600b6020525f908152604090205481565b61033c61088c366004613a23565b611de6565b6103b561089f366004613a8a565b611df0565b61033c6108b2366004613bde565b611ee1565b61042d7f000000000000000000000000000000000000000000000000000000000000000081565b5f6108e83061208a565b905090565b5f80546108f990613d2f565b80601f016020809104026020016040519081016040528092919081815260200182805461092590613d2f565b80156109705780601f1061094757610100808354040283529160200191610970565b820191905f5260205f20905b81548152906001019060200180831161095357829003601f168201915b505050505081565b6002545f90801561099b5761099661098e6108de565b84908361216b565b61099d565b825b9392505050565b335f81815260046020908152604080832073ffffffffffffffffffffffffffffffffffffffff8716808552925280832085905551919290917f8c5be1e5ebec7d5bd14f71427d1e84f3dd0314c0f7b2291e5b200ac8c7c3b92590610a0b9086815260200190565b60405180910390a35060015b92915050565b6002545f90801561099b5761099681610a346108de565b8591906121a5565b335f908152600b602052604081205490819003610a85576040517f601701d900000000000000000000000000000000000000000000000000000000815260040160405180910390fd5b610a8d6121e7565b335f908152600a602052604081208054839290610aab908490613dad565b9091555050335f908152600b602052604081205550565b5f610acc82610a1d565b335f90815260036020526040902054909150811115610b4c576040517f08c379a000000000000000000000000000000000000000000000000000000000815260206004820152601360248201527f496e73756666696369656e74207368617265730000000000000000000000000060448201526064015b60405180910390fd5b335f908152600b602052604081208054849290610b6a908490613dad565b90915550610b7b9050335f83612263565b610b87600d548361235c565b600d546040518381527f3f3ac42003d85fd976b1896956dfdb3db9b2b67fb64d13e8eefd4c12f749bfc9906020015b60405180910390a25050565b73ffffffffffffffffffffffffffffffffffffffff81161580610c3057507f000000000000000000000000000000000000000000000000000000000000000073ffffffffffffffffffffffffffffffffffffffff168173ffffffffffffffffffffffffffffffffffffffff16145b15610c67576040517fdfde867100000000000000000000000000000000000000000000000000000000815260040160405180910390fd5b73ffffffffffffffffffffffffffffffffffffffff81165f9081526008602052604090206002015460ff1615610cc9576040517f4611beab00000000000000000000000000000000000000000000000000000000815260040160405180910390fd5b6040518060a001604052805f81526020014281526020016001151581526020015f67ffffffffffffffff811115610d0257610d02613dc0565b604051908082528060200260200182016040528015610d2b578160200160208202803683370190505b5081526020015f604051908082528060200260200182016040528015610d5b578160200160208202803683370190505b50905273ffffffffffffffffffffffffffffffffffffffff82165f9081526008602090815260409182902083518155838201516001820155918301516002830180547fffffffffffffffffffffffffffffffffffffffffffffffffffffffffffffff001691151591909117905560608301518051610ddf926003850192019061395d565b5060808201518051610dfb91600484019160209091019061395d565b5050600780546001810182555f9182527fa66cc928b5edb82af9bd49922954155ab7b0942694bea4ce44661d9a8736c6880180547fffffffffffffffffffffffff00000000000000000000000000000000000000001673ffffffffffffffffffffffffffffffffffffffff85169081179091556040519092507ff3e4c2c64e71e6ba2eaab9a599bced62f9eb91d2cda610bf41aa8c80ff2cf8269190a250565b60603373ffffffffffffffffffffffffffffffffffffffff851614610eec576040517f82b4290000000000000000000000000000000000000000000000000000000000815260040160405180910390fd5b610ef65f8061245e565b8167ffffffffffffffff811115610f0f57610f0f613dc0565b604051908082528060200260200182016040528015610f38578160200160208202803683370190505b509050610f436124fd565b5f5b82811015611013575f848483818110610f6057610f60613ded565b9050602002016020810190610f759190613a8a565b73ffffffffffffffffffffffffffffffffffffffff81165f9081526008602052604090206002015490915060ff16610fd9576040517fdfde867100000000000000000000000000000000000000000000000000000000815260040160405180910390fd5b610fe3868261255a565b838381518110610ff557610ff5613ded565b6020908102919091010152508061100b81613e1a565b915050610f45565b509392505050565b5f611027848484612263565b611032848484612638565b949350505050565b335f908152600b602052604090205480821115611083576040517f1ae47f5100000000000000000000000000000000000000000000000000000000815260040160405180910390fd5b61108d8282613e51565b335f908152600b6020526040902055600d546110a99083612778565b5f6110b383610a1d565b90506110c0333383612263565b60405183815233907f02fbe69eb5474cc010b6c0c236dd70755556cee48c19373e79147100e04de70b906020015b60405180910390a2505050565b5f7f0000000000000000000000000000000000000000000000000000000000000000461461112b576108e861287a565b507f000000000000000000000000000000000000000000000000000000000000000090565b73ffffffffffffffffffffffffffffffffffffffff81165f90815260086020908152604080832080546001820154600283015460038401805486518189028101890190975280875288978897606097889790969095909460ff90911693909260048801929184918301828280156111e457602002820191905f5260205f20905b8154815260200190600101908083116111d0575b505050505091508080548060200260200160405190810160405280929190818152602001828054801561123457602002820191905f5260205f20905b815481526020019060010190808311611220575b50505050509050955095509550955095505091939590929450565b5f610a1782610978565b5f61126383611de6565b6007549091501561131a576112766124fd565b5f5b600754811015611318575f6007828154811061129657611296613ded565b5f91825260208220015473ffffffffffffffffffffffffffffffffffffffff1691506112c28583612912565b73ffffffffffffffffffffffffffffffffffffffff86165f9081526003602052604090205490915061130390869084906112fd908890613dad565b846129d1565b5050808061131090613e1a565b915050611278565b505b6113248383612b78565b5061132e83612c89565b610a17600d5484600e8054806020026020016040519081016040528092919081815260200182805480156113b257602002820191905f5260205f20905f905b82829054906101000a900467ffffffffffffffff1667ffffffffffffffff168152602001906008019060208260070104928301926001038202915080841161136d5790505b5050505050612d8d565b600781815481106113cb575f80fd5b5f9182526020909120015473ffffffffffffffffffffffffffffffffffffffff16905081565b5f6113fb83611625565b905061143f73ffffffffffffffffffffffffffffffffffffffff7f000000000000000000000000000000000000000000000000000000000000000016333084612e86565b6114498284612f80565b604080518281526020810185905273ffffffffffffffffffffffffffffffffffffffff84169133917fdcbc1c05240f31ff3ad067ef1ee35ce4997762752e3a095284754544f4c709d791015b60405180910390a3610a17565b600180546108f990613d2f565b335f908152600c6020526040902054808211156114f8576040517f1ae47f5100000000000000000000000000000000000000000000000000000000815260040160405180910390fd5b6115028282613e51565b335f908152600c6020908152604080832093909355600a9052908120805484929061152e908490613dad565b9091555061153d905082612ff7565b6115a2600d5483600e8054806020026020016040519081016040528092919081815260200182805480156113b2575f918252602091829020805467ffffffffffffffff16845290820283019290916008910180841161136d5790505050505050612d8d565b60405182815233907f2eed97477f07c07ec48f8f678f4e84f7c0de55bf33f51c3dc989b1335308031990602001610bb6565b5f6115e0338484612263565b61099d83836130f1565b600e81815481106115f9575f80fd5b905f5260205f209060049182820401919006600802915054906101000a900467ffffffffffffffff1681565b6002545f90801561099b5761099661163b6108de565b8490836121a5565b73ffffffffffffffffffffffffffffffffffffffff81165f908152600c60205260408120548411156116a1576040517f601701d900000000000000000000000000000000000000000000000000000000815260040160405180910390fd5b6116a9613174565b73ffffffffffffffffffffffffffffffffffffffff82165f908152600c60205260409020546116d9908590613e51565b73ffffffffffffffffffffffffffffffffffffffff83165f908152600c602052604090205561170784610a1d565b600754909150156117b85761171a6124fd565b5f5b6007548110156117b6575f6007828154811061173a5761173a613ded565b5f91825260208220015473ffffffffffffffffffffffffffffffffffffffff1691506117668583612912565b73ffffffffffffffffffffffffffffffffffffffff86165f908152600360205260409020549091506117a190869084906112fd908890613e51565b505080806117ae90613e1a565b91505061171c565b505b6110328484846131d9565b5f6117cd8461124f565b73ffffffffffffffffffffffffffffffffffffffff83165f908152600c602052604090205490915081111561182e576040517f601701d900000000000000000000000000000000000000000000000000000000815260040160405180910390fd5b611836613174565b73ffffffffffffffffffffffffffffffffffffffff82165f908152600c6020526040902054611866908290613e51565b73ffffffffffffffffffffffffffffffffffffffff83165f908152600c6020526040902055600754156119395761189b6124fd565b5f5b600754811015611937575f600782815481106118bb576118bb613ded565b5f91825260208220015473ffffffffffffffffffffffffffffffffffffffff1691506118e78583612912565b73ffffffffffffffffffffffffffffffffffffffff86165f9081526003602052604090205490915061192290869084906112fd908b90613e51565b5050808061192f90613e1a565b91505061189d565b505b611032848484613339565b606060078054806020026020016040519081016040528092919081815260200182805480156119a757602002820191905f5260205f20905b815473ffffffffffffffffffffffffffffffffffffffff16815260019091019060200180831161197c575b5050505050905090565b6002545f90801561099b57610996816119c86108de565b85919061216b565b335f908152600a6020526040902054811115611a18576040517f090d2fd200000000000000000000000000000000000000000000000000000000815260040160405180910390fd5b335f908152600c602052604081208054839290611a36908490613dad565b9091555050335f908152600a602052604081208054839290611a59908490613e51565b90915550611a68905081613502565b6040518181527f546b4489d0d401144246692e660c7c88e2308702063f0a69461de575cf3fdb61906020015b60405180910390a150565b73ffffffffffffffffffffffffffffffffffffffff81165f90815260036020526040812054610a1790610978565b42841015611b37576040517f08c379a000000000000000000000000000000000000000000000000000000000815260206004820152601760248201527f5045524d49545f444541444c494e455f455850495245440000000000000000006044820152606401610b43565b5f6001611b426110fb565b73ffffffffffffffffffffffffffffffffffffffff8a81165f8181526005602090815260409182902080546001810190915582517f6e71edae12b1b97f4d1f60370fef10105fa2faae0126114a169c64845d6126c98184015280840194909452938d166060840152608083018c905260a083019390935260c08083018b90528151808403909101815260e0830190915280519201919091207f190100000000000000000000000000000000000000000000000000000000000061010083015261010282019290925261012281019190915261014201604080517fffffffffffffffffffffffffffffffffffffffffffffffffffffffffffffffe081840301815282825280516020918201205f84529083018083525260ff871690820152606081018590526080810184905260a0016020604051602081039080840390855afa158015611c90573d5f803e3d5ffd5b50506040517fffffffffffffffffffffffffffffffffffffffffffffffffffffffffffffffe0015191505073ffffffffffffffffffffffffffffffffffffffff811615801590611d0b57508773ffffffffffffffffffffffffffffffffffffffff168173ffffffffffffffffffffffffffffffffffffffff16145b611d71576040517f08c379a000000000000000000000000000000000000000000000000000000000815260206004820152600e60248201527f494e56414c49445f5349474e45520000000000000000000000000000000000006044820152606401610b43565b73ffffffffffffffffffffffffffffffffffffffff9081165f9081526004602090815260408083208a8516808552908352928190208990555188815291928a16917f8c5be1e5ebec7d5bd14f71427d1e84f3dd0314c0f7b2291e5b200ac8c7c3b925910160405180910390a350505050505050565b5f610a17826119b1565b60065473ffffffffffffffffffffffffffffffffffffffff163314611e71576040517f08c379a000000000000000000000000000000000000000000000000000000000815260206004820152600c60248201527f554e415554484f52495a454400000000000000000000000000000000000000006044820152606401610b43565b600680547fffffffffffffffffffffffff00000000000000000000000000000000000000001673ffffffffffffffffffffffffffffffffffffffff831690811790915560405133907f8be0079c531659141344cd1fd0a4f28419497f9722a3daafe3b4186f6b6457e0905f90a350565b73ffffffffffffffffffffffffffffffffffffffff82165f908152600360205260408120548103611f1357505f610a17565b73ffffffffffffffffffffffffffffffffffffffff8084165f908152600960209081526040808320938616808452938252808320815160a080820184528254825260018084015483870152600280850154848701526003808601546060808701919091526004909601546080860152988852600887528588208651938401875280548452918201548388015281015460ff16151582860152968701805485518188028101880190965280865292979195919493860193929091830182828015611ff957602002820191905f5260205f20905b815481526020019060010190808311611fe5575b505050505081526020016004820180548060200260200160405190810160405280929190818152602001828054801561204f57602002820191905f5260205f20905b81548152602001906001019080831161203b575b505050919092525050835182519293506120819261206d9250613e51565b604084015190670de0b6b3a764000061216b565b95945050505050565b6040517f467f4cb900000000000000000000000000000000000000000000000000000000815273ffffffffffffffffffffffffffffffffffffffff82811660048301525f602483018190527f000000000000000000000000000000000000000000000000000000000000000082166044840152917f00000000000000000000000000000000000000000000000000000000000000009091169063467f4cb990606401602060405180830381865afa158015612147573d5f803e3d5ffd5b505050506040513d601f19601f82011682018060405250810190610a179190613e64565b5f827fffffffffffffffffffffffffffffffffffffffffffffffffffffffffffffffff048411830215820261219e575f80fd5b5091020490565b5f827fffffffffffffffffffffffffffffffffffffffffffffffffffffffffffffffff04841183021582026121d8575f80fd5b50910281810615159190040190565b7f000000000000000000000000000000000000000000000000000000000000000073ffffffffffffffffffffffffffffffffffffffff16627910d06040518163ffffffff1660e01b81526004015f604051808303815f87803b15801561224b575f80fd5b505af115801561225d573d5f803e3d5ffd5b50505050565b6007545f0361227157505050565b73ffffffffffffffffffffffffffffffffffffffff8084165f908152600360205260408082205492851682529020546122a86124fd565b5f5b600754811015612354575f600782815481106122c8576122c8613ded565b5f91825260208220015473ffffffffffffffffffffffffffffffffffffffff1691506122f48883612912565b905061230588836112fd8989613e51565b73ffffffffffffffffffffffffffffffffffffffff87161561233f575f61232c8884612912565b905061233d88846112fd8a89613dad565b505b5050808061234c90613e1a565b9150506122aa565b505050505050565b6040517f5bea61c6000000000000000000000000000000000000000000000000000000008152600481018390525f602482015273ffffffffffffffffffffffffffffffffffffffff7f000000000000000000000000000000000000000000000000000000000000000081166044830152606482018390527f00000000000000000000000000000000000000000000000000000000000000001690635bea61c6906084015f604051808303815f87803b158015612416575f80fd5b505af1158015612428573d5f803e3d5ffd5b50505050817f3f3ac42003d85fd976b1896956dfdb3db9b2b67fb64d13e8eefd4c12f749bfc982604051610bb691815260200190565b6040517f6c7b69cb0000000000000000000000000000000000000000000000000000000081526004810183905273ffffffffffffffffffffffffffffffffffffffff82811660248301527f00000000000000000000000000000000000000000000000000000000000000001690636c7b69cb906044015f604051808303815f87803b1580156124eb575f80fd5b505af1158015612354573d5f803e3d5ffd5b5f5b600754811015612557576125456007828154811061251f5761251f613ded565b5f9182526020909120015473ffffffffffffffffffffffffffffffffffffffff166135fc565b8061254f81613e1a565b9150506124ff565b50565b5f612564826135fc565b5f61256f8484612912565b9050801561099d5773ffffffffffffffffffffffffffffffffffffffff84165f908152600360205260408120546125a991869186916129d1565b6125ca73ffffffffffffffffffffffffffffffffffffffff84168583613784565b8273ffffffffffffffffffffffffffffffffffffffff168473ffffffffffffffffffffffffffffffffffffffff167f9310ccfcb8de723f578a9e4282ea9f521f05ae40dc08f3068dfad528a65ee3c78360405161262991815260200190565b60405180910390a39392505050565b73ffffffffffffffffffffffffffffffffffffffff83165f9081526004602090815260408083203384529091528120547fffffffffffffffffffffffffffffffffffffffffffffffffffffffffffffffff81146126ca576126998382613e51565b73ffffffffffffffffffffffffffffffffffffffff86165f9081526004602090815260408083203384529091529020555b73ffffffffffffffffffffffffffffffffffffffff85165f90815260036020526040812080548592906126fe908490613e51565b909155505073ffffffffffffffffffffffffffffffffffffffff8085165f81815260036020526040908190208054870190555190918716907fddf252ad1be2c89b69c2b068fc378daa952ba7f163c4a11628f55a4df523b3ef906127659087815260200190565b60405180910390a3506001949350505050565b6040517f504aff13000000000000000000000000000000000000000000000000000000008152600481018390525f602482015273ffffffffffffffffffffffffffffffffffffffff7f000000000000000000000000000000000000000000000000000000000000000081166044830152606482018390527f0000000000000000000000000000000000000000000000000000000000000000169063504aff13906084015f604051808303815f87803b158015612832575f80fd5b505af1158015612844573d5f803e3d5ffd5b50505050817f9b273eef61583cf74e826aa833dad475fcc942934d793017466e758e9aaf57cf82604051610bb691815260200190565b5f7f8b73c3c69bb8fe3d512ecc4cf759cc79239f7b179b0ffacaa9a75d522b39400f5f6040516128aa9190613e7b565b6040805191829003822060208301939093528101919091527fc89efdaa54c0f20c7adf612882df0950f5a951637e0307cdcb4c672f298b8bc660608201524660808201523060a082015260c00160405160208183030381529060405280519060200120905090565b73ffffffffffffffffffffffffffffffffffffffff8083165f908152600960209081526040808320938516808452938252808320815160a081018352815481526001820154818501526002820154818401526003820154606082015260049091015460808201529383526008909152812082518154929392849161299591613e51565b60408401519091505f906129b29083670de0b6b3a76400006121a5565b90505f8460800151826129c59190613dad565b98975050505050505050565b5f60085f8573ffffffffffffffffffffffffffffffffffffffff1673ffffffffffffffffffffffffffffffffffffffff1681526020019081526020015f2090506040518060a00160405280825f01548152602001428152602001848152602001826003018054905081526020018381525060095f8773ffffffffffffffffffffffffffffffffffffffff1673ffffffffffffffffffffffffffffffffffffffff1681526020019081526020015f205f8673ffffffffffffffffffffffffffffffffffffffff1673ffffffffffffffffffffffffffffffffffffffff1681526020019081526020015f205f820151815f0155602082015181600101556040820151816002015560608201518160030155608082015181600401559050508373ffffffffffffffffffffffffffffffffffffffff168573ffffffffffffffffffffffffffffffffffffffff167fbb2e4f291bde0a5cfcec3ae5671cace93d49f19913961a8ab7b15a6262514698835f0154428560030180549050604051612b69939291909283526020830191909152604082015260600190565b60405180910390a35050505050565b5f612b8283611de6565b9050805f03612bed576040517f08c379a000000000000000000000000000000000000000000000000000000000815260206004820152600b60248201527f5a45524f5f5348415245530000000000000000000000000000000000000000006044820152606401610b43565b612c2f73ffffffffffffffffffffffffffffffffffffffff7f000000000000000000000000000000000000000000000000000000000000000016333086612e86565b612c398282612f80565b604080518481526020810183905273ffffffffffffffffffffffffffffffffffffffff84169133917fdcbc1c05240f31ff3ad067ef1ee35ce4997762752e3a095284754544f4c709d79101611495565b6040517fb3c113950000000000000000000000000000000000000000000000000000000081525f6004820181905273ffffffffffffffffffffffffffffffffffffffff7f0000000000000000000000000000000000000000000000000000000000000000811660248401526044830184905260648301919091527f0000000000000000000000000000000000000000000000000000000000000000169063b3c11395906084015f604051808303815f87803b158015612d46575f80fd5b505af1158015612d58573d5f803e3d5ffd5b505050507f2a89b2e3d580398d6dc2db5e0f336b52602bbaa51afa9bb5cdf59239cf0d2bea81604051611a9491815260200190565b6040517fa12de0ba00000000000000000000000000000000000000000000000000000000815273ffffffffffffffffffffffffffffffffffffffff7f0000000000000000000000000000000000000000000000000000000000000000169063a12de0ba90612e279086905f907f00000000000000000000000000000000000000000000000000000000000000009088908890600401613f86565b5f604051808303815f87803b158015612e3e575f80fd5b505af1158015612e50573d5f803e3d5ffd5b50505050827f492992fdafc55cec84ec4623d119a6984ae91c248fafa42c20f9b7277942ed4a83836040516110ee929190613fd1565b5f6040517f23b872dd00000000000000000000000000000000000000000000000000000000815273ffffffffffffffffffffffffffffffffffffffff8516600482015273ffffffffffffffffffffffffffffffffffffffff8416602482015282604482015260205f6064835f8a5af191505080601f3d1160015f511416151615612f125750833b153d17155b80612f79576040517f08c379a000000000000000000000000000000000000000000000000000000000815260206004820152601460248201527f5452414e534645525f46524f4d5f4641494c45440000000000000000000000006044820152606401610b43565b5050505050565b8060025f828254612f919190613dad565b909155505073ffffffffffffffffffffffffffffffffffffffff82165f818152600360209081526040808320805486019055518481527fddf252ad1be2c89b69c2b068fc378daa952ba7f163c4a11628f55a4df523b3ef91015b60405180910390a35050565b6040517f098d2a200000000000000000000000000000000000000000000000000000000081525f600482015273ffffffffffffffffffffffffffffffffffffffff7f000000000000000000000000000000000000000000000000000000000000000081166024830152604482018390527f0000000000000000000000000000000000000000000000000000000000000000169063098d2a20906064015f604051808303815f87803b1580156130aa575f80fd5b505af11580156130bc573d5f803e3d5ffd5b505050507fe8de1e631ea541ac8e6cb398aafb71b991eb58d489298f7bc93ba7e17fa2042b81604051611a9491815260200190565b335f90815260036020526040812080548391908390613111908490613e51565b909155505073ffffffffffffffffffffffffffffffffffffffff83165f81815260036020526040908190208054850190555133907fddf252ad1be2c89b69c2b068fc378daa952ba7f163c4a11628f55a4df523b3ef90610a0b9086815260200190565b7f000000000000000000000000000000000000000000000000000000000000000073ffffffffffffffffffffffffffffffffffffffff1663f8fd97956040518163ffffffff1660e01b81526004015f604051808303815f87803b15801561224b575f80fd5b5f6131e384610a1d565b90503373ffffffffffffffffffffffffffffffffffffffff8316146132965773ffffffffffffffffffffffffffffffffffffffff82165f9081526004602090815260408083203384529091529020547fffffffffffffffffffffffffffffffffffffffffffffffffffffffffffffffff8114613294576132638282613e51565b73ffffffffffffffffffffffffffffffffffffffff84165f9081526004602090815260408083203384529091529020555b505b6132a0828261385b565b604080518581526020810183905273ffffffffffffffffffffffffffffffffffffffff808516929086169133917ffbde797d201c681b91056529119e0b02407c7bb96a4a2c75c01fc9667232c8db910160405180910390a461099d73ffffffffffffffffffffffffffffffffffffffff7f0000000000000000000000000000000000000000000000000000000000000000168486613784565b5f3373ffffffffffffffffffffffffffffffffffffffff8316146133eb5773ffffffffffffffffffffffffffffffffffffffff82165f9081526004602090815260408083203384529091529020547fffffffffffffffffffffffffffffffffffffffffffffffffffffffffffffffff81146133e9576133b88582613e51565b73ffffffffffffffffffffffffffffffffffffffff84165f9081526004602090815260408083203384529091529020555b505b6133f48461124f565b9050805f0361345f576040517f08c379a000000000000000000000000000000000000000000000000000000000815260206004820152600b60248201527f5a45524f5f4153534554530000000000000000000000000000000000000000006044820152606401610b43565b613469828561385b565b604080518281526020810186905273ffffffffffffffffffffffffffffffffffffffff808516929086169133917ffbde797d201c681b91056529119e0b02407c7bb96a4a2c75c01fc9667232c8db910160405180910390a461099d73ffffffffffffffffffffffffffffffffffffffff7f0000000000000000000000000000000000000000000000000000000000000000168483613784565b6040517fa125b1460000000000000000000000000000000000000000000000000000000081525f600482015273ffffffffffffffffffffffffffffffffffffffff7f000000000000000000000000000000000000000000000000000000000000000081166024830152604482018390527f0000000000000000000000000000000000000000000000000000000000000000169063a125b146906064015f604051808303815f87803b1580156135b5575f80fd5b505af11580156135c7573d5f803e3d5ffd5b505050507f546b4489d0d401144246692e660c7c88e2308702063f0a69461de575cf3fdb6181604051611a9491815260200190565b73ffffffffffffffffffffffffffffffffffffffff81165f8181526008602052604080822090517f70a082310000000000000000000000000000000000000000000000000000000081523060048201529092906370a0823190602401602060405180830381865afa158015613673573d5f803e3d5ffd5b505050506040513d601f19601f820116820180604052508101906136979190613e64565b90505f6136a3846138e7565b905080821115613778575f6136b88284613e51565b600385018054600181810183555f928352602080842042930192909255600488018054918201815583529120018190556002549091508015613775575f61370883670de0b6b3a76400008461216b565b905080865f015f82825461371c9190613dad565b909155505085546040805191825242602083015273ffffffffffffffffffffffffffffffffffffffff8916917f1f0d2c1245dfc4eaee921d7b25e80cb547e4739ea0d8163647cf40ebd162e5b0910160405180910390a2505b50505b50504260019091015550565b5f6040517fa9059cbb00000000000000000000000000000000000000000000000000000000815273ffffffffffffffffffffffffffffffffffffffff8416600482015282602482015260205f6044835f895af191505080601f3d1160015f5114161516156137f45750823b153d17155b8061225d576040517f08c379a000000000000000000000000000000000000000000000000000000000815260206004820152600f60248201527f5452414e534645525f4641494c454400000000000000000000000000000000006044820152606401610b43565b73ffffffffffffffffffffffffffffffffffffffff82165f908152600360205260408120805483929061388f908490613e51565b90915550506002805482900390556040518181525f9073ffffffffffffffffffffffffffffffffffffffff8416907fddf252ad1be2c89b69c2b068fc378daa952ba7f163c4a11628f55a4df523b3ef90602001612feb565b73ffffffffffffffffffffffffffffffffffffffff81165f908152600860205260408120815b60048201548110156139565781600401818154811061392e5761392e613ded565b905f5260205f200154836139429190613dad565b92508061394e81613e1a565b91505061390d565b5050919050565b828054828255905f5260205f20908101928215613996579160200282015b8281111561399657825182559160200191906001019061397b565b506139a29291506139a6565b5090565b5b808211156139a2575f81556001016139a7565b5f6020808352835180828501525f5b818110156139e5578581018301518582016040015282016139c9565b505f6040828601015260407fffffffffffffffffffffffffffffffffffffffffffffffffffffffffffffffe0601f8301168501019250505092915050565b5f60208284031215613a33575f80fd5b5035919050565b803573ffffffffffffffffffffffffffffffffffffffff81168114613a5d575f80fd5b919050565b5f8060408385031215613a73575f80fd5b613a7c83613a3a565b946020939093013593505050565b5f60208284031215613a9a575f80fd5b61099d82613a3a565b5f805f60408486031215613ab5575f80fd5b613abe84613a3a565b9250602084013567ffffffffffffffff80821115613ada575f80fd5b818601915086601f830112613aed575f80fd5b813581811115613afb575f80fd5b8760208260051b8501011115613b0f575f80fd5b6020830194508093505050509250925092565b5f8151808452602080850194508084015f5b83811015613b5057815187529582019590820190600101613b34565b509495945050505050565b602081525f61099d6020830184613b22565b5f805f60608486031215613b7f575f80fd5b613b8884613a3a565b9250613b9660208501613a3a565b9150604084013590509250925092565b858152846020820152831515604082015260a060608201525f613bcc60a0830185613b22565b82810360808401526129c58185613b22565b5f8060408385031215613bef575f80fd5b613bf883613a3a565b9150613c0660208401613a3a565b90509250929050565b5f8060408385031215613c20575f80fd5b82359150613c0660208401613a3a565b5f805f60608486031215613c42575f80fd5b83359250613c5260208501613a3a565b9150613c6060408501613a3a565b90509250925092565b602080825282518282018190525f9190848201906040850190845b81811015613cb657835173ffffffffffffffffffffffffffffffffffffffff1683529284019291840191600101613c84565b50909695505050505050565b5f805f805f805f60e0888a031215613cd8575f80fd5b613ce188613a3a565b9650613cef60208901613a3a565b95506040880135945060608801359350608088013560ff81168114613d12575f80fd5b9699959850939692959460a0840135945060c09093013592915050565b600181811c90821680613d4357607f821691505b602082108103613d7a577f4e487b71000000000000000000000000000000000000000000000000000000005f52602260045260245ffd5b50919050565b7f4e487b71000000000000000000000000000000000000000000000000000000005f52601160045260245ffd5b80820180821115610a1757610a17613d80565b7f4e487b71000000000000000000000000000000000000000000000000000000005f52604160045260245ffd5b7f4e487b71000000000000000000000000000000000000000000000000000000005f52603260045260245ffd5b5f7fffffffffffffffffffffffffffffffffffffffffffffffffffffffffffffffff8203613e4a57613e4a613d80565b5060010190565b81810381811115610a1757610a17613d80565b5f60208284031215613e74575f80fd5b5051919050565b5f80835481600182811c915080831680613e9657607f831692505b60208084108203613ece577f4e487b710000000000000000000000000000000000000000000000000000000086526022600452602486fd5b818015613ee25760018114613f1557613f40565b7fffffffffffffffffffffffffffffffffffffffffffffffffffffffffffffff0086168952841515850289019650613f40565b5f8a8152602090205f5b86811015613f385781548b820152908501908301613f1f565b505084890196505b509498975050505050505050565b5f8151808452602080850194508084015f5b83811015613b5057815167ffffffffffffffff1687529582019590820190600101613f60565b85815284602082015273ffffffffffffffffffffffffffffffffffffffff8416604082015282606082015260a060808201525f613fc660a0830184613f4e565b979650505050505050565b828152604060208201525f6110326040830184613f4e56fea164736f6c6343000814000a","linkReferences":{}},"methodIdentifiers":{"DOMAIN_SEPARATOR()":"3644e515","addRewardToken(address)":"1c03e6cc","allowance(address,address)":"dd62ed3e","approve(address,uint256)":"095ea7b3","asset()":"38d52e0f","balanceOf(address)":"70a08231","blueprintSelection(uint256)":"b294eb18","cancelUnstake(uint256)":"2b187b2b","cancelWithdraw(uint256)":"9f01f7ba","claimRewards(address,address[])":"2026ffa3","convertToAssets(uint256)":"07a2d13a","convertToShares(uint256)":"c6e6f592","decimals()":"313ce567","deposit(uint256,address)":"6e553f65","executeUnstake()":"0cea2bda","getClaimableRewards(address,address)":"f56f4f0f","getRewardData(address)":"451831e4","getRewardTokens()":"c4f59f9b","mads()":"c20bb5ac","maxDeposit(address)":"402d267d","maxMint(address)":"c63d75b6","maxRedeem(address)":"d905777e","maxWithdraw(address)":"ce96cb77","mint(uint256,address)":"94bf804d","name()":"06fdde03","nonces(address)":"7ecebe00","operator()":"570ca735","owner()":"8da5cb5b","permit(address,address,uint256,uint256,uint8,bytes32,bytes32)":"d505accf","previewDeposit(uint256)":"ef8b30f7","previewMint(uint256)":"b3d7f6b9","previewRedeem(uint256)":"4cdad506","previewWithdraw(uint256)":"0a28a477","redeem(uint256,address,address)":"ba087652","rewardData(address)":"48e5d9f8","rewardTokens(uint256)":"7bb7bed1","rewardsContract()":"220cce97","scheduleUnstake(uint256)":"106d08df","scheduleWithdraw(uint256)":"cce9d801","scheduledUnstakeAmount(address)":"e031cc83","scheduledWithdrawAmount(address)":"919dd0b7","symbol()":"95d89b41","token()":"fc0c546a","totalAssets()":"01e1d114","totalSupply()":"18160ddd","transfer(address,uint256)":"a9059cbb","transferFrom(address,address,uint256)":"23b872dd","transferOwnership(address)":"f2fde38b","unstakeAmount(address)":"a209a86f","userSnapshots(address,address)":"596404bb","withdraw(uint256,address,address)":"b460af94"},"id":30}