{"abi":[{"type":"constructor","inputs":[{"name":"_baseToken","type":"address","internalType":"address"},{"name":"_operator","type":"bytes32","internalType":"bytes32"},{"name":"_blueprintSelection","type":"uint64[]","internalType":"uint64[]"},{"name":"_mads","type":"address","internalType":"address"},{"name":"_name","type":"string","internalType":"string"},{"name":"_symbol","type":"string","internalType":"string"}],"stateMutability":"nonpayable"},{"type":"function","name":"DOMAIN_SEPARATOR","inputs":[],"outputs":[{"name":"","type":"bytes32","internalType":"bytes32"}],"stateMutability":"view"},{"type":"function","name":"addRewardToken","inputs":[{"name":"token","type":"address","internalType":"address"}],"outputs":[],"stateMutability":"nonpayable"},{"type":"function","name":"allowance","inputs":[{"name":"","type":"address","internalType":"address"},{"name":"","type":"address","internalType":"address"}],"outputs":[{"name":"","type":"uint256","internalType":"uint256"}],"stateMutability":"view"},{"type":"function","name":"approve","inputs":[{"name":"spender","type":"address","internalType":"address"},{"name":"amount","type":"uint256","internalType":"uint256"}],"outputs":[{"name":"","type":"bool","internalType":"bool"}],"stateMutability":"nonpayable"},{"type":"function","name":"asset","inputs":[],"outputs":[{"name":"","type":"address","internalType":"contract ERC20"}],"stateMutability":"view"},{"type":"function","name":"balanceOf","inputs":[{"name":"","type":"address","internalType":"address"}],"outputs":[{"name":"","type":"uint256","internalType":"uint256"}],"stateMutability":"view"},{"type":"function","name":"blueprintSelection","inputs":[{"name":"","type":"uint256","internalType":"uint256"}],"outputs":[{"name":"","type":"uint64","internalType":"uint64"}],"stateMutability":"view"},{"type":"function","name":"cancelUnstake","inputs":[{"name":"assets","type":"uint256","internalType":"uint256"}],"outputs":[],"stateMutability":"nonpayable"},{"type":"function","name":"cancelWithdraw","inputs":[{"name":"assets","type":"uint256","internalType":"uint256"}],"outputs":[],"stateMutability":"nonpayable"},{"type":"function","name":"claimRewards","inputs":[{"name":"user","type":"address","internalType":"address"},{"name":"tokens","type":"address[]","internalType":"address[]"}],"outputs":[{"name":"rewards","type":"uint256[]","internalType":"uint256[]"}],"stateMutability":"nonpayable"},{"type":"function","name":"convertToAssets","inputs":[{"name":"shares","type":"uint256","internalType":"uint256"}],"outputs":[{"name":"","type":"uint256","internalType":"uint256"}],"stateMutability":"view"},{"type":"function","name":"convertToShares","inputs":[{"name":"assets","type":"uint256","internalType":"uint256"}],"outputs":[{"name":"","type":"uint256","internalType":"uint256"}],"stateMutability":"view"},{"type":"function","name":"decimals","inputs":[],"outputs":[{"name":"","type":"uint8","internalType":"uint8"}],"stateMutability":"view"},{"type":"function","name":"deposit","inputs":[{"name":"assets","type":"uint256","internalType":"uint256"},{"name":"receiver","type":"address","internalType":"address"}],"outputs":[{"name":"shares","type":"uint256","internalType":"uint256"}],"stateMutability":"nonpayable"},{"type":"function","name":"executeUnstake","inputs":[],"outputs":[],"stateMutability":"nonpayable"},{"type":"function","name":"getClaimableRewards","inputs":[{"name":"user","type":"address","internalType":"address"},{"name":"token","type":"address","internalType":"address"}],"outputs":[{"name":"","type":"uint256","internalType":"uint256"}],"stateMutability":"view"},{"type":"function","name":"getRewardData","inputs":[{"name":"token","type":"address","internalType":"address"}],"outputs":[{"name":"index","type":"uint256","internalType":"uint256"},{"name":"lastUpdateTime","type":"uint256","internalType":"uint256"},{"name":"isValid","type":"bool","internalType":"bool"},{"name":"rewardTimestamps","type":"uint256[]","internalType":"uint256[]"},{"name":"rewardAmounts","type":"uint256[]","internalType":"uint256[]"}],"stateMutability":"view"},{"type":"function","name":"getRewardTokens","inputs":[],"outputs":[{"name":"","type":"address[]","internalType":"address[]"}],"stateMutability":"view"},{"type":"function","name":"mads","inputs":[],"outputs":[{"name":"","type":"address","internalType":"contract MultiAssetDelegation"}],"stateMutability":"view"},{"type":"function","name":"maxDeposit","inputs":[{"name":"","type":"address","internalType":"address"}],"outputs":[{"name":"","type":"uint256","internalType":"uint256"}],"stateMutability":"view"},{"type":"function","name":"maxMint","inputs":[{"name":"","type":"address","internalType":"address"}],"outputs":[{"name":"","type":"uint256","internalType":"uint256"}],"stateMutability":"view"},{"type":"function","name":"maxRedeem","inputs":[{"name":"owner","type":"address","internalType":"address"}],"outputs":[{"name":"","type":"uint256","internalType":"uint256"}],"stateMutability":"view"},{"type":"function","name":"maxWithdraw","inputs":[{"name":"owner","type":"address","internalType":"address"}],"outputs":[{"name":"","type":"uint256","internalType":"uint256"}],"stateMutability":"view"},{"type":"function","name":"mint","inputs":[{"name":"shares","type":"uint256","internalType":"uint256"},{"name":"receiver","type":"address","internalType":"address"}],"outputs":[{"name":"assets","type":"uint256","internalType":"uint256"}],"stateMutability":"nonpayable"},{"type":"function","name":"name","inputs":[],"outputs":[{"name":"","type":"string","internalType":"string"}],"stateMutability":"view"},{"type":"function","name":"nonces","inputs":[{"name":"","type":"address","internalType":"address"}],"outputs":[{"name":"","type":"uint256","internalType":"uint256"}],"stateMutability":"view"},{"type":"function","name":"operator","inputs":[],"outputs":[{"name":"","type":"bytes32","internalType":"bytes32"}],"stateMutability":"view"},{"type":"function","name":"owner","inputs":[],"outputs":[{"name":"","type":"address","internalType":"address"}],"stateMutability":"view"},{"type":"function","name":"permit","inputs":[{"name":"owner","type":"address","internalType":"address"},{"name":"spender","type":"address","internalType":"address"},{"name":"value","type":"uint256","internalType":"uint256"},{"name":"deadline","type":"uint256","internalType":"uint256"},{"name":"v","type":"uint8","internalType":"uint8"},{"name":"r","type":"bytes32","internalType":"bytes32"},{"name":"s","type":"bytes32","internalType":"bytes32"}],"outputs":[],"stateMutability":"nonpayable"},{"type":"function","name":"previewDeposit","inputs":[{"name":"assets","type":"uint256","internalType":"uint256"}],"outputs":[{"name":"","type":"uint256","internalType":"uint256"}],"stateMutability":"view"},{"type":"function","name":"previewMint","inputs":[{"name":"shares","type":"uint256","internalType":"uint256"}],"outputs":[{"name":"","type":"uint256","internalType":"uint256"}],"stateMutability":"view"},{"type":"function","name":"previewRedeem","inputs":[{"name":"shares","type":"uint256","internalType":"uint256"}],"outputs":[{"name":"","type":"uint256","internalType":"uint256"}],"stateMutability":"view"},{"type":"function","name":"previewWithdraw","inputs":[{"name":"assets","type":"uint256","internalType":"uint256"}],"outputs":[{"name":"","type":"uint256","internalType":"uint256"}],"stateMutability":"view"},{"type":"function","name":"redeem","inputs":[{"name":"shares","type":"uint256","internalType":"uint256"},{"name":"receiver","type":"address","internalType":"address"},{"name":"owner","type":"address","internalType":"address"}],"outputs":[{"name":"assets","type":"uint256","internalType":"uint256"}],"stateMutability":"nonpayable"},{"type":"function","name":"rewardData","inputs":[{"name":"","type":"address","internalType":"address"}],"outputs":[{"name":"index","type":"uint256","internalType":"uint256"},{"name":"lastUpdateTime","type":"uint256","internalType":"uint256"},{"name":"isValid","type":"bool","internalType":"bool"}],"stateMutability":"view"},{"type":"function","name":"rewardTokens","inputs":[{"name":"","type":"uint256","internalType":"uint256"}],"outputs":[{"name":"","type":"address","internalType":"address"}],"stateMutability":"view"},{"type":"function","name":"scheduleUnstake","inputs":[{"name":"assets","type":"uint256","internalType":"uint256"}],"outputs":[],"stateMutability":"nonpayable"},{"type":"function","name":"scheduleWithdraw","inputs":[{"name":"assets","type":"uint256","internalType":"uint256"}],"outputs":[],"stateMutability":"nonpayable"},{"type":"function","name":"scheduledUnstakeAmount","inputs":[{"name":"","type":"address","internalType":"address"}],"outputs":[{"name":"","type":"uint256","internalType":"uint256"}],"stateMutability":"view"},{"type":"function","name":"scheduledWithdrawAmount","inputs":[{"name":"","type":"address","internalType":"address"}],"outputs":[{"name":"","type":"uint256","internalType":"uint256"}],"stateMutability":"view"},{"type":"function","name":"symbol","inputs":[],"outputs":[{"name":"","type":"string","internalType":"string"}],"stateMutability":"view"},{"type":"function","name":"token","inputs":[],"outputs":[{"name":"","type":"address","internalType":"contract ERC20"}],"stateMutability":"view"},{"type":"function","name":"totalAssets","inputs":[],"outputs":[{"name":"","type":"uint256","internalType":"uint256"}],"stateMutability":"view"},{"type":"function","name":"totalSupply","inputs":[],"outputs":[{"name":"","type":"uint256","internalType":"uint256"}],"stateMutability":"view"},{"type":"function","name":"transfer","inputs":[{"name":"to","type":"address","internalType":"address"},{"name":"amount","type":"uint256","internalType":"uint256"}],"outputs":[{"name":"","type":"bool","internalType":"bool"}],"stateMutability":"nonpayable"},{"type":"function","name":"transferFrom","inputs":[{"name":"from","type":"address","internalType":"address"},{"name":"to","type":"address","internalType":"address"},{"name":"amount","type":"uint256","internalType":"uint256"}],"outputs":[{"name":"","type":"bool","internalType":"bool"}],"stateMutability":"nonpayable"},{"type":"function","name":"transferOwnership","inputs":[{"name":"newOwner","type":"address","internalType":"address"}],"outputs":[],"stateMutability":"nonpayable"},{"type":"function","name":"unstakeAmount","inputs":[{"name":"","type":"address","internalType":"address"}],"outputs":[{"name":"","type":"uint256","internalType":"uint256"}],"stateMutability":"view"},{"type":"function","name":"userSnapshots","inputs":[{"name":"","type":"address","internalType":"address"},{"name":"","type":"address","internalType":"address"}],"outputs":[{"name":"rewardIndex","type":"uint256","internalType":"uint256"},{"name":"timestamp","type":"uint256","internalType":"uint256"},{"name":"shareBalance","type":"uint256","internalType":"uint256"},{"name":"lastRewardIndex","type":"uint256","internalType":"uint256"},{"name":"pendingRewards","type":"uint256","internalType":"uint256"}],"stateMutability":"view"},{"type":"function","name":"withdraw","inputs":[{"name":"assets","type":"uint256","internalType":"uint256"},{"name":"receiver","type":"address","internalType":"address"},{"name":"owner","type":"address","internalType":"address"}],"outputs":[{"name":"shares","type":"uint256","internalType":"uint256"}],"stateMutability":"nonpayable"},{"type":"event","name":"Approval","inputs":[{"name":"owner","type":"address","indexed":true,"internalType":"address"},{"name":"spender","type":"address","indexed":true,"internalType":"address"},{"name":"amount","type":"uint256","indexed":false,"internalType":"uint256"}],"anonymous":false},{"type":"event","name":"Delegated","inputs":[{"name":"operator","type":"bytes32","indexed":true,"internalType":"bytes32"},{"name":"amount","type":"uint256","indexed":false,"internalType":"uint256"},{"name":"blueprintSelection","type":"uint64[]","indexed":false,"internalType":"uint64[]"}],"anonymous":false},{"type":"event","name":"Deposit","inputs":[{"name":"caller","type":"address","indexed":true,"internalType":"address"},{"name":"owner","type":"address","indexed":true,"internalType":"address"},{"name":"assets","type":"uint256","indexed":false,"internalType":"uint256"},{"name":"shares","type":"uint256","indexed":false,"internalType":"uint256"}],"anonymous":false},{"type":"event","name":"Deposited","inputs":[{"name":"amount","type":"uint256","indexed":false,"internalType":"uint256"}],"anonymous":false},{"type":"event","name":"OwnershipTransferred","inputs":[{"name":"user","type":"address","indexed":true,"internalType":"address"},{"name":"newOwner","type":"address","indexed":true,"internalType":"address"}],"anonymous":false},{"type":"event","name":"RewardIndexUpdated","inputs":[{"name":"token","type":"address","indexed":true,"internalType":"address"},{"name":"index","type":"uint256","indexed":false,"internalType":"uint256"},{"name":"timestamp","type":"uint256","indexed":false,"internalType":"uint256"}],"anonymous":false},{"type":"event","name":"RewardSnapshotCreated","inputs":[{"name":"user","type":"address","indexed":true,"internalType":"address"},{"name":"token","type":"address","indexed":true,"internalType":"address"},{"name":"index","type":"uint256","indexed":false,"internalType":"uint256"},{"name":"timestamp","type":"uint256","indexed":false,"internalType":"uint256"},{"name":"rewardIndex","type":"uint256","indexed":false,"internalType":"uint256"}],"anonymous":false},{"type":"event","name":"RewardTokenAdded","inputs":[{"name":"token","type":"address","indexed":true,"internalType":"address"}],"anonymous":false},{"type":"event","name":"RewardsClaimed","inputs":[{"name":"user","type":"address","indexed":true,"internalType":"address"},{"name":"token","type":"address","indexed":true,"internalType":"address"},{"name":"amount","type":"uint256","indexed":false,"internalType":"uint256"}],"anonymous":false},{"type":"event","name":"Transfer","inputs":[{"name":"from","type":"address","indexed":true,"internalType":"address"},{"name":"to","type":"address","indexed":true,"internalType":"address"},{"name":"amount","type":"uint256","indexed":false,"internalType":"uint256"}],"anonymous":false},{"type":"event","name":"UnstakeCancelled","inputs":[{"name":"user","type":"address","indexed":true,"internalType":"address"},{"name":"amount","type":"uint256","indexed":false,"internalType":"uint256"}],"anonymous":false},{"type":"event","name":"UnstakeCancelled","inputs":[{"name":"operator","type":"bytes32","indexed":true,"internalType":"bytes32"},{"name":"amount","type":"uint256","indexed":false,"internalType":"uint256"}],"anonymous":false},{"type":"event","name":"UnstakeScheduled","inputs":[{"name":"operator","type":"bytes32","indexed":true,"internalType":"bytes32"},{"name":"amount","type":"uint256","indexed":false,"internalType":"uint256"}],"anonymous":false},{"type":"event","name":"Withdraw","inputs":[{"name":"caller","type":"address","indexed":true,"internalType":"address"},{"name":"receiver","type":"address","indexed":true,"internalType":"address"},{"name":"owner","type":"address","indexed":true,"internalType":"address"},{"name":"assets","type":"uint256","indexed":false,"internalType":"uint256"},{"name":"shares","type":"uint256","indexed":false,"internalType":"uint256"}],"anonymous":false},{"type":"event","name":"WithdrawalCancelled","inputs":[{"name":"user","type":"address","indexed":true,"internalType":"address"},{"name":"amount","type":"uint256","indexed":false,"internalType":"uint256"}],"anonymous":false},{"type":"event","name":"WithdrawalCancelled","inputs":[{"name":"amount","type":"uint256","indexed":false,"internalType":"uint256"}],"anonymous":false},{"type":"event","name":"WithdrawalScheduled","inputs":[{"name":"amount","type":"uint256","indexed":false,"internalType":"uint256"}],"anonymous":false},{"type":"error","name":"ExceedsScheduledAmount","inputs":[]},{"type":"error","name":"InsufficientScheduledAmount","inputs":[]},{"type":"error","name":"InvalidRewardToken","inputs":[]},{"type":"error","name":"NoRewardsToClaim","inputs":[]},{"type":"error","name":"NoScheduledAmount","inputs":[]},{"type":"error","name":"RewardTokenAlreadyAdded","inputs":[]},{"type":"error","name":"Unauthorized","inputs":[]},{"type":"error","name":"WithdrawalNotUnstaked","inputs":[]}],"bytecode":{"object":"0x61014060405234801562000011575f80fd5b50604051620046df380380620046df8339810160408190526200003491620003ba565b8583338885858181846001600160a01b031663313ce5676040518163ffffffff1660e01b8152600401602060405180830381865afa15801562000079573d5f803e3d5ffd5b505050506040513d601f19601f820116820180604052508101906200009f9190620004f2565b5f620000ac8482620005a7565b506001620000bb8382620005a7565b5060ff81166080524660a052620000d162000163565b60c052505050506001600160a01b0391821660e05250600680546001600160a01b03191691831691821790556040515f907f8be0079c531659141344cd1fd0a4f28419497f9722a3daafe3b4186f6b6457e0908290a3506001600160a01b03918216610100521661012052600d85905583516200015690600e906020870190620001fd565b50505050505050620006e9565b5f7f8b73c3c69bb8fe3d512ecc4cf759cc79239f7b179b0ffacaa9a75d522b39400f5f6040516200019591906200066f565b6040805191829003822060208301939093528101919091527fc89efdaa54c0f20c7adf612882df0950f5a951637e0307cdcb4c672f298b8bc660608201524660808201523060a082015260c00160405160208183030381529060405280519060200120905090565b828054828255905f5260205f2090600301600490048101928215620002a7579160200282015f5b838211156200027057835183826101000a8154816001600160401b0302191690836001600160401b03160217905550926020019260080160208160070104928301926001030262000224565b8015620002a55782816101000a8154906001600160401b03021916905560080160208160070104928301926001030262000270565b505b50620002b5929150620002b9565b5090565b5b80821115620002b5575f8155600101620002ba565b80516001600160a01b0381168114620002e6575f80fd5b919050565b634e487b7160e01b5f52604160045260245ffd5b604051601f8201601f191681016001600160401b03811182821017156200032a576200032a620002eb565b604052919050565b5f82601f83011262000342575f80fd5b81516001600160401b038111156200035e576200035e620002eb565b602062000374601f8301601f19168201620002ff565b828152858284870101111562000388575f80fd5b5f5b83811015620003a75785810183015182820184015282016200038a565b505f928101909101919091529392505050565b5f805f805f8060c08789031215620003d0575f80fd5b620003db87620002cf565b60208881015160408a01519298509650906001600160401b038082111562000401575f80fd5b818a0191508a601f83011262000415575f80fd5b8151818111156200042a576200042a620002eb565b8060051b6200043b858201620002ff565b918252838101850191858101908e84111562000455575f80fd5b948601945b83861015620004875785519250848316831462000476575f8081fd5b82825294860194908601906200045a565b99506200049b9250505060608b01620002cf565b955060808a0151925080831115620004b1575f80fd5b620004bf8b848c0162000332565b945060a08a0151925080831115620004d5575f80fd5b5050620004e589828a0162000332565b9150509295509295509295565b5f6020828403121562000503575f80fd5b815160ff8116811462000514575f80fd5b9392505050565b600181811c908216806200053057607f821691505b6020821081036200054f57634e487b7160e01b5f52602260045260245ffd5b50919050565b601f821115620005a2575f81815260208120601f850160051c810160208610156200057d5750805b601f850160051c820191505b818110156200059e5782815560010162000589565b5050505b505050565b81516001600160401b03811115620005c357620005c3620002eb565b620005db81620005d484546200051b565b8462000555565b602080601f83116001811462000611575f8415620005f95750858301515b5f19600386901b1c1916600185901b1785556200059e565b5f85815260208120601f198616915b82811015620006415788860151825594840194600190910190840162000620565b50858210156200065f57878501515f19600388901b60f8161c191681555b5050505050600190811b01905550565b5f8083546200067e816200051b565b60018281168015620006995760018114620006af57620006dd565b60ff1984168752821515830287019450620006dd565b875f526020805f205f5b85811015620006d45781548a820152908401908201620006b9565b50505082870194505b50929695505050505050565b60805160a05160c05160e0516101005161012051613f1b620007c45f395f818161074b015281816120c4015281816121ad015281816123990152818161271601528181612c2a01528181612cef01528181612f8e0152818161309b015261349901525f818161088a0152818161209b0152818161236a015281816126e701528181612bf301528181612d2001528181612f5f015261346a01525f818161046701528181610bb0015281816113db01528181612b2c01528181613237015261340001525f6110f201525f6110c201525f6104260152613f1b5ff3fe608060405234801561000f575f80fd5b5060043610610325575f3560e01c80638da5cb5b116101a8578063c4f59f9b116100f3578063d905777e1161009e578063ef8b30f711610079578063ef8b30f71461084c578063f2fde38b1461085f578063f56f4f0f14610872578063fc0c546a14610885575f80fd5b8063d905777e146107ce578063dd62ed3e14610803578063e031cc831461082d575f80fd5b8063cce9d801116100ce578063cce9d80114610795578063ce96cb77146107a8578063d505accf146107bb575f80fd5b8063c4f59f9b1461076d578063c63d75b6146104ae578063c6e6f59214610782575f80fd5b8063a9059cbb11610153578063b460af941161012e578063b460af9414610720578063ba08765214610733578063c20bb5ac14610746575f80fd5b8063a9059cbb146106ce578063b294eb18146106e1578063b3d7f6b91461070d575f80fd5b806395d89b411161018357806395d89b41146106945780639f01f7ba1461069c578063a209a86f146106af575f80fd5b80638da5cb5b14610642578063919dd0b71461066257806394bf804d14610681575f80fd5b8063313ce567116102735780634cdad5061161021e5780636e553f65116101f95780636e553f65146105de57806370a08231146105f15780637bb7bed1146106105780637ecebe0014610623575f80fd5b80634cdad50614610553578063570ca73514610566578063596404bb1461056f575f80fd5b8063402d267d1161024e578063402d267d146104ae578063451831e4146104e157806348e5d9f814610505575f80fd5b8063313ce567146104215780633644e5151461045a57806338d52e0f14610462575f80fd5b8063106d08df116102d35780632026ffa3116102ae5780632026ffa3146103db57806323b872dd146103fb5780632b187b2b1461040e575f80fd5b8063106d08df146103ac57806318160ddd146103bf5780631c03e6cc146103c8575f80fd5b8063095ea7b311610303578063095ea7b31461036c5780630a28a4771461038f5780630cea2bda146103a2575f80fd5b806301e1d1141461032957806306fdde031461034457806307a2d13a14610359575b5f80fd5b6103316108ac565b6040519081526020015b60405180910390f35b61034c6108bb565b60405161033b91906138df565b610331610367366004613948565b610946565b61037f61037a366004613987565b610972565b604051901515815260200161033b565b61033161039d366004613948565b6109eb565b6103aa610a0a565b005b6103aa6103ba366004613948565b610a90565b61033160025481565b6103aa6103d63660046139af565b610b90565b6103ee6103e93660046139c8565b610e69565b60405161033b9190613a80565b61037f610409366004613a92565b610fdf565b6103aa61041c366004613948565b610ffe565b6104487f000000000000000000000000000000000000000000000000000000000000000081565b60405160ff909116815260200161033b565b6103316110bf565b6104897f000000000000000000000000000000000000000000000000000000000000000081565b60405173ffffffffffffffffffffffffffffffffffffffff909116815260200161033b565b6103316104bc3660046139af565b507fffffffffffffffffffffffffffffffffffffffffffffffffffffffffffffffff90565b6104f46104ef3660046139af565b611114565b60405161033b959493929190613acb565b6105366105133660046139af565b60086020525f908152604090208054600182015460029092015490919060ff1683565b60408051938452602084019290925215159082015260600161033b565b610331610561366004613948565b611213565b610331600d5481565b6105b661057d366004613b03565b600960209081525f9283526040808420909152908252902080546001820154600283015460038401546004909401549293919290919085565b604080519586526020860194909452928401919091526060830152608082015260a00161033b565b6103316105ec366004613b34565b61121d565b6103316105ff3660046139af565b60036020525f908152604090205481565b61048961061e366004613948565b611380565b6103316106313660046139af565b60056020525f908152604090205481565b6006546104899073ffffffffffffffffffffffffffffffffffffffff1681565b6103316106703660046139af565b600c6020525f908152604090205481565b61033161068f366004613b34565b6113b5565b61034c611466565b6103aa6106aa366004613948565b611473565b6103316106bd3660046139af565b600a6020525f908152604090205481565b61037f6106dc366004613987565b611598565b6106f46106ef366004613948565b6115ae565b60405167ffffffffffffffff909116815260200161033b565b61033161071b366004613948565b6115e9565b61033161072e366004613b55565b611607565b610331610741366004613b55565b611787565b6104897f000000000000000000000000000000000000000000000000000000000000000081565b610775611908565b60405161033b9190613b8e565b610331610790366004613948565b611975565b6103aa6107a3366004613948565b611994565b6103316107b63660046139af565b611a63565b6103aa6107c9366004613be7565b611a91565b6103316107dc3660046139af565b73ffffffffffffffffffffffffffffffffffffffff165f9081526003602052604090205490565b610331610811366004613b03565b600460209081525f928352604080842090915290825290205481565b61033161083b3660046139af565b600b6020525f908152604090205481565b61033161085a366004613948565b611daa565b6103aa61086d3660046139af565b611db4565b610331610880366004613b03565b611ea5565b6104897f000000000000000000000000000000000000000000000000000000000000000081565b5f6108b63061204e565b905090565b5f80546108c790613c54565b80601f01602080910402602001604051908101604052809291908181526020018280546108f390613c54565b801561093e5780601f106109155761010080835404028352916020019161093e565b820191905f5260205f20905b81548152906001019060200180831161092157829003601f168201915b505050505081565b6002545f9080156109695761096461095c6108ac565b84908361212f565b61096b565b825b9392505050565b335f81815260046020908152604080832073ffffffffffffffffffffffffffffffffffffffff8716808552925280832085905551919290917f8c5be1e5ebec7d5bd14f71427d1e84f3dd0314c0f7b2291e5b200ac8c7c3b925906109d99086815260200190565b60405180910390a35060015b92915050565b6002545f9080156109695761096481610a026108ac565b859190612169565b335f908152600b602052604081205490819003610a53576040517f601701d900000000000000000000000000000000000000000000000000000000815260040160405180910390fd5b610a5b6121ab565b335f908152600a602052604081208054839290610a79908490613cd2565b9091555050335f908152600b602052604081205550565b5f610a9a826109eb565b335f90815260036020526040902054909150811115610b1a576040517f08c379a000000000000000000000000000000000000000000000000000000000815260206004820152601360248201527f496e73756666696369656e74207368617265730000000000000000000000000060448201526064015b60405180910390fd5b335f908152600b602052604081208054849290610b38908490613cd2565b90915550610b499050335f83612227565b610b55600d5483612320565b600d546040518381527f3f3ac42003d85fd976b1896956dfdb3db9b2b67fb64d13e8eefd4c12f749bfc9906020015b60405180910390a25050565b73ffffffffffffffffffffffffffffffffffffffff81161580610bfe57507f000000000000000000000000000000000000000000000000000000000000000073ffffffffffffffffffffffffffffffffffffffff168173ffffffffffffffffffffffffffffffffffffffff16145b15610c35576040517fdfde867100000000000000000000000000000000000000000000000000000000815260040160405180910390fd5b73ffffffffffffffffffffffffffffffffffffffff81165f9081526008602052604090206002015460ff1615610c97576040517f4611beab00000000000000000000000000000000000000000000000000000000815260040160405180910390fd5b6040518060a001604052805f81526020014281526020016001151581526020015f67ffffffffffffffff811115610cd057610cd0613ce5565b604051908082528060200260200182016040528015610cf9578160200160208202803683370190505b5081526020015f604051908082528060200260200182016040528015610d29578160200160208202803683370190505b50905273ffffffffffffffffffffffffffffffffffffffff82165f9081526008602090815260409182902083518155838201516001820155918301516002830180547fffffffffffffffffffffffffffffffffffffffffffffffffffffffffffffff001691151591909117905560608301518051610dad9260038501920190613882565b5060808201518051610dc9916004840191602090910190613882565b5050600780546001810182555f9182527fa66cc928b5edb82af9bd49922954155ab7b0942694bea4ce44661d9a8736c6880180547fffffffffffffffffffffffff00000000000000000000000000000000000000001673ffffffffffffffffffffffffffffffffffffffff85169081179091556040519092507ff3e4c2c64e71e6ba2eaab9a599bced62f9eb91d2cda610bf41aa8c80ff2cf8269190a250565b60603373ffffffffffffffffffffffffffffffffffffffff851614610eba576040517f82b4290000000000000000000000000000000000000000000000000000000000815260040160405180910390fd5b8167ffffffffffffffff811115610ed357610ed3613ce5565b604051908082528060200260200182016040528015610efc578160200160208202803683370190505b509050610f07612422565b5f5b82811015610fd7575f848483818110610f2457610f24613d12565b9050602002016020810190610f3991906139af565b73ffffffffffffffffffffffffffffffffffffffff81165f9081526008602052604090206002015490915060ff16610f9d576040517fdfde867100000000000000000000000000000000000000000000000000000000815260040160405180910390fd5b610fa7868261247f565b838381518110610fb957610fb9613d12565b60209081029190910101525080610fcf81613d3f565b915050610f09565b509392505050565b5f610feb848484612227565b610ff684848461255d565b949350505050565b335f908152600b602052604090205480821115611047576040517f1ae47f5100000000000000000000000000000000000000000000000000000000815260040160405180910390fd5b6110518282613d76565b335f908152600b6020526040902055600d5461106d908361269d565b5f611077836109eb565b9050611084333383612227565b60405183815233907f02fbe69eb5474cc010b6c0c236dd70755556cee48c19373e79147100e04de70b906020015b60405180910390a2505050565b5f7f000000000000000000000000000000000000000000000000000000000000000046146110ef576108b661279f565b507f000000000000000000000000000000000000000000000000000000000000000090565b73ffffffffffffffffffffffffffffffffffffffff81165f90815260086020908152604080832080546001820154600283015460038401805486518189028101890190975280875288978897606097889790969095909460ff90911693909260048801929184918301828280156111a857602002820191905f5260205f20905b815481526020019060010190808311611194575b50505050509150808054806020026020016040519081016040528092919081815260200182805480156111f857602002820191905f5260205f20905b8154815260200190600101908083116111e4575b50505050509050955095509550955095505091939590929450565b5f6109e582610946565b5f61122783611daa565b600754909150156112de5761123a612422565b5f5b6007548110156112dc575f6007828154811061125a5761125a613d12565b5f91825260208220015473ffffffffffffffffffffffffffffffffffffffff1691506112868583612837565b73ffffffffffffffffffffffffffffffffffffffff86165f908152600360205260409020549091506112c790869084906112c1908890613cd2565b846128f6565b505080806112d490613d3f565b91505061123c565b505b6112e88383612a9d565b506112f283612bae565b6109e5600d5484600e80548060200260200160405190810160405280929190818152602001828054801561137657602002820191905f5260205f20905f905b82829054906101000a900467ffffffffffffffff1667ffffffffffffffff16815260200190600801906020826007010492830192600103820291508084116113315790505b5050505050612cb2565b6007818154811061138f575f80fd5b5f9182526020909120015473ffffffffffffffffffffffffffffffffffffffff16905081565b5f6113bf836115e9565b905061140373ffffffffffffffffffffffffffffffffffffffff7f000000000000000000000000000000000000000000000000000000000000000016333084612dab565b61140d8284612ea5565b604080518281526020810185905273ffffffffffffffffffffffffffffffffffffffff84169133917fdcbc1c05240f31ff3ad067ef1ee35ce4997762752e3a095284754544f4c709d791015b60405180910390a36109e5565b600180546108c790613c54565b335f908152600c6020526040902054808211156114bc576040517f1ae47f5100000000000000000000000000000000000000000000000000000000815260040160405180910390fd5b6114c68282613d76565b335f908152600c6020908152604080832093909355600a905290812080548492906114f2908490613cd2565b90915550611501905082612f1c565b611566600d5483600e805480602002602001604051908101604052809291908181526020018280548015611376575f918252602091829020805467ffffffffffffffff1684529082028301929091600891018084116113315790505050505050612cb2565b60405182815233907f2eed97477f07c07ec48f8f678f4e84f7c0de55bf33f51c3dc989b1335308031990602001610b84565b5f6115a4338484612227565b61096b8383613016565b600e81815481106115bd575f80fd5b905f5260205f209060049182820401919006600802915054906101000a900467ffffffffffffffff1681565b6002545f908015610969576109646115ff6108ac565b849083612169565b73ffffffffffffffffffffffffffffffffffffffff81165f908152600c6020526040812054841115611665576040517f601701d900000000000000000000000000000000000000000000000000000000815260040160405180910390fd5b61166d613099565b73ffffffffffffffffffffffffffffffffffffffff82165f908152600c602052604090205461169d908590613d76565b73ffffffffffffffffffffffffffffffffffffffff83165f908152600c60205260409020556116cb846109eb565b6007549091501561177c576116de612422565b5f5b60075481101561177a575f600782815481106116fe576116fe613d12565b5f91825260208220015473ffffffffffffffffffffffffffffffffffffffff16915061172a8583612837565b73ffffffffffffffffffffffffffffffffffffffff86165f9081526003602052604090205490915061176590869084906112c1908890613d76565b5050808061177290613d3f565b9150506116e0565b505b610ff68484846130fe565b5f61179184611213565b73ffffffffffffffffffffffffffffffffffffffff83165f908152600c60205260409020549091508111156117f2576040517f601701d900000000000000000000000000000000000000000000000000000000815260040160405180910390fd5b6117fa613099565b73ffffffffffffffffffffffffffffffffffffffff82165f908152600c602052604090205461182a908290613d76565b73ffffffffffffffffffffffffffffffffffffffff83165f908152600c6020526040902055600754156118fd5761185f612422565b5f5b6007548110156118fb575f6007828154811061187f5761187f613d12565b5f91825260208220015473ffffffffffffffffffffffffffffffffffffffff1691506118ab8583612837565b73ffffffffffffffffffffffffffffffffffffffff86165f908152600360205260409020549091506118e690869084906112c1908b90613d76565b505080806118f390613d3f565b915050611861565b505b610ff684848461325e565b6060600780548060200260200160405190810160405280929190818152602001828054801561196b57602002820191905f5260205f20905b815473ffffffffffffffffffffffffffffffffffffffff168152600190910190602001808311611940575b5050505050905090565b6002545f908015610969576109648161198c6108ac565b85919061212f565b335f908152600a60205260409020548111156119dc576040517f090d2fd200000000000000000000000000000000000000000000000000000000815260040160405180910390fd5b335f908152600c6020526040812080548392906119fa908490613cd2565b9091555050335f908152600a602052604081208054839290611a1d908490613d76565b90915550611a2c905081613427565b6040518181527f546b4489d0d401144246692e660c7c88e2308702063f0a69461de575cf3fdb61906020015b60405180910390a150565b73ffffffffffffffffffffffffffffffffffffffff81165f908152600360205260408120546109e590610946565b42841015611afb576040517f08c379a000000000000000000000000000000000000000000000000000000000815260206004820152601760248201527f5045524d49545f444541444c494e455f455850495245440000000000000000006044820152606401610b11565b5f6001611b066110bf565b73ffffffffffffffffffffffffffffffffffffffff8a81165f8181526005602090815260409182902080546001810190915582517f6e71edae12b1b97f4d1f60370fef10105fa2faae0126114a169c64845d6126c98184015280840194909452938d166060840152608083018c905260a083019390935260c08083018b90528151808403909101815260e0830190915280519201919091207f190100000000000000000000000000000000000000000000000000000000000061010083015261010282019290925261012281019190915261014201604080517fffffffffffffffffffffffffffffffffffffffffffffffffffffffffffffffe081840301815282825280516020918201205f84529083018083525260ff871690820152606081018590526080810184905260a0016020604051602081039080840390855afa158015611c54573d5f803e3d5ffd5b50506040517fffffffffffffffffffffffffffffffffffffffffffffffffffffffffffffffe0015191505073ffffffffffffffffffffffffffffffffffffffff811615801590611ccf57508773ffffffffffffffffffffffffffffffffffffffff168173ffffffffffffffffffffffffffffffffffffffff16145b611d35576040517f08c379a000000000000000000000000000000000000000000000000000000000815260206004820152600e60248201527f494e56414c49445f5349474e45520000000000000000000000000000000000006044820152606401610b11565b73ffffffffffffffffffffffffffffffffffffffff9081165f9081526004602090815260408083208a8516808552908352928190208990555188815291928a16917f8c5be1e5ebec7d5bd14f71427d1e84f3dd0314c0f7b2291e5b200ac8c7c3b925910160405180910390a350505050505050565b5f6109e582611975565b60065473ffffffffffffffffffffffffffffffffffffffff163314611e35576040517f08c379a000000000000000000000000000000000000000000000000000000000815260206004820152600c60248201527f554e415554484f52495a454400000000000000000000000000000000000000006044820152606401610b11565b600680547fffffffffffffffffffffffff00000000000000000000000000000000000000001673ffffffffffffffffffffffffffffffffffffffff831690811790915560405133907f8be0079c531659141344cd1fd0a4f28419497f9722a3daafe3b4186f6b6457e0905f90a350565b73ffffffffffffffffffffffffffffffffffffffff82165f908152600360205260408120548103611ed757505f6109e5565b73ffffffffffffffffffffffffffffffffffffffff8084165f908152600960209081526040808320938616808452938252808320815160a080820184528254825260018084015483870152600280850154848701526003808601546060808701919091526004909601546080860152988852600887528588208651938401875280548452918201548388015281015460ff16151582860152968701805485518188028101880190965280865292979195919493860193929091830182828015611fbd57602002820191905f5260205f20905b815481526020019060010190808311611fa9575b505050505081526020016004820180548060200260200160405190810160405280929190818152602001828054801561201357602002820191905f5260205f20905b815481526020019060010190808311611fff575b50505091909252505083518251929350612045926120319250613d76565b604084015190670de0b6b3a764000061212f565b95945050505050565b6040517f467f4cb900000000000000000000000000000000000000000000000000000000815273ffffffffffffffffffffffffffffffffffffffff82811660048301525f602483018190527f000000000000000000000000000000000000000000000000000000000000000082166044840152917f00000000000000000000000000000000000000000000000000000000000000009091169063467f4cb990606401602060405180830381865afa15801561210b573d5f803e3d5ffd5b505050506040513d601f19601f820116820180604052508101906109e59190613d89565b5f827fffffffffffffffffffffffffffffffffffffffffffffffffffffffffffffffff0484118302158202612162575f80fd5b5091020490565b5f827fffffffffffffffffffffffffffffffffffffffffffffffffffffffffffffffff048411830215820261219c575f80fd5b50910281810615159190040190565b7f000000000000000000000000000000000000000000000000000000000000000073ffffffffffffffffffffffffffffffffffffffff16627910d06040518163ffffffff1660e01b81526004015f604051808303815f87803b15801561220f575f80fd5b505af1158015612221573d5f803e3d5ffd5b50505050565b6007545f0361223557505050565b73ffffffffffffffffffffffffffffffffffffffff8084165f9081526003602052604080822054928516825290205461226c612422565b5f5b600754811015612318575f6007828154811061228c5761228c613d12565b5f91825260208220015473ffffffffffffffffffffffffffffffffffffffff1691506122b88883612837565b90506122c988836112c18989613d76565b73ffffffffffffffffffffffffffffffffffffffff871615612303575f6122f08884612837565b905061230188846112c18a89613cd2565b505b5050808061231090613d3f565b91505061226e565b505050505050565b6040517f5bea61c6000000000000000000000000000000000000000000000000000000008152600481018390525f602482015273ffffffffffffffffffffffffffffffffffffffff7f000000000000000000000000000000000000000000000000000000000000000081166044830152606482018390527f00000000000000000000000000000000000000000000000000000000000000001690635bea61c6906084015f604051808303815f87803b1580156123da575f80fd5b505af11580156123ec573d5f803e3d5ffd5b50505050817f3f3ac42003d85fd976b1896956dfdb3db9b2b67fb64d13e8eefd4c12f749bfc982604051610b8491815260200190565b5f5b60075481101561247c5761246a6007828154811061244457612444613d12565b5f9182526020909120015473ffffffffffffffffffffffffffffffffffffffff16613521565b8061247481613d3f565b915050612424565b50565b5f61248982613521565b5f6124948484612837565b9050801561096b5773ffffffffffffffffffffffffffffffffffffffff84165f908152600360205260408120546124ce91869186916128f6565b6124ef73ffffffffffffffffffffffffffffffffffffffff841685836136a9565b8273ffffffffffffffffffffffffffffffffffffffff168473ffffffffffffffffffffffffffffffffffffffff167f9310ccfcb8de723f578a9e4282ea9f521f05ae40dc08f3068dfad528a65ee3c78360405161254e91815260200190565b60405180910390a39392505050565b73ffffffffffffffffffffffffffffffffffffffff83165f9081526004602090815260408083203384529091528120547fffffffffffffffffffffffffffffffffffffffffffffffffffffffffffffffff81146125ef576125be8382613d76565b73ffffffffffffffffffffffffffffffffffffffff86165f9081526004602090815260408083203384529091529020555b73ffffffffffffffffffffffffffffffffffffffff85165f9081526003602052604081208054859290612623908490613d76565b909155505073ffffffffffffffffffffffffffffffffffffffff8085165f81815260036020526040908190208054870190555190918716907fddf252ad1be2c89b69c2b068fc378daa952ba7f163c4a11628f55a4df523b3ef9061268a9087815260200190565b60405180910390a3506001949350505050565b6040517f504aff13000000000000000000000000000000000000000000000000000000008152600481018390525f602482015273ffffffffffffffffffffffffffffffffffffffff7f000000000000000000000000000000000000000000000000000000000000000081166044830152606482018390527f0000000000000000000000000000000000000000000000000000000000000000169063504aff13906084015f604051808303815f87803b158015612757575f80fd5b505af1158015612769573d5f803e3d5ffd5b50505050817f9b273eef61583cf74e826aa833dad475fcc942934d793017466e758e9aaf57cf82604051610b8491815260200190565b5f7f8b73c3c69bb8fe3d512ecc4cf759cc79239f7b179b0ffacaa9a75d522b39400f5f6040516127cf9190613da0565b6040805191829003822060208301939093528101919091527fc89efdaa54c0f20c7adf612882df0950f5a951637e0307cdcb4c672f298b8bc660608201524660808201523060a082015260c00160405160208183030381529060405280519060200120905090565b73ffffffffffffffffffffffffffffffffffffffff8083165f908152600960209081526040808320938516808452938252808320815160a08101835281548152600182015481850152600282015481840152600382015460608201526004909101546080820152938352600890915281208251815492939284916128ba91613d76565b60408401519091505f906128d79083670de0b6b3a7640000612169565b90505f8460800151826128ea9190613cd2565b98975050505050505050565b5f60085f8573ffffffffffffffffffffffffffffffffffffffff1673ffffffffffffffffffffffffffffffffffffffff1681526020019081526020015f2090506040518060a00160405280825f01548152602001428152602001848152602001826003018054905081526020018381525060095f8773ffffffffffffffffffffffffffffffffffffffff1673ffffffffffffffffffffffffffffffffffffffff1681526020019081526020015f205f8673ffffffffffffffffffffffffffffffffffffffff1673ffffffffffffffffffffffffffffffffffffffff1681526020019081526020015f205f820151815f0155602082015181600101556040820151816002015560608201518160030155608082015181600401559050508373ffffffffffffffffffffffffffffffffffffffff168573ffffffffffffffffffffffffffffffffffffffff167fbb2e4f291bde0a5cfcec3ae5671cace93d49f19913961a8ab7b15a6262514698835f0154428560030180549050604051612a8e939291909283526020830191909152604082015260600190565b60405180910390a35050505050565b5f612aa783611daa565b9050805f03612b12576040517f08c379a000000000000000000000000000000000000000000000000000000000815260206004820152600b60248201527f5a45524f5f5348415245530000000000000000000000000000000000000000006044820152606401610b11565b612b5473ffffffffffffffffffffffffffffffffffffffff7f000000000000000000000000000000000000000000000000000000000000000016333086612dab565b612b5e8282612ea5565b604080518481526020810183905273ffffffffffffffffffffffffffffffffffffffff84169133917fdcbc1c05240f31ff3ad067ef1ee35ce4997762752e3a095284754544f4c709d79101611459565b6040517fb3c113950000000000000000000000000000000000000000000000000000000081525f6004820181905273ffffffffffffffffffffffffffffffffffffffff7f0000000000000000000000000000000000000000000000000000000000000000811660248401526044830184905260648301919091527f0000000000000000000000000000000000000000000000000000000000000000169063b3c11395906084015f604051808303815f87803b158015612c6b575f80fd5b505af1158015612c7d573d5f803e3d5ffd5b505050507f2a89b2e3d580398d6dc2db5e0f336b52602bbaa51afa9bb5cdf59239cf0d2bea81604051611a5891815260200190565b6040517fa12de0ba00000000000000000000000000000000000000000000000000000000815273ffffffffffffffffffffffffffffffffffffffff7f0000000000000000000000000000000000000000000000000000000000000000169063a12de0ba90612d4c9086905f907f00000000000000000000000000000000000000000000000000000000000000009088908890600401613eab565b5f604051808303815f87803b158015612d63575f80fd5b505af1158015612d75573d5f803e3d5ffd5b50505050827f492992fdafc55cec84ec4623d119a6984ae91c248fafa42c20f9b7277942ed4a83836040516110b2929190613ef6565b5f6040517f23b872dd00000000000000000000000000000000000000000000000000000000815273ffffffffffffffffffffffffffffffffffffffff8516600482015273ffffffffffffffffffffffffffffffffffffffff8416602482015282604482015260205f6064835f8a5af191505080601f3d1160015f511416151615612e375750833b153d17155b80612e9e576040517f08c379a000000000000000000000000000000000000000000000000000000000815260206004820152601460248201527f5452414e534645525f46524f4d5f4641494c45440000000000000000000000006044820152606401610b11565b5050505050565b8060025f828254612eb69190613cd2565b909155505073ffffffffffffffffffffffffffffffffffffffff82165f818152600360209081526040808320805486019055518481527fddf252ad1be2c89b69c2b068fc378daa952ba7f163c4a11628f55a4df523b3ef91015b60405180910390a35050565b6040517f098d2a200000000000000000000000000000000000000000000000000000000081525f600482015273ffffffffffffffffffffffffffffffffffffffff7f000000000000000000000000000000000000000000000000000000000000000081166024830152604482018390527f0000000000000000000000000000000000000000000000000000000000000000169063098d2a20906064015f604051808303815f87803b158015612fcf575f80fd5b505af1158015612fe1573d5f803e3d5ffd5b505050507fe8de1e631ea541ac8e6cb398aafb71b991eb58d489298f7bc93ba7e17fa2042b81604051611a5891815260200190565b335f90815260036020526040812080548391908390613036908490613d76565b909155505073ffffffffffffffffffffffffffffffffffffffff83165f81815260036020526040908190208054850190555133907fddf252ad1be2c89b69c2b068fc378daa952ba7f163c4a11628f55a4df523b3ef906109d99086815260200190565b7f000000000000000000000000000000000000000000000000000000000000000073ffffffffffffffffffffffffffffffffffffffff1663f8fd97956040518163ffffffff1660e01b81526004015f604051808303815f87803b15801561220f575f80fd5b5f613108846109eb565b90503373ffffffffffffffffffffffffffffffffffffffff8316146131bb5773ffffffffffffffffffffffffffffffffffffffff82165f9081526004602090815260408083203384529091529020547fffffffffffffffffffffffffffffffffffffffffffffffffffffffffffffffff81146131b9576131888282613d76565b73ffffffffffffffffffffffffffffffffffffffff84165f9081526004602090815260408083203384529091529020555b505b6131c58282613780565b604080518581526020810183905273ffffffffffffffffffffffffffffffffffffffff808516929086169133917ffbde797d201c681b91056529119e0b02407c7bb96a4a2c75c01fc9667232c8db910160405180910390a461096b73ffffffffffffffffffffffffffffffffffffffff7f00000000000000000000000000000000000000000000000000000000000000001684866136a9565b5f3373ffffffffffffffffffffffffffffffffffffffff8316146133105773ffffffffffffffffffffffffffffffffffffffff82165f9081526004602090815260408083203384529091529020547fffffffffffffffffffffffffffffffffffffffffffffffffffffffffffffffff811461330e576132dd8582613d76565b73ffffffffffffffffffffffffffffffffffffffff84165f9081526004602090815260408083203384529091529020555b505b61331984611213565b9050805f03613384576040517f08c379a000000000000000000000000000000000000000000000000000000000815260206004820152600b60248201527f5a45524f5f4153534554530000000000000000000000000000000000000000006044820152606401610b11565b61338e8285613780565b604080518281526020810186905273ffffffffffffffffffffffffffffffffffffffff808516929086169133917ffbde797d201c681b91056529119e0b02407c7bb96a4a2c75c01fc9667232c8db910160405180910390a461096b73ffffffffffffffffffffffffffffffffffffffff7f00000000000000000000000000000000000000000000000000000000000000001684836136a9565b6040517fa125b1460000000000000000000000000000000000000000000000000000000081525f600482015273ffffffffffffffffffffffffffffffffffffffff7f000000000000000000000000000000000000000000000000000000000000000081166024830152604482018390527f0000000000000000000000000000000000000000000000000000000000000000169063a125b146906064015f604051808303815f87803b1580156134da575f80fd5b505af11580156134ec573d5f803e3d5ffd5b505050507f546b4489d0d401144246692e660c7c88e2308702063f0a69461de575cf3fdb6181604051611a5891815260200190565b73ffffffffffffffffffffffffffffffffffffffff81165f8181526008602052604080822090517f70a082310000000000000000000000000000000000000000000000000000000081523060048201529092906370a0823190602401602060405180830381865afa158015613598573d5f803e3d5ffd5b505050506040513d601f19601f820116820180604052508101906135bc9190613d89565b90505f6135c88461380c565b90508082111561369d575f6135dd8284613d76565b600385018054600181810183555f92835260208084204293019290925560048801805491820181558352912001819055600254909150801561369a575f61362d83670de0b6b3a76400008461212f565b905080865f015f8282546136419190613cd2565b909155505085546040805191825242602083015273ffffffffffffffffffffffffffffffffffffffff8916917f1f0d2c1245dfc4eaee921d7b25e80cb547e4739ea0d8163647cf40ebd162e5b0910160405180910390a2505b50505b50504260019091015550565b5f6040517fa9059cbb00000000000000000000000000000000000000000000000000000000815273ffffffffffffffffffffffffffffffffffffffff8416600482015282602482015260205f6044835f895af191505080601f3d1160015f5114161516156137195750823b153d17155b80612221576040517f08c379a000000000000000000000000000000000000000000000000000000000815260206004820152600f60248201527f5452414e534645525f4641494c454400000000000000000000000000000000006044820152606401610b11565b73ffffffffffffffffffffffffffffffffffffffff82165f90815260036020526040812080548392906137b4908490613d76565b90915550506002805482900390556040518181525f9073ffffffffffffffffffffffffffffffffffffffff8416907fddf252ad1be2c89b69c2b068fc378daa952ba7f163c4a11628f55a4df523b3ef90602001612f10565b73ffffffffffffffffffffffffffffffffffffffff81165f908152600860205260408120815b600482015481101561387b5781600401818154811061385357613853613d12565b905f5260205f200154836138679190613cd2565b92508061387381613d3f565b915050613832565b5050919050565b828054828255905f5260205f209081019282156138bb579160200282015b828111156138bb5782518255916020019190600101906138a0565b506138c79291506138cb565b5090565b5b808211156138c7575f81556001016138cc565b5f6020808352835180828501525f5b8181101561390a578581018301518582016040015282016138ee565b505f6040828601015260407fffffffffffffffffffffffffffffffffffffffffffffffffffffffffffffffe0601f8301168501019250505092915050565b5f60208284031215613958575f80fd5b5035919050565b803573ffffffffffffffffffffffffffffffffffffffff81168114613982575f80fd5b919050565b5f8060408385031215613998575f80fd5b6139a18361395f565b946020939093013593505050565b5f602082840312156139bf575f80fd5b61096b8261395f565b5f805f604084860312156139da575f80fd5b6139e38461395f565b9250602084013567ffffffffffffffff808211156139ff575f80fd5b818601915086601f830112613a12575f80fd5b813581811115613a20575f80fd5b8760208260051b8501011115613a34575f80fd5b6020830194508093505050509250925092565b5f8151808452602080850194508084015f5b83811015613a7557815187529582019590820190600101613a59565b509495945050505050565b602081525f61096b6020830184613a47565b5f805f60608486031215613aa4575f80fd5b613aad8461395f565b9250613abb6020850161395f565b9150604084013590509250925092565b858152846020820152831515604082015260a060608201525f613af160a0830185613a47565b82810360808401526128ea8185613a47565b5f8060408385031215613b14575f80fd5b613b1d8361395f565b9150613b2b6020840161395f565b90509250929050565b5f8060408385031215613b45575f80fd5b82359150613b2b6020840161395f565b5f805f60608486031215613b67575f80fd5b83359250613b776020850161395f565b9150613b856040850161395f565b90509250925092565b602080825282518282018190525f9190848201906040850190845b81811015613bdb57835173ffffffffffffffffffffffffffffffffffffffff1683529284019291840191600101613ba9565b50909695505050505050565b5f805f805f805f60e0888a031215613bfd575f80fd5b613c068861395f565b9650613c146020890161395f565b95506040880135945060608801359350608088013560ff81168114613c37575f80fd5b9699959850939692959460a0840135945060c09093013592915050565b600181811c90821680613c6857607f821691505b602082108103613c9f577f4e487b71000000000000000000000000000000000000000000000000000000005f52602260045260245ffd5b50919050565b7f4e487b71000000000000000000000000000000000000000000000000000000005f52601160045260245ffd5b808201808211156109e5576109e5613ca5565b7f4e487b71000000000000000000000000000000000000000000000000000000005f52604160045260245ffd5b7f4e487b71000000000000000000000000000000000000000000000000000000005f52603260045260245ffd5b5f7fffffffffffffffffffffffffffffffffffffffffffffffffffffffffffffffff8203613d6f57613d6f613ca5565b5060010190565b818103818111156109e5576109e5613ca5565b5f60208284031215613d99575f80fd5b5051919050565b5f80835481600182811c915080831680613dbb57607f831692505b60208084108203613df3577f4e487b710000000000000000000000000000000000000000000000000000000086526022600452602486fd5b818015613e075760018114613e3a57613e65565b7fffffffffffffffffffffffffffffffffffffffffffffffffffffffffffffff0086168952841515850289019650613e65565b5f8a8152602090205f5b86811015613e5d5781548b820152908501908301613e44565b505084890196505b509498975050505050505050565b5f8151808452602080850194508084015f5b83811015613a7557815167ffffffffffffffff1687529582019590820190600101613e85565b85815284602082015273ffffffffffffffffffffffffffffffffffffffff8416604082015282606082015260a060808201525f613eeb60a0830184613e73565b979650505050505050565b828152604060208201525f610ff66040830184613e7356fea164736f6c6343000814000a","linkReferences":{}},"methodIdentifiers":{"DOMAIN_SEPARATOR()":"3644e515","addRewardToken(address)":"1c03e6cc","allowance(address,address)":"dd62ed3e","approve(address,uint256)":"095ea7b3","asset()":"38d52e0f","balanceOf(address)":"70a08231","blueprintSelection(uint256)":"b294eb18","cancelUnstake(uint256)":"2b187b2b","cancelWithdraw(uint256)":"9f01f7ba","claimRewards(address,address[])":"2026ffa3","convertToAssets(uint256)":"07a2d13a","convertToShares(uint256)":"c6e6f592","decimals()":"313ce567","deposit(uint256,address)":"6e553f65","executeUnstake()":"0cea2bda","getClaimableRewards(address,address)":"f56f4f0f","getRewardData(address)":"451831e4","getRewardTokens()":"c4f59f9b","mads()":"c20bb5ac","maxDeposit(address)":"402d267d","maxMint(address)":"c63d75b6","maxRedeem(address)":"d905777e","maxWithdraw(address)":"ce96cb77","mint(uint256,address)":"94bf804d","name()":"06fdde03","nonces(address)":"7ecebe00","operator()":"570ca735","owner()":"8da5cb5b","permit(address,address,uint256,uint256,uint8,bytes32,bytes32)":"d505accf","previewDeposit(uint256)":"ef8b30f7","previewMint(uint256)":"b3d7f6b9","previewRedeem(uint256)":"4cdad506","previewWithdraw(uint256)":"0a28a477","redeem(uint256,address,address)":"ba087652","rewardData(address)":"48e5d9f8","rewardTokens(uint256)":"7bb7bed1","scheduleUnstake(uint256)":"106d08df","scheduleWithdraw(uint256)":"cce9d801","scheduledUnstakeAmount(address)":"e031cc83","scheduledWithdrawAmount(address)":"919dd0b7","symbol()":"95d89b41","token()":"fc0c546a","totalAssets()":"01e1d114","totalSupply()":"18160ddd","transfer(address,uint256)":"a9059cbb","transferFrom(address,address,uint256)":"23b872dd","transferOwnership(address)":"f2fde38b","unstakeAmount(address)":"a209a86f","userSnapshots(address,address)":"596404bb","withdraw(uint256,address,address)":"b460af94"},"id":29}