{"abi":[{"type":"constructor","inputs":[{"name":"_baseToken","type":"address","internalType":"address"},{"name":"_operator","type":"bytes32","internalType":"bytes32"},{"name":"_blueprintSelection","type":"uint64[]","internalType":"uint64[]"},{"name":"_mads","type":"address","internalType":"address"},{"name":"_name","type":"string","internalType":"string"},{"name":"_symbol","type":"string","internalType":"string"}],"stateMutability":"nonpayable"},{"type":"function","name":"DOMAIN_SEPARATOR","inputs":[],"outputs":[{"name":"","type":"bytes32","internalType":"bytes32"}],"stateMutability":"view"},{"type":"function","name":"addRewardToken","inputs":[{"name":"token","type":"address","internalType":"address"}],"outputs":[],"stateMutability":"nonpayable"},{"type":"function","name":"allowance","inputs":[{"name":"","type":"address","internalType":"address"},{"name":"","type":"address","internalType":"address"}],"outputs":[{"name":"","type":"uint256","internalType":"uint256"}],"stateMutability":"view"},{"type":"function","name":"approve","inputs":[{"name":"spender","type":"address","internalType":"address"},{"name":"amount","type":"uint256","internalType":"uint256"}],"outputs":[{"name":"","type":"bool","internalType":"bool"}],"stateMutability":"nonpayable"},{"type":"function","name":"asset","inputs":[],"outputs":[{"name":"","type":"address","internalType":"contract ERC20"}],"stateMutability":"view"},{"type":"function","name":"balanceOf","inputs":[{"name":"","type":"address","internalType":"address"}],"outputs":[{"name":"","type":"uint256","internalType":"uint256"}],"stateMutability":"view"},{"type":"function","name":"blueprintSelection","inputs":[{"name":"","type":"uint256","internalType":"uint256"}],"outputs":[{"name":"","type":"uint64","internalType":"uint64"}],"stateMutability":"view"},{"type":"function","name":"cancelUnstake","inputs":[{"name":"assets","type":"uint256","internalType":"uint256"}],"outputs":[],"stateMutability":"nonpayable"},{"type":"function","name":"cancelWithdraw","inputs":[{"name":"assets","type":"uint256","internalType":"uint256"}],"outputs":[],"stateMutability":"nonpayable"},{"type":"function","name":"claimRewards","inputs":[{"name":"user","type":"address","internalType":"address"},{"name":"tokens","type":"address[]","internalType":"address[]"}],"outputs":[{"name":"rewards","type":"uint256[]","internalType":"uint256[]"}],"stateMutability":"nonpayable"},{"type":"function","name":"convertToAssets","inputs":[{"name":"shares","type":"uint256","internalType":"uint256"}],"outputs":[{"name":"","type":"uint256","internalType":"uint256"}],"stateMutability":"view"},{"type":"function","name":"convertToShares","inputs":[{"name":"assets","type":"uint256","internalType":"uint256"}],"outputs":[{"name":"","type":"uint256","internalType":"uint256"}],"stateMutability":"view"},{"type":"function","name":"decimals","inputs":[],"outputs":[{"name":"","type":"uint8","internalType":"uint8"}],"stateMutability":"view"},{"type":"function","name":"deposit","inputs":[{"name":"assets","type":"uint256","internalType":"uint256"},{"name":"receiver","type":"address","internalType":"address"}],"outputs":[{"name":"shares","type":"uint256","internalType":"uint256"}],"stateMutability":"nonpayable"},{"type":"function","name":"executeUnstake","inputs":[],"outputs":[],"stateMutability":"nonpayable"},{"type":"function","name":"getClaimableRewards","inputs":[{"name":"user","type":"address","internalType":"address"},{"name":"token","type":"address","internalType":"address"}],"outputs":[{"name":"","type":"uint256","internalType":"uint256"}],"stateMutability":"view"},{"type":"function","name":"getRewardData","inputs":[{"name":"token","type":"address","internalType":"address"}],"outputs":[{"name":"index","type":"uint256","internalType":"uint256"},{"name":"lastUpdateTime","type":"uint256","internalType":"uint256"},{"name":"isValid","type":"bool","internalType":"bool"},{"name":"rewardTimestamps","type":"uint256[]","internalType":"uint256[]"},{"name":"rewardAmounts","type":"uint256[]","internalType":"uint256[]"}],"stateMutability":"view"},{"type":"function","name":"getRewardTokens","inputs":[],"outputs":[{"name":"","type":"address[]","internalType":"address[]"}],"stateMutability":"view"},{"type":"function","name":"mads","inputs":[],"outputs":[{"name":"","type":"address","internalType":"contract MultiAssetDelegation"}],"stateMutability":"view"},{"type":"function","name":"maxDeposit","inputs":[{"name":"","type":"address","internalType":"address"}],"outputs":[{"name":"","type":"uint256","internalType":"uint256"}],"stateMutability":"view"},{"type":"function","name":"maxMint","inputs":[{"name":"","type":"address","internalType":"address"}],"outputs":[{"name":"","type":"uint256","internalType":"uint256"}],"stateMutability":"view"},{"type":"function","name":"maxRedeem","inputs":[{"name":"owner","type":"address","internalType":"address"}],"outputs":[{"name":"","type":"uint256","internalType":"uint256"}],"stateMutability":"view"},{"type":"function","name":"maxWithdraw","inputs":[{"name":"owner","type":"address","internalType":"address"}],"outputs":[{"name":"","type":"uint256","internalType":"uint256"}],"stateMutability":"view"},{"type":"function","name":"mint","inputs":[{"name":"shares","type":"uint256","internalType":"uint256"},{"name":"receiver","type":"address","internalType":"address"}],"outputs":[{"name":"assets","type":"uint256","internalType":"uint256"}],"stateMutability":"nonpayable"},{"type":"function","name":"name","inputs":[],"outputs":[{"name":"","type":"string","internalType":"string"}],"stateMutability":"view"},{"type":"function","name":"nonces","inputs":[{"name":"","type":"address","internalType":"address"}],"outputs":[{"name":"","type":"uint256","internalType":"uint256"}],"stateMutability":"view"},{"type":"function","name":"operator","inputs":[],"outputs":[{"name":"","type":"bytes32","internalType":"bytes32"}],"stateMutability":"view"},{"type":"function","name":"owner","inputs":[],"outputs":[{"name":"","type":"address","internalType":"address"}],"stateMutability":"view"},{"type":"function","name":"permit","inputs":[{"name":"owner","type":"address","internalType":"address"},{"name":"spender","type":"address","internalType":"address"},{"name":"value","type":"uint256","internalType":"uint256"},{"name":"deadline","type":"uint256","internalType":"uint256"},{"name":"v","type":"uint8","internalType":"uint8"},{"name":"r","type":"bytes32","internalType":"bytes32"},{"name":"s","type":"bytes32","internalType":"bytes32"}],"outputs":[],"stateMutability":"nonpayable"},{"type":"function","name":"previewDeposit","inputs":[{"name":"assets","type":"uint256","internalType":"uint256"}],"outputs":[{"name":"","type":"uint256","internalType":"uint256"}],"stateMutability":"view"},{"type":"function","name":"previewMint","inputs":[{"name":"shares","type":"uint256","internalType":"uint256"}],"outputs":[{"name":"","type":"uint256","internalType":"uint256"}],"stateMutability":"view"},{"type":"function","name":"previewRedeem","inputs":[{"name":"shares","type":"uint256","internalType":"uint256"}],"outputs":[{"name":"","type":"uint256","internalType":"uint256"}],"stateMutability":"view"},{"type":"function","name":"previewWithdraw","inputs":[{"name":"assets","type":"uint256","internalType":"uint256"}],"outputs":[{"name":"","type":"uint256","internalType":"uint256"}],"stateMutability":"view"},{"type":"function","name":"redeem","inputs":[{"name":"shares","type":"uint256","internalType":"uint256"},{"name":"receiver","type":"address","internalType":"address"},{"name":"owner","type":"address","internalType":"address"}],"outputs":[{"name":"assets","type":"uint256","internalType":"uint256"}],"stateMutability":"nonpayable"},{"type":"function","name":"rewardData","inputs":[{"name":"","type":"address","internalType":"address"}],"outputs":[{"name":"index","type":"uint256","internalType":"uint256"},{"name":"lastUpdateTime","type":"uint256","internalType":"uint256"},{"name":"isValid","type":"bool","internalType":"bool"}],"stateMutability":"view"},{"type":"function","name":"rewardTokens","inputs":[{"name":"","type":"uint256","internalType":"uint256"}],"outputs":[{"name":"","type":"address","internalType":"address"}],"stateMutability":"view"},{"type":"function","name":"scheduleUnstake","inputs":[{"name":"assets","type":"uint256","internalType":"uint256"}],"outputs":[],"stateMutability":"nonpayable"},{"type":"function","name":"scheduleWithdraw","inputs":[{"name":"assets","type":"uint256","internalType":"uint256"}],"outputs":[],"stateMutability":"nonpayable"},{"type":"function","name":"scheduledUnstakeAmount","inputs":[{"name":"","type":"address","internalType":"address"}],"outputs":[{"name":"","type":"uint256","internalType":"uint256"}],"stateMutability":"view"},{"type":"function","name":"scheduledWithdrawAmount","inputs":[{"name":"","type":"address","internalType":"address"}],"outputs":[{"name":"","type":"uint256","internalType":"uint256"}],"stateMutability":"view"},{"type":"function","name":"symbol","inputs":[],"outputs":[{"name":"","type":"string","internalType":"string"}],"stateMutability":"view"},{"type":"function","name":"token","inputs":[],"outputs":[{"name":"","type":"address","internalType":"contract ERC20"}],"stateMutability":"view"},{"type":"function","name":"totalAssets","inputs":[],"outputs":[{"name":"","type":"uint256","internalType":"uint256"}],"stateMutability":"view"},{"type":"function","name":"totalSupply","inputs":[],"outputs":[{"name":"","type":"uint256","internalType":"uint256"}],"stateMutability":"view"},{"type":"function","name":"transfer","inputs":[{"name":"to","type":"address","internalType":"address"},{"name":"amount","type":"uint256","internalType":"uint256"}],"outputs":[{"name":"","type":"bool","internalType":"bool"}],"stateMutability":"nonpayable"},{"type":"function","name":"transferFrom","inputs":[{"name":"from","type":"address","internalType":"address"},{"name":"to","type":"address","internalType":"address"},{"name":"amount","type":"uint256","internalType":"uint256"}],"outputs":[{"name":"","type":"bool","internalType":"bool"}],"stateMutability":"nonpayable"},{"type":"function","name":"transferOwnership","inputs":[{"name":"newOwner","type":"address","internalType":"address"}],"outputs":[],"stateMutability":"nonpayable"},{"type":"function","name":"unstakeAmount","inputs":[{"name":"","type":"address","internalType":"address"}],"outputs":[{"name":"","type":"uint256","internalType":"uint256"}],"stateMutability":"view"},{"type":"function","name":"userSnapshots","inputs":[{"name":"","type":"address","internalType":"address"},{"name":"","type":"address","internalType":"address"}],"outputs":[{"name":"rewardIndex","type":"uint256","internalType":"uint256"},{"name":"timestamp","type":"uint256","internalType":"uint256"},{"name":"shareBalance","type":"uint256","internalType":"uint256"},{"name":"lastRewardIndex","type":"uint256","internalType":"uint256"},{"name":"pendingRewards","type":"uint256","internalType":"uint256"}],"stateMutability":"view"},{"type":"function","name":"withdraw","inputs":[{"name":"assets","type":"uint256","internalType":"uint256"},{"name":"receiver","type":"address","internalType":"address"},{"name":"owner","type":"address","internalType":"address"}],"outputs":[{"name":"shares","type":"uint256","internalType":"uint256"}],"stateMutability":"nonpayable"},{"type":"event","name":"Approval","inputs":[{"name":"owner","type":"address","indexed":true,"internalType":"address"},{"name":"spender","type":"address","indexed":true,"internalType":"address"},{"name":"amount","type":"uint256","indexed":false,"internalType":"uint256"}],"anonymous":false},{"type":"event","name":"Delegated","inputs":[{"name":"operator","type":"bytes32","indexed":true,"internalType":"bytes32"},{"name":"amount","type":"uint256","indexed":false,"internalType":"uint256"},{"name":"blueprintSelection","type":"uint64[]","indexed":false,"internalType":"uint64[]"}],"anonymous":false},{"type":"event","name":"Deposit","inputs":[{"name":"caller","type":"address","indexed":true,"internalType":"address"},{"name":"owner","type":"address","indexed":true,"internalType":"address"},{"name":"assets","type":"uint256","indexed":false,"internalType":"uint256"},{"name":"shares","type":"uint256","indexed":false,"internalType":"uint256"}],"anonymous":false},{"type":"event","name":"Deposited","inputs":[{"name":"amount","type":"uint256","indexed":false,"internalType":"uint256"}],"anonymous":false},{"type":"event","name":"OwnershipTransferred","inputs":[{"name":"user","type":"address","indexed":true,"internalType":"address"},{"name":"newOwner","type":"address","indexed":true,"internalType":"address"}],"anonymous":false},{"type":"event","name":"RewardIndexUpdated","inputs":[{"name":"token","type":"address","indexed":true,"internalType":"address"},{"name":"index","type":"uint256","indexed":false,"internalType":"uint256"},{"name":"timestamp","type":"uint256","indexed":false,"internalType":"uint256"}],"anonymous":false},{"type":"event","name":"RewardSnapshotCreated","inputs":[{"name":"user","type":"address","indexed":true,"internalType":"address"},{"name":"token","type":"address","indexed":true,"internalType":"address"},{"name":"index","type":"uint256","indexed":false,"internalType":"uint256"},{"name":"timestamp","type":"uint256","indexed":false,"internalType":"uint256"},{"name":"rewardIndex","type":"uint256","indexed":false,"internalType":"uint256"}],"anonymous":false},{"type":"event","name":"RewardTokenAdded","inputs":[{"name":"token","type":"address","indexed":true,"internalType":"address"}],"anonymous":false},{"type":"event","name":"RewardsClaimed","inputs":[{"name":"user","type":"address","indexed":true,"internalType":"address"},{"name":"token","type":"address","indexed":true,"internalType":"address"},{"name":"amount","type":"uint256","indexed":false,"internalType":"uint256"}],"anonymous":false},{"type":"event","name":"Transfer","inputs":[{"name":"from","type":"address","indexed":true,"internalType":"address"},{"name":"to","type":"address","indexed":true,"internalType":"address"},{"name":"amount","type":"uint256","indexed":false,"internalType":"uint256"}],"anonymous":false},{"type":"event","name":"UnstakeCancelled","inputs":[{"name":"user","type":"address","indexed":true,"internalType":"address"},{"name":"amount","type":"uint256","indexed":false,"internalType":"uint256"}],"anonymous":false},{"type":"event","name":"UnstakeCancelled","inputs":[{"name":"operator","type":"bytes32","indexed":true,"internalType":"bytes32"},{"name":"amount","type":"uint256","indexed":false,"internalType":"uint256"}],"anonymous":false},{"type":"event","name":"UnstakeScheduled","inputs":[{"name":"operator","type":"bytes32","indexed":true,"internalType":"bytes32"},{"name":"amount","type":"uint256","indexed":false,"internalType":"uint256"}],"anonymous":false},{"type":"event","name":"Withdraw","inputs":[{"name":"caller","type":"address","indexed":true,"internalType":"address"},{"name":"receiver","type":"address","indexed":true,"internalType":"address"},{"name":"owner","type":"address","indexed":true,"internalType":"address"},{"name":"assets","type":"uint256","indexed":false,"internalType":"uint256"},{"name":"shares","type":"uint256","indexed":false,"internalType":"uint256"}],"anonymous":false},{"type":"event","name":"WithdrawalCancelled","inputs":[{"name":"user","type":"address","indexed":true,"internalType":"address"},{"name":"amount","type":"uint256","indexed":false,"internalType":"uint256"}],"anonymous":false},{"type":"event","name":"WithdrawalCancelled","inputs":[{"name":"amount","type":"uint256","indexed":false,"internalType":"uint256"}],"anonymous":false},{"type":"event","name":"WithdrawalScheduled","inputs":[{"name":"amount","type":"uint256","indexed":false,"internalType":"uint256"}],"anonymous":false},{"type":"error","name":"ExceedsScheduledAmount","inputs":[]},{"type":"error","name":"InsufficientScheduledAmount","inputs":[]},{"type":"error","name":"InvalidRewardToken","inputs":[]},{"type":"error","name":"NoRewardsToClaim","inputs":[]},{"type":"error","name":"NoScheduledAmount","inputs":[]},{"type":"error","name":"RewardTokenAlreadyAdded","inputs":[]},{"type":"error","name":"Unauthorized","inputs":[]},{"type":"error","name":"WithdrawalNotUnstaked","inputs":[]}],"bytecode":{"object":"0x610140604052348015610010575f80fd5b50604051613c3a380380613c3a83398101604081905261002f91610391565b8583338885858181846001600160a01b031663313ce5676040518163ffffffff1660e01b8152600401602060405180830381865afa158015610073573d5f803e3d5ffd5b505050506040513d601f19601f8201168201806040525081019061009791906104b2565b5f6100a2848261055d565b5060016100af838261055d565b5060ff81166080524660a0526100c3610152565b60c052505050506001600160a01b0391821660e05250600680546001600160a01b03191691831691821790556040515f907f8be0079c531659141344cd1fd0a4f28419497f9722a3daafe3b4186f6b6457e0908290a3506001600160a01b03918216610100521661012052600d859055835161014690600e9060208701906101ea565b5050505050505061068e565b5f7f8b73c3c69bb8fe3d512ecc4cf759cc79239f7b179b0ffacaa9a75d522b39400f5f604051610182919061061c565b6040805191829003822060208301939093528101919091527fc89efdaa54c0f20c7adf612882df0950f5a951637e0307cdcb4c672f298b8bc660608201524660808201523060a082015260c00160405160208183030381529060405280519060200120905090565b828054828255905f5260205f209060030160049004810192821561028f579160200282015f5b8382111561025a57835183826101000a8154816001600160401b0302191690836001600160401b031602179055509260200192600801602081600701049283019260010302610210565b801561028d5782816101000a8154906001600160401b03021916905560080160208160070104928301926001030261025a565b505b5061029b92915061029f565b5090565b5b8082111561029b575f81556001016102a0565b80516001600160a01b03811681146102c9575f80fd5b919050565b634e487b7160e01b5f52604160045260245ffd5b604051601f8201601f191681016001600160401b038111828210171561030a5761030a6102ce565b604052919050565b5f82601f830112610321575f80fd5b81516001600160401b0381111561033a5761033a6102ce565b602061034e601f8301601f191682016102e2565b8281528582848701011115610361575f80fd5b5f5b8381101561037e578581018301518282018401528201610363565b505f928101909101919091529392505050565b5f805f805f8060c087890312156103a6575f80fd5b6103af876102b3565b60208881015160408a01519298509650906001600160401b03808211156103d4575f80fd5b818a0191508a601f8301126103e7575f80fd5b8151818111156103f9576103f96102ce565b8060051b6104088582016102e2565b918252838101850191858101908e841115610421575f80fd5b948601945b8386101561044f5785519250848316831461043f575f80fd5b8282529486019490860190610426565b99506104619250505060608b016102b3565b955060808a0151925080831115610476575f80fd5b6104828b848c01610312565b945060a08a0151925080831115610497575f80fd5b50506104a589828a01610312565b9150509295509295509295565b5f602082840312156104c2575f80fd5b815160ff811681146104d2575f80fd5b9392505050565b600181811c908216806104ed57607f821691505b60208210810361050b57634e487b7160e01b5f52602260045260245ffd5b50919050565b601f82111561055857805f5260205f20601f840160051c810160208510156105365750805b601f840160051c820191505b81811015610555575f8155600101610542565b50505b505050565b81516001600160401b03811115610576576105766102ce565b61058a8161058484546104d9565b84610511565b602080601f8311600181146105bd575f84156105a65750858301515b5f19600386901b1c1916600185901b178555610614565b5f85815260208120601f198616915b828110156105eb578886015182559484019460019091019084016105cc565b508582101561060857878501515f19600388901b60f8161c191681555b505060018460011b0185555b505050505050565b5f808354610629816104d9565b60018281168015610641576001811461065657610682565b60ff1984168752821515830287019450610682565b875f526020805f205f5b858110156106795781548a820152908401908201610660565b50505082870194505b50929695505050505050565b60805160a05160c05160e05161010051610120516134d96107615f395f81816106b801528181611cda01528181611e61015281816121070152818161262a015281816126c9015281816127ea0152612ac901525f81816107ea01528181611e32015281816120d8015281816125fb015281816126fa0152612a9a01525f818161040d0152818161082301528181610b3701528181611144015281816111d2015281816112730152818161246f015281816129190152612a5601525f610f6001525f610f3001525f6103cc01526134d95ff3fe608060405234801561000f575f80fd5b50600436106102cb575f3560e01c80638da5cb5b1161017b578063c4f59f9b116100e4578063d905777e1161009e578063ef8b30f711610079578063ef8b30f7146107ac578063f2fde38b146107bf578063f56f4f0f146107d2578063fc0c546a146107e5575f80fd5b8063d905777e1461073b578063dd62ed3e14610763578063e031cc831461078d575f80fd5b8063c4f59f9b146106da578063c63d75b614610447578063c6e6f592146106ef578063cce9d80114610702578063ce96cb7714610715578063d505accf14610728575f80fd5b8063a9059cbb11610135578063a9059cbb1461063b578063b294eb181461064e578063b3d7f6b91461067a578063b460af941461068d578063ba087652146106a0578063c20bb5ac146106b3575f80fd5b80638da5cb5b146105bc578063919dd0b7146105cf57806394bf804d146105ee57806395d89b41146106015780639f01f7ba14610609578063a209a86f1461061c575f80fd5b8063313ce567116102375780634cdad506116101f15780636e553f65116101cc5780636e553f651461055857806370a082311461056b5780637bb7bed11461058a5780637ecebe001461059d575f80fd5b80634cdad506146104cd578063570ca735146104e0578063596404bb146104e9575f80fd5b8063313ce567146103c75780633644e5151461040057806338d52e0f14610408578063402d267d14610447578063451831e41461045b57806348e5d9f81461047f575f80fd5b8063106d08df11610288578063106d08df1461035257806318160ddd146103655780631c03e6cc1461036e5780632026ffa31461038157806323b872dd146103a15780632b187b2b146103b4575f80fd5b806301e1d114146102cf57806306fdde03146102ea57806307a2d13a146102ff578063095ea7b3146103125780630a28a477146103355780630cea2bda14610348575b5f80fd5b6102d761080c565b6040519081526020015b60405180910390f35b6102f2610899565b6040516102e19190612e4a565b6102d761030d366004612e96565b610924565b610325610320366004612ec8565b610950565b60405190151581526020016102e1565b6102d7610343366004612e96565b6109bc565b6103506109db565b005b610350610360366004612e96565b610a48565b6102d760025481565b61035061037c366004612ef0565b610b24565b61039461038f366004612f09565b610d47565b6040516102e19190612fc2565b6103256103af366004612fd4565b610e66565b6103506103c2366004612e96565b610e85565b6103ee7f000000000000000000000000000000000000000000000000000000000000000081565b60405160ff90911681526020016102e1565b6102d7610f2d565b61042f7f000000000000000000000000000000000000000000000000000000000000000081565b6040516001600160a01b0390911681526020016102e1565b6102d7610455366004612ef0565b505f1990565b61046e610469366004612ef0565b610f82565b6040516102e195949392919061300d565b6104b061048d366004612ef0565b60086020525f908152604090208054600182015460029092015490919060ff1683565b6040805193845260208401929092521515908201526060016102e1565b6102d76104db366004612e96565b611074565b6102d7600d5481565b6105306104f7366004613045565b600960209081525f9283526040808420909152908252902080546001820154600283015460038401546004909401549293919290919085565b604080519586526020860194909452928401919091526060830152608082015260a0016102e1565b6102d7610566366004613076565b61107e565b6102d7610579366004612ef0565b60036020525f908152604090205481565b61042f610598366004612e96565b611232565b6102d76105ab366004612ef0565b60056020525f908152604090205481565b60065461042f906001600160a01b031681565b6102d76105dd366004612ef0565b600c6020525f908152604090205481565b6102d76105fc366004613076565b61125a565b6102f26112f1565b610350610617366004612e96565b6112fe565b6102d761062a366004612ef0565b600a6020525f908152604090205481565b610325610649366004612ec8565b611433565b61066161065c366004612e96565b611449565b60405167ffffffffffffffff90911681526020016102e1565b6102d7610688366004612e96565b611484565b6102d761069b366004613097565b6114a2565b6102d76106ae366004613097565b6115bd565b61042f7f000000000000000000000000000000000000000000000000000000000000000081565b6106e26116d9565b6040516102e191906130d0565b6102d76106fd366004612e96565b611739565b610350610710366004612e96565b611758565b6102d7610723366004612ef0565b61180e565b61035061073636600461311c565b61182f565b6102d7610749366004612ef0565b6001600160a01b03165f9081526003602052604090205490565b6102d7610771366004613045565b600460209081525f928352604080842090915290825290205481565b6102d761079b366004612ef0565b600b6020525f908152604090205481565b6102d76107ba366004612e96565b611a6d565b6103506107cd366004612ef0565b611a77565b6102d76107e0366004613045565b611b0b565b61042f7f000000000000000000000000000000000000000000000000000000000000000081565b6040516370a0823160e01b81523060048201525f907f00000000000000000000000000000000000000000000000000000000000000006001600160a01b0316906370a0823190602401602060405180830381865afa158015610870573d5f803e3d5ffd5b505050506040513d601f19601f820116820180604052508101906108949190613189565b905090565b5f80546108a5906131a0565b80601f01602080910402602001604051908101604052809291908181526020018280546108d1906131a0565b801561091c5780601f106108f35761010080835404028352916020019161091c565b820191905f5260205f20905b8154815290600101906020018083116108ff57829003601f168201915b505050505081565b6002545f9080156109475761094261093a61080c565b849083611c9a565b610949565b825b9392505050565b335f8181526004602090815260408083206001600160a01b038716808552925280832085905551919290917f8c5be1e5ebec7d5bd14f71427d1e84f3dd0314c0f7b2291e5b200ac8c7c3b925906109aa9086815260200190565b60405180910390a35060015b92915050565b6002545f90801561094757610942816109d361080c565b859190611cb5565b335f908152600b602052604081205490819003610a0b5760405163601701d960e01b815260040160405180910390fd5b610a13611cd8565b335f908152600a602052604081208054839290610a319084906131ec565b9091555050335f908152600b602052604081205550565b5f610a52826109bc565b335f90815260036020526040902054909150811115610aae5760405162461bcd60e51b8152602060048201526013602482015272496e73756666696369656e742073686172657360681b60448201526064015b60405180910390fd5b335f908152600b602052604081208054849290610acc9084906131ec565b90915550610add9050335f83611d47565b610ae9600d5483611e0e565b600d546040518381527f3f3ac42003d85fd976b1896956dfdb3db9b2b67fb64d13e8eefd4c12f749bfc9906020015b60405180910390a25050565b6001600160a01b0381161580610b6b57507f00000000000000000000000000000000000000000000000000000000000000006001600160a01b0316816001600160a01b0316145b15610b895760405163dfde867160e01b815260040160405180910390fd5b6001600160a01b0381165f9081526008602052604090206002015460ff1615610bc557604051634611beab60e01b815260040160405180910390fd5b6040518060a001604052805f81526020014281526020016001151581526020015f67ffffffffffffffff811115610bfe57610bfe6131ff565b604051908082528060200260200182016040528015610c27578160200160208202803683370190505b5081526020015f604051908082528060200260200182016040528015610c57578160200160208202803683370190505b5090526001600160a01b0382165f90815260086020908152604091829020835181558382015160018201559183015160028301805460ff191691151591909117905560608301518051610cb09260038501920190612ded565b5060808201518051610ccc916004840191602090910190612ded565b5050600780546001810182555f9182527fa66cc928b5edb82af9bd49922954155ab7b0942694bea4ce44661d9a8736c6880180546001600160a01b0319166001600160a01b0385169081179091556040519092507ff3e4c2c64e71e6ba2eaab9a599bced62f9eb91d2cda610bf41aa8c80ff2cf8269190a250565b6060336001600160a01b03851614610d71576040516282b42960e81b815260040160405180910390fd5b8167ffffffffffffffff811115610d8a57610d8a6131ff565b604051908082528060200260200182016040528015610db3578160200160208202803683370190505b509050610dbe611eea565b5f5b82811015610e5e575f848483818110610ddb57610ddb613213565b9050602002016020810190610df09190612ef0565b6001600160a01b0381165f9081526008602052604090206002015490915060ff16610e2e5760405163dfde867160e01b815260040160405180910390fd5b610e388682611f30565b838381518110610e4a57610e4a613213565b602090810291909101015250600101610dc0565b509392505050565b5f610e72848484611d47565b610e7d848484611fda565b949350505050565b335f908152600b602052604090205480821115610eb557604051631ae47f5160e01b815260040160405180910390fd5b610ebf8282613227565b335f908152600b6020526040902055600d54610edb90836120b4565b5f610ee5836109bc565b9050610ef2333383611d47565b60405183815233907f02fbe69eb5474cc010b6c0c236dd70755556cee48c19373e79147100e04de70b906020015b60405180910390a2505050565b5f7f00000000000000000000000000000000000000000000000000000000000000004614610f5d57610894612190565b507f000000000000000000000000000000000000000000000000000000000000000090565b6001600160a01b0381165f90815260086020908152604080832080546001820154600283015460038401805486518189028101890190975280875288978897606097889790969095909460ff909116939092600488019291849183018282801561100957602002820191905f5260205f20905b815481526020019060010190808311610ff5575b505050505091508080548060200260200160405190810160405280929190818152602001828054801561105957602002820191905f5260205f20905b815481526020019060010190808311611045575b50505050509050955095509550955095505091939590929450565b5f6109b682610924565b5f61108883611a6d565b6007549091501561111a5761109b611eea565b5f5b600754811015611118575f600782815481106110bb576110bb613213565b5f9182526020822001546001600160a01b031691506110da8583612228565b6001600160a01b0386165f9081526003602052604090205490915061110e90869084906111089088906131ec565b846122da565b505060010161109d565b505b6111248383612419565b5060405163b3c1139560e01b81525f600482018190526001600160a01b037f00000000000000000000000000000000000000000000000000000000000000001660248301526044820185905260648201526108229063b3c11395906084015f604051808303815f87803b158015611199575f80fd5b505af11580156111ab573d5f803e3d5ffd5b5050600d54604051635096f05d60e11b8152610822935063a12de0ba92506111ff91905f907f0000000000000000000000000000000000000000000000000000000000000000908990600e9060040161323a565b5f604051808303815f87803b158015611216575f80fd5b505af1158015611228573d5f803e3d5ffd5b5050505092915050565b60078181548110611241575f80fd5b5f918252602090912001546001600160a01b0316905081565b5f61126483611484565b905061129b6001600160a01b037f0000000000000000000000000000000000000000000000000000000000000000163330846124e4565b6112a58284612588565b60408051828152602081018590526001600160a01b0384169133917fdcbc1c05240f31ff3ad067ef1ee35ce4997762752e3a095284754544f4c709d791015b60405180910390a36109b6565b600180546108a5906131a0565b335f908152600c60205260409020548082111561132e57604051631ae47f5160e01b815260040160405180910390fd5b6113388282613227565b335f908152600c6020908152604080832093909355600a905290812080548492906113649084906131ec565b909155506113739050826125df565b611401600d5483600e8054806020026020016040519081016040528092919081815260200182805480156113f757602002820191905f5260205f20905f905b82829054906101000a900467ffffffffffffffff1667ffffffffffffffff16815260200190600801906020826007010492830192600103820291508084116113b25790505b50505050506126b2565b60405182815233907f2eed97477f07c07ec48f8f678f4e84f7c0de55bf33f51c3dc989b1335308031990602001610b18565b5f61143f338484611d47565b6109498383612785565b600e8181548110611458575f80fd5b905f5260205f209060049182820401919006600802915054906101000a900467ffffffffffffffff1681565b6002545f9080156109475761094261149a61080c565b849083611cb5565b6001600160a01b0381165f908152600c60205260408120548411156114da5760405163601701d960e01b815260040160405180910390fd5b6114e26127e8565b6001600160a01b0382165f908152600c6020526040902054611505908590613227565b6001600160a01b0383165f908152600c6020526040902055611526846109bc565b600754909150156115b257611539611eea565b5f5b6007548110156115b0575f6007828154811061155957611559613213565b5f9182526020822001546001600160a01b031691506115788583612228565b6001600160a01b0386165f908152600360205260409020549091506115a69086908490611108908890613227565b505060010161153b565b505b610e7d848484612840565b5f6115c784611074565b6001600160a01b0383165f908152600c60205260409020549091508111156116025760405163601701d960e01b815260040160405180910390fd5b61160a6127e8565b6001600160a01b0382165f908152600c602052604090205461162d908290613227565b6001600160a01b0383165f908152600c6020526040902055600754156116ce57611655611eea565b5f5b6007548110156116cc575f6007828154811061167557611675613213565b5f9182526020822001546001600160a01b031691506116948583612228565b6001600160a01b0386165f908152600360205260409020549091506116c29086908490611108908b90613227565b5050600101611657565b505b610e7d848484612940565b6060600780548060200260200160405190810160405280929190818152602001828054801561172f57602002820191905f5260205f20905b81546001600160a01b03168152600190910190602001808311611711575b5050505050905090565b6002545f908015610947576109428161175061080c565b859190611c9a565b335f908152600a60205260409020548111156117875760405163048697e960e11b815260040160405180910390fd5b335f908152600c6020526040812080548392906117a59084906131ec565b9091555050335f908152600a6020526040812080548392906117c8908490613227565b909155506117d7905081612a7d565b6040518181527f546b4489d0d401144246692e660c7c88e2308702063f0a69461de575cf3fdb61906020015b60405180910390a150565b6001600160a01b0381165f908152600360205260408120546109b690610924565b4284101561187f5760405162461bcd60e51b815260206004820152601760248201527f5045524d49545f444541444c494e455f455850495245440000000000000000006044820152606401610aa5565b5f600161188a610f2d565b6001600160a01b038a81165f8181526005602090815260409182902080546001810190915582517f6e71edae12b1b97f4d1f60370fef10105fa2faae0126114a169c64845d6126c98184015280840194909452938d166060840152608083018c905260a083019390935260c08083018b90528151808403909101815260e08301909152805192019190912061190160f01b6101008301526101028201929092526101228101919091526101420160408051601f1981840301815282825280516020918201205f84529083018083525260ff871690820152606081018590526080810184905260a0016020604051602081039080840390855afa158015611992573d5f803e3d5ffd5b5050604051601f1901519150506001600160a01b038116158015906119c85750876001600160a01b0316816001600160a01b0316145b611a055760405162461bcd60e51b815260206004820152600e60248201526d24a72b20a624a22fa9a4a3a722a960911b6044820152606401610aa5565b6001600160a01b039081165f9081526004602090815260408083208a8516808552908352928190208990555188815291928a16917f8c5be1e5ebec7d5bd14f71427d1e84f3dd0314c0f7b2291e5b200ac8c7c3b925910160405180910390a350505050505050565b5f6109b682611739565b6006546001600160a01b03163314611ac05760405162461bcd60e51b815260206004820152600c60248201526b15539055551213d49256915160a21b6044820152606401610aa5565b600680546001600160a01b0319166001600160a01b03831690811790915560405133907f8be0079c531659141344cd1fd0a4f28419497f9722a3daafe3b4186f6b6457e0905f90a350565b6001600160a01b0382165f908152600360205260408120548103611b3057505f6109b6565b6001600160a01b038084165f908152600960209081526040808320938616808452938252808320815160a080820184528254825260018084015483870152600280850154848701526003808601546060808701919091526004909601546080860152988852600887528588208651938401875280548452918201548388015281015460ff16151582860152968701805485518188028101880190965280865292979195919493860193929091830182828015611c0957602002820191905f5260205f20905b815481526020019060010190808311611bf5575b5050505050815260200160048201805480602002602001604051908101604052809291908181526020018280548015611c5f57602002820191905f5260205f20905b815481526020019060010190808311611c4b575b50505091909252505083518251929350611c9192611c7d9250613227565b604084015190670de0b6b3a7640000611c9a565b95945050505050565b5f825f190484118302158202611cae575f80fd5b5091020490565b5f825f190484118302158202611cc9575f80fd5b50910281810615159190040190565b7f00000000000000000000000000000000000000000000000000000000000000006001600160a01b0316627910d06040518163ffffffff1660e01b81526004015f604051808303815f87803b158015611d2f575f80fd5b505af1158015611d41573d5f803e3d5ffd5b50505050565b6007545f03611d5557505050565b6001600160a01b038084165f90815260036020526040808220549285168252902054611d7f611eea565b5f5b600754811015611e06575f60078281548110611d9f57611d9f613213565b5f9182526020822001546001600160a01b03169150611dbe8883612228565b9050611dcf88836111088989613227565b6001600160a01b03871615611dfc575f611de98884612228565b9050611dfa88846111088a896131ec565b505b5050600101611d81565b505050505050565b604051632df530e360e11b8152600481018390525f60248201526001600160a01b037f000000000000000000000000000000000000000000000000000000000000000081166044830152606482018390527f00000000000000000000000000000000000000000000000000000000000000001690635bea61c6906084015f604051808303815f87803b158015611ea2575f80fd5b505af1158015611eb4573d5f803e3d5ffd5b50505050817f3f3ac42003d85fd976b1896956dfdb3db9b2b67fb64d13e8eefd4c12f749bfc982604051610b1891815260200190565b5f5b600754811015611f2d57611f2560078281548110611f0c57611f0c613213565b5f918252602090912001546001600160a01b0316612b51565b600101611eec565b50565b5f611f3a82612b51565b5f611f458484612228565b90508015610949576001600160a01b0384165f90815260036020526040812054611f7291869186916122da565b611f866001600160a01b0384168583612ca6565b826001600160a01b0316846001600160a01b03167f9310ccfcb8de723f578a9e4282ea9f521f05ae40dc08f3068dfad528a65ee3c783604051611fcb91815260200190565b60405180910390a39392505050565b6001600160a01b0383165f9081526004602090815260408083203384529091528120545f1981146120335761200f8382613227565b6001600160a01b0386165f9081526004602090815260408083203384529091529020555b6001600160a01b0385165f908152600360205260408120805485929061205a908490613227565b90915550506001600160a01b038085165f81815260036020526040908190208054870190555190918716905f80516020613484833981519152906120a19087815260200190565b60405180910390a3506001949350505050565b60405163504aff1360e01b8152600481018390525f60248201526001600160a01b037f000000000000000000000000000000000000000000000000000000000000000081166044830152606482018390527f0000000000000000000000000000000000000000000000000000000000000000169063504aff13906084015f604051808303815f87803b158015612148575f80fd5b505af115801561215a573d5f803e3d5ffd5b50505050817f9b273eef61583cf74e826aa833dad475fcc942934d793017466e758e9aaf57cf82604051610b1891815260200190565b5f7f8b73c3c69bb8fe3d512ecc4cf759cc79239f7b179b0ffacaa9a75d522b39400f5f6040516121c09190613357565b6040805191829003822060208301939093528101919091527fc89efdaa54c0f20c7adf612882df0950f5a951637e0307cdcb4c672f298b8bc660608201524660808201523060a082015260c00160405160208183030381529060405280519060200120905090565b6001600160a01b038083165f908152600960209081526040808320938516808452938252808320815160a081018352815481526001820154818501526002820154818401526003820154606082015260049091015460808201529383526008909152812082518154929392849161229e91613227565b60408401519091505f906122bb9083670de0b6b3a7640000611cb5565b90505f8460800151826122ce91906131ec565b98975050505050505050565b5f60085f856001600160a01b03166001600160a01b031681526020019081526020015f2090506040518060a00160405280825f01548152602001428152602001848152602001826003018054905081526020018381525060095f876001600160a01b03166001600160a01b031681526020019081526020015f205f866001600160a01b03166001600160a01b031681526020019081526020015f205f820151815f015560208201518160010155604082015181600201556060820151816003015560808201518160040155905050836001600160a01b0316856001600160a01b03167fbb2e4f291bde0a5cfcec3ae5671cace93d49f19913961a8ab7b15a6262514698835f015442856003018054905060405161240a939291909283526020830191909152604082015260600190565b60405180910390a35050505050565b5f61242383611a6d565b9050805f036124625760405162461bcd60e51b815260206004820152600b60248201526a5a45524f5f53484152455360a81b6044820152606401610aa5565b6124976001600160a01b037f0000000000000000000000000000000000000000000000000000000000000000163330866124e4565b6124a18282612588565b60408051848152602081018390526001600160a01b0384169133917fdcbc1c05240f31ff3ad067ef1ee35ce4997762752e3a095284754544f4c709d791016112e4565b5f6040516323b872dd60e01b81526001600160a01b03851660048201526001600160a01b038416602482015282604482015260205f6064835f8a5af191505080601f3d1160015f51141615161561253d5750833b153d17155b806125815760405162461bcd60e51b81526020600482015260146024820152731514905394d1915497d19493d357d1905253115160621b6044820152606401610aa5565b5050505050565b8060025f82825461259991906131ec565b90915550506001600160a01b0382165f818152600360209081526040808320805486019055518481525f8051602061348483398151915291015b60405180910390a35050565b604051624c695160e51b81525f60048201526001600160a01b037f000000000000000000000000000000000000000000000000000000000000000081166024830152604482018390527f0000000000000000000000000000000000000000000000000000000000000000169063098d2a20906064015f604051808303815f87803b15801561266b575f80fd5b505af115801561267d573d5f803e3d5ffd5b505050507fe8de1e631ea541ac8e6cb398aafb71b991eb58d489298f7bc93ba7e17fa2042b8160405161180391815260200190565b604051635096f05d60e11b81526001600160a01b037f0000000000000000000000000000000000000000000000000000000000000000169063a12de0ba906127269086905f907f0000000000000000000000000000000000000000000000000000000000000000908890889060040161342e565b5f604051808303815f87803b15801561273d575f80fd5b505af115801561274f573d5f803e3d5ffd5b50505050827f492992fdafc55cec84ec4623d119a6984ae91c248fafa42c20f9b7277942ed4a8383604051610f2092919061346b565b335f908152600360205260408120805483919083906127a5908490613227565b90915550506001600160a01b0383165f81815260036020526040908190208054850190555133905f80516020613484833981519152906109aa9086815260200190565b7f00000000000000000000000000000000000000000000000000000000000000006001600160a01b031663f8fd97956040518163ffffffff1660e01b81526004015f604051808303815f87803b158015611d2f575f80fd5b5f61284a846109bc565b9050336001600160a01b038316146128b7576001600160a01b0382165f9081526004602090815260408083203384529091529020545f1981146128b5576128918282613227565b6001600160a01b0384165f9081526004602090815260408083203384529091529020555b505b6128c18282612d2f565b60408051858152602081018390526001600160a01b03808516929086169133917ffbde797d201c681b91056529119e0b02407c7bb96a4a2c75c01fc9667232c8db910160405180910390a46109496001600160a01b037f0000000000000000000000000000000000000000000000000000000000000000168486612ca6565b5f336001600160a01b038316146129ac576001600160a01b0382165f9081526004602090815260408083203384529091529020545f1981146129aa576129868582613227565b6001600160a01b0384165f9081526004602090815260408083203384529091529020555b505b6129b584611074565b9050805f036129f45760405162461bcd60e51b815260206004820152600b60248201526a5a45524f5f41535345545360a81b6044820152606401610aa5565b6129fe8285612d2f565b60408051828152602081018690526001600160a01b03808516929086169133917ffbde797d201c681b91056529119e0b02407c7bb96a4a2c75c01fc9667232c8db910160405180910390a46109496001600160a01b037f0000000000000000000000000000000000000000000000000000000000000000168483612ca6565b604051635092d8a360e11b81525f60048201526001600160a01b037f000000000000000000000000000000000000000000000000000000000000000081166024830152604482018390527f0000000000000000000000000000000000000000000000000000000000000000169063a125b146906064015f604051808303815f87803b158015612b0a575f80fd5b505af1158015612b1c573d5f803e3d5ffd5b505050507f546b4489d0d401144246692e660c7c88e2308702063f0a69461de575cf3fdb618160405161180391815260200190565b6001600160a01b0381165f8181526008602052604080822090516370a0823160e01b81523060048201529092906370a0823190602401602060405180830381865afa158015612ba2573d5f803e3d5ffd5b505050506040513d601f19601f82011682018060405250810190612bc69190613189565b90505f612bd284612d8e565b905080821115612c9a575f612be78284613227565b600385018054600181810183555f928352602080842042930192909255600488018054918201815583529120018190556002549091508015612c97575f612c3783670de0b6b3a764000084611c9a565b905080865f015f828254612c4b91906131ec565b90915550508554604080519182524260208301526001600160a01b038916917f1f0d2c1245dfc4eaee921d7b25e80cb547e4739ea0d8163647cf40ebd162e5b0910160405180910390a2505b50505b50504260019091015550565b5f60405163a9059cbb60e01b81526001600160a01b038416600482015282602482015260205f6044835f895af191505080601f3d1160015f511416151615612cf05750823b153d17155b80611d415760405162461bcd60e51b815260206004820152600f60248201526e1514905394d1915497d19052531151608a1b6044820152606401610aa5565b6001600160a01b0382165f9081526003602052604081208054839290612d56908490613227565b90915550506002805482900390556040518181525f906001600160a01b038416905f80516020613484833981519152906020016125d3565b6001600160a01b0381165f908152600860205260408120815b6004820154811015612de657816004018181548110612dc857612dc8613213565b905f5260205f20015483612ddc91906131ec565b9250600101612da7565b5050919050565b828054828255905f5260205f20908101928215612e26579160200282015b82811115612e26578251825591602001919060010190612e0b565b50612e32929150612e36565b5090565b5b80821115612e32575f8155600101612e37565b5f602080835283518060208501525f5b81811015612e7657858101830151858201604001528201612e5a565b505f604082860101526040601f19601f8301168501019250505092915050565b5f60208284031215612ea6575f80fd5b5035919050565b80356001600160a01b0381168114612ec3575f80fd5b919050565b5f8060408385031215612ed9575f80fd5b612ee283612ead565b946020939093013593505050565b5f60208284031215612f00575f80fd5b61094982612ead565b5f805f60408486031215612f1b575f80fd5b612f2484612ead565b9250602084013567ffffffffffffffff80821115612f40575f80fd5b818601915086601f830112612f53575f80fd5b813581811115612f61575f80fd5b8760208260051b8501011115612f75575f80fd5b6020830194508093505050509250925092565b5f815180845260208085019450602084015f5b83811015612fb757815187529582019590820190600101612f9b565b509495945050505050565b602081525f6109496020830184612f88565b5f805f60608486031215612fe6575f80fd5b612fef84612ead565b9250612ffd60208501612ead565b9150604084013590509250925092565b858152846020820152831515604082015260a060608201525f61303360a0830185612f88565b82810360808401526122ce8185612f88565b5f8060408385031215613056575f80fd5b61305f83612ead565b915061306d60208401612ead565b90509250929050565b5f8060408385031215613087575f80fd5b8235915061306d60208401612ead565b5f805f606084860312156130a9575f80fd5b833592506130b960208501612ead565b91506130c760408501612ead565b90509250925092565b602080825282518282018190525f9190848201906040850190845b818110156131105783516001600160a01b0316835292840192918401916001016130eb565b50909695505050505050565b5f805f805f805f60e0888a031215613132575f80fd5b61313b88612ead565b965061314960208901612ead565b95506040880135945060608801359350608088013560ff8116811461316c575f80fd5b9699959850939692959460a0840135945060c09093013592915050565b5f60208284031215613199575f80fd5b5051919050565b600181811c908216806131b457607f821691505b6020821081036131d257634e487b7160e01b5f52602260045260245ffd5b50919050565b634e487b7160e01b5f52601160045260245ffd5b808201808211156109b6576109b66131d8565b634e487b7160e01b5f52604160045260245ffd5b634e487b7160e01b5f52603260045260245ffd5b818103818111156109b6576109b66131d8565b5f60a0820187835260208781850152604060018060a01b03881660408601526060876060870152608060a0608088015284885461327b818890815260200190565b5f8b81526020812098509092505b816003820110156132ce57875467ffffffffffffffff808216855281881c81168986015281861c168785015260c01c8584015260019097019691830191600401613289565b965496818110156132ee5767ffffffffffffffff88168352918601916001015b8181101561330f57604088901c67ffffffffffffffff168352918601916001015b8181101561333057608088901c67ffffffffffffffff168352918601916001015b818110156133445760c088901c8352918601915b50909d9c50505050505050505050505050565b5f8083545f60018260011c9150600183168061337457607f831692505b6020808410820361339357634e487b7160e01b5f52602260045260245ffd5b8180156133a757600181146133bc576133e7565b60ff19861689528415158502890196506133e7565b5f8a8152602090205f5b868110156133df5781548b8201529085019083016133c6565b505084890196505b509498975050505050505050565b5f815180845260208085019450602084015f5b83811015612fb757815167ffffffffffffffff1687529582019590820190600101613408565b85815284602082015260018060a01b038416604082015282606082015260a060808201525f61346060a08301846133f5565b979650505050505050565b828152604060208201525f610e7d60408301846133f556feddf252ad1be2c89b69c2b068fc378daa952ba7f163c4a11628f55a4df523b3efa2646970667358221220ca8427c86b9979b00d20a5528e507eeff8eba008f16b9e66cdd29d53d6d8142a64736f6c63430008190033","linkReferences":{}},"methodIdentifiers":{"DOMAIN_SEPARATOR()":"3644e515","addRewardToken(address)":"1c03e6cc","allowance(address,address)":"dd62ed3e","approve(address,uint256)":"095ea7b3","asset()":"38d52e0f","balanceOf(address)":"70a08231","blueprintSelection(uint256)":"b294eb18","cancelUnstake(uint256)":"2b187b2b","cancelWithdraw(uint256)":"9f01f7ba","claimRewards(address,address[])":"2026ffa3","convertToAssets(uint256)":"07a2d13a","convertToShares(uint256)":"c6e6f592","decimals()":"313ce567","deposit(uint256,address)":"6e553f65","executeUnstake()":"0cea2bda","getClaimableRewards(address,address)":"f56f4f0f","getRewardData(address)":"451831e4","getRewardTokens()":"c4f59f9b","mads()":"c20bb5ac","maxDeposit(address)":"402d267d","maxMint(address)":"c63d75b6","maxRedeem(address)":"d905777e","maxWithdraw(address)":"ce96cb77","mint(uint256,address)":"94bf804d","name()":"06fdde03","nonces(address)":"7ecebe00","operator()":"570ca735","owner()":"8da5cb5b","permit(address,address,uint256,uint256,uint8,bytes32,bytes32)":"d505accf","previewDeposit(uint256)":"ef8b30f7","previewMint(uint256)":"b3d7f6b9","previewRedeem(uint256)":"4cdad506","previewWithdraw(uint256)":"0a28a477","redeem(uint256,address,address)":"ba087652","rewardData(address)":"48e5d9f8","rewardTokens(uint256)":"7bb7bed1","scheduleUnstake(uint256)":"106d08df","scheduleWithdraw(uint256)":"cce9d801","scheduledUnstakeAmount(address)":"e031cc83","scheduledWithdrawAmount(address)":"919dd0b7","symbol()":"95d89b41","token()":"fc0c546a","totalAssets()":"01e1d114","totalSupply()":"18160ddd","transfer(address,uint256)":"a9059cbb","transferFrom(address,address,uint256)":"23b872dd","transferOwnership(address)":"f2fde38b","unstakeAmount(address)":"a209a86f","userSnapshots(address,address)":"596404bb","withdraw(uint256,address,address)":"b460af94"},"id":29}