{"abi":[{"type":"function","name":"MAX_VOTERS","inputs":[],"outputs":[{"name":"","type":"uint256","internalType":"uint256"}],"stateMutability":"view"},{"type":"function","name":"_proposals","inputs":[{"name":"","type":"bytes32","internalType":"bytes32"}],"outputs":[{"name":"_status","type":"uint8","internalType":"enum ProposalStatus"},{"name":"_yesVotes","type":"uint256","internalType":"uint256"},{"name":"_yesVotesTotal","type":"uint8","internalType":"uint8"},{"name":"_proposedBlock","type":"uint40","internalType":"uint40"}],"stateMutability":"view"},{"type":"function","name":"adminSetForwarder","inputs":[{"name":"proposalId","type":"bytes32","internalType":"bytes32"},{"name":"forwarder","type":"address","internalType":"address"},{"name":"valid","type":"bool","internalType":"bool"}],"outputs":[],"stateMutability":"nonpayable"},{"type":"function","name":"admins","inputs":[{"name":"","type":"bytes32","internalType":"bytes32"}],"outputs":[{"name":"","type":"address","internalType":"address"}],"stateMutability":"view"},{"type":"function","name":"calculatePhase1ProposalId","inputs":[{"name":"phase1JobId","type":"uint64","internalType":"uint64"},{"name":"phase1JobDetails","type":"bytes","internalType":"bytes"}],"outputs":[{"name":"","type":"bytes32","internalType":"bytes32"}],"stateMutability":"pure"},{"type":"function","name":"calculatePhase2JobHash","inputs":[{"name":"proposalId","type":"bytes32","internalType":"bytes32"},{"name":"phase2JobDetails","type":"bytes","internalType":"bytes"}],"outputs":[{"name":"","type":"bytes32","internalType":"bytes32"}],"stateMutability":"pure"},{"type":"function","name":"expiry","inputs":[{"name":"","type":"bytes32","internalType":"bytes32"}],"outputs":[{"name":"","type":"uint64","internalType":"uint64"}],"stateMutability":"view"},{"type":"function","name":"getProposalState","inputs":[{"name":"phase2JobHash","type":"bytes32","internalType":"bytes32"}],"outputs":[{"name":"","type":"uint8","internalType":"enum ProposalStatus"}],"stateMutability":"view"},{"type":"function","name":"getProposalYesVotes","inputs":[{"name":"phase2JobHash","type":"bytes32","internalType":"bytes32"}],"outputs":[{"name":"","type":"uint256","internalType":"uint256"}],"stateMutability":"view"},{"type":"function","name":"getProposalYesVotesTotal","inputs":[{"name":"phase2JobHash","type":"bytes32","internalType":"bytes32"}],"outputs":[{"name":"","type":"uint8","internalType":"uint8"}],"stateMutability":"view"},{"type":"function","name":"initialize","inputs":[{"name":"phase1JobId","type":"uint64","internalType":"uint64"},{"name":"phase1JobDetails","type":"bytes","internalType":"bytes"},{"name":"_threshold","type":"uint8","internalType":"uint8"},{"name":"_useDemocracy","type":"bool","internalType":"bool"},{"name":"_voters","type":"address[]","internalType":"address[]"},{"name":"_expiry","type":"uint64","internalType":"uint64"}],"outputs":[],"stateMutability":"nonpayable"},{"type":"function","name":"initialized","inputs":[],"outputs":[{"name":"","type":"bool","internalType":"bool"}],"stateMutability":"view"},{"type":"function","name":"isValidForwarder","inputs":[{"name":"","type":"bytes32","internalType":"bytes32"},{"name":"","type":"address","internalType":"address"}],"outputs":[{"name":"","type":"bool","internalType":"bool"}],"stateMutability":"view"},{"type":"function","name":"refreshVoters","inputs":[{"name":"phase1ProposalId","type":"bytes32","internalType":"bytes32"}],"outputs":[],"stateMutability":"nonpayable"},{"type":"function","name":"submitGovernanceProposal","inputs":[{"name":"phase1JobId","type":"uint64","internalType":"uint64"},{"name":"phase1JobDetails","type":"bytes","internalType":"bytes"},{"name":"phase2JobDetails","type":"bytes","internalType":"bytes"}],"outputs":[],"stateMutability":"nonpayable"},{"type":"function","name":"threshold","inputs":[{"name":"","type":"bytes32","internalType":"bytes32"}],"outputs":[{"name":"","type":"uint8","internalType":"uint8"}],"stateMutability":"view"},{"type":"function","name":"useDemocracy","inputs":[{"name":"","type":"bytes32","internalType":"bytes32"}],"outputs":[{"name":"","type":"bool","internalType":"bool"}],"stateMutability":"view"},{"type":"function","name":"useValidators","inputs":[{"name":"","type":"bytes32","internalType":"bytes32"}],"outputs":[{"name":"","type":"bool","internalType":"bool"}],"stateMutability":"view"},{"type":"function","name":"voteProposal","inputs":[{"name":"phase1JobId","type":"uint64","internalType":"uint64"},{"name":"phase1JobDetails","type":"bytes","internalType":"bytes"},{"name":"phase2JobDetails","type":"bytes","internalType":"bytes"}],"outputs":[],"stateMutability":"nonpayable"},{"type":"function","name":"voters","inputs":[{"name":"","type":"bytes32","internalType":"bytes32"},{"name":"","type":"uint256","internalType":"uint256"}],"outputs":[{"name":"","type":"address","internalType":"address"}],"stateMutability":"view"},{"type":"event","name":"FailedHandlerExecution","inputs":[{"name":"lowLevelData","type":"bytes","indexed":false,"internalType":"bytes"}],"anonymous":false},{"type":"event","name":"ProposalEvent","inputs":[{"name":"status","type":"uint8","indexed":false,"internalType":"enum ProposalStatus"},{"name":"proposalId","type":"bytes32","indexed":false,"internalType":"bytes32"},{"name":"phase2JobHash","type":"bytes32","indexed":false,"internalType":"bytes32"}],"anonymous":false},{"type":"event","name":"ProposalVote","inputs":[{"name":"status","type":"uint8","indexed":false,"internalType":"enum ProposalStatus"},{"name":"proposalId","type":"bytes32","indexed":false,"internalType":"bytes32"},{"name":"phase2JobHash","type":"bytes32","indexed":false,"internalType":"bytes32"}],"anonymous":false}],"bytecode":{"object":"0x6080604052348015600f57600080fd5b506116738061001f6000396000f3fe608060405234801561001057600080fd5b506004361061012c5760003560e01c80639e344fc0116100ad578063cf108ab911610071578063cf108ab9146102f1578063d079661b14610314578063d2ec5fca14610355578063ef67b8ed14610396578063f2e2af94146103a957600080fd5b80639e344fc014610272578063a0a0c51614610285578063a72cd03014610298578063a9b62d8d146102ab578063bc20f44e146102ce57600080fd5b806322b87b97116100f457806322b87b97146101f557806325605b6d1461022057806328d7fb2b146102435780633ceed692146102565780636717a3601461025f57600080fd5b80630a704f48146101315780631001d8301461016a578063158ef93e1461018b5780631b35b0cc146101a85780631cba5b04146101e0575b600080fd5b61015461013f36600461102c565b60009081526007602052604090205460ff1690565b604051610161919061107d565b60405180910390f35b61017d61017836600461115c565b6103fb565b604051908152602001610161565b6008546101989060ff1681565b6040519015158152602001610161565b6101ce6101b636600461102c565b60009081526007602052604090206002015460ff1690565b60405160ff9091168152602001610161565b6101f36101ee36600461102c565b61042f565b005b6101986102033660046111c0565b600060208181529281526040808220909352908152205460ff1681565b6101ce61022e36600461102c565b60036020526000908152604090205460ff1681565b6101f36102513660046111fc565b610474565b61017d61010081565b6101f361026d36600461131b565b6105f7565b6101f361028036600461131b565b610736565b61017d61029336600461138e565b61079d565b6101f36102a63660046113be565b6107b2565b61017d6102b936600461102c565b60009081526007602052604090206001015490565b6101986102dc36600461102c565b60066020526000908152604090205460ff1681565b6101986102ff36600461102c565b60056020526000908152604090205460ff1681565b61033d61032236600461102c565b6001602052600090815260409020546001600160a01b031681565b6040516001600160a01b039091168152602001610161565b61037e61036336600461102c565b6004602052600090815260409020546001600160401b031681565b6040516001600160401b039091168152602001610161565b61033d6103a43660046113fa565b61081e565b6103eb6103b736600461102c565b60076020526000908152604090208054600182015460029092015460ff9182169291811690610100900464ffffffffff1684565b604051610161949392919061141c565b60008282604051602001610410929190611473565b6040516020818303038152906040528051906020012090505b92915050565b60008181526001602052604090205481906001600160a01b031633146104705760405162461bcd60e51b8152600401610467906114a8565b60405180910390fd5b5050565b610100825111156104b95760405162461bcd60e51b815260206004820152600f60248201526e546f6f206d616e7920766f7465727360881b6044820152606401610467565b60085460ff16156105025760405162461bcd60e51b8152602060048201526013602482015272105b1c9958591e481a5b9a5d1a585b1a5e9959606a1b6044820152606401610467565b6008805460ff191660011790556040516000906105259088908890602001611473565b60408051808303601f190181529181528151602092830120600081815260038452828120805460ff1990811660ff8c161790915560058552838220805490911689151517905560048452828120805467ffffffffffffffff19166001600160401b038816179055600190935291208054336001600160a01b03199091161790558351909150156105d457600081815260026020908152604090912084516105ce92860190610fb2565b506105ee565b6000818152600660205260409020805460ff191660011790555b50505050505050565b6000838360405160200161060c929190611473565b604051602081830303815290604052805190602001209050600081836040516020016106399291906114e9565b60408051601f1981840301815291905280516020909101209050600360008281526007602052604090205460ff16600481111561067857610678611045565b036106c55760405162461bcd60e51b815260206004820181905260248201527f50726f706f73616c206d7573742068617665206265656e2065786563757465646044820152606401610467565b60008281526005602052604090205460ff1661072f5760405162461bcd60e51b8152602060048201526024808201527f50726f706f73616c206d75737420616c6c6f77207573696e6720676f7665726e604482015263616e636560e01b6064820152608401610467565b5050505050565b610741838383610856565b61078d5760405162461bcd60e51b815260206004820152601860248201527f50726f706f73616c206d75737420626520766f7461626c6500000000000000006044820152606401610467565b610798838383610904565b505050565b600082826040516020016104109291906114e9565b60008381526001602052604090205483906001600160a01b031633146107ea5760405162461bcd60e51b8152600401610467906114a8565b506000928352602083815260408085206001600160a01b039490941685529290529120805460ff1916911515919091179055565b6002602052816000526040600020818154811061083a57600080fd5b6000918252602090912001546001600160a01b03169150829050565b600082516000036108a95760405162461bcd60e51b815260206004820152601d60248201527f4a6f622064657461696c73206d757374206265206e6f6e2d656d7074790000006044820152606401610467565b81516000036108fa5760405162461bcd60e51b815260206004820152601d60248201527f4a6f622064657461696c73206d757374206265206e6f6e2d656d7074790000006044820152606401610467565b5060019392505050565b60008383604051602001610919929190611473565b604051602081830303815290604052805190602001209050600081836040516020016109469291906114e9565b60408051601f1981840301815291815281516020928301206000818152600790935291209091506002815460ff16600481111561098557610985611045565b0361099e5761099683878487610d7b565b505050505050565b60006109a984610e97565b825490915060019060ff1660048111156109c5576109c5611045565b1115610a1f5760405162461bcd60e51b815260206004820152602360248201527f70726f706f73616c20616c72656164792065786563757465642f63616e63656c6044820152621b195960ea1b6064820152608401610467565b610a2a848483610edf565b15610a6f5760405162461bcd60e51b81526020600482015260156024820152741c995b185e595c88185b1c9958591e481d9bdd1959605a1b6044820152606401610467565b6000825460ff166004811115610a8757610a87611045565b03610b5d576040805160808101909152806001815260006020808301829052604080840183905264ffffffffff4316606090940193909352868252600790522081518154829060ff19166001836004811115610ae557610ae5611045565b021790555060208201516001808301919091556040808401516002909301805460609095015164ffffffffff166101000265ffffffffffff1990951660ff9094169390931793909317909155905160008051602061161e83398151915291610b50918790879061150f565b60405180910390a1610bd6565b60008481526004602052604090205460028301546001600160401b0390911690610b9390610100900464ffffffffff1643611544565b64ffffffffff161115610bd657815460ff19166004908117835560405160008051602061161e83398151915291610bcd918790879061150f565b60405180910390a15b6004825460ff166004811115610bee57610bee611045565b14610cd957610bfd8482610f09565b60018301805491909117905560028201805460ff16906000610c1e83611557565b91906101000a81548160ff021916908360ff160217905550507f961015e6a4653a891033ea3ea3ce41566aad79e0097ece8cb102ae7cd135ab868260000160009054906101000a900460ff168585604051610c7b9392919061150f565b60405180910390a1600084815260036020526040902054600283015460ff918216911610610cd957815460ff19166002908117835560405160008051602061161e83398151915291610cd0918790879061150f565b60405180910390a15b60008481526007602052604090208254815484929160ff1690829060ff19166001836004811115610d0c57610d0c611045565b02179055506001828101549082015560029182018054918301805460ff19811660ff9094169384178255915464ffffffffff61010091829004160265ffffffffffff19909216909217179055825460ff166004811115610d6e57610d6e611045565b036105ee576105ee848885885b60008481526007602052604090206002815460ff166004811115610da157610da1611045565b14610dee5760405162461bcd60e51b815260206004820181905260248201527f50726f706f73616c206d757374206861766520506173736564207374617475736044820152606401610467565b60408051602081018252600081529051631075334160e01b815261081491631075334191610e29916103e89182918a918991906004016115a2565b600060405180830381600087803b158015610e4357600080fd5b505af1158015610e57573d6000803e3d6000fd5b5050825460ff19166003908117845560405160008051602061161e8339815191529350610e8892508890879061150f565b60405180910390a15050505050565b60003360143610801590610ecb57506000838152602081815260408083206001600160a01b038516845290915290205460ff165b156104295750505036601319013560601c90565b600082815260076020526040812060018101548290610efe8786610f09565b161195945050505050565b60006001610f178484610f2c565b610f219190611544565b6001901b9392505050565b6000805b600084815260026020526040902054811015610fa757600084815260026020526040902080546001600160a01b038516919083908110610f7257610f726115f4565b6000918252602090912001546001600160a01b031603610f9f57610f9781600161160a565b915050610429565b600101610f30565b506101009392505050565b828054828255906000526020600020908101928215611007579160200282015b8281111561100757825182546001600160a01b0319166001600160a01b03909116178255602090920191600190910190610fd2565b50611013929150611017565b5090565b5b808211156110135760008155600101611018565b60006020828403121561103e57600080fd5b5035919050565b634e487b7160e01b600052602160045260246000fd5b6005811061107957634e487b7160e01b600052602160045260246000fd5b9052565b60208101610429828461105b565b80356001600160401b03811681146110a257600080fd5b919050565b634e487b7160e01b600052604160045260246000fd5b604051601f8201601f191681016001600160401b03811182821017156110e5576110e56110a7565b604052919050565b600082601f8301126110fe57600080fd5b81356001600160401b03811115611117576111176110a7565b61112a601f8201601f19166020016110bd565b81815284602083860101111561113f57600080fd5b816020850160208301376000918101602001919091529392505050565b6000806040838503121561116f57600080fd5b6111788361108b565b915060208301356001600160401b0381111561119357600080fd5b61119f858286016110ed565b9150509250929050565b80356001600160a01b03811681146110a257600080fd5b600080604083850312156111d357600080fd5b823591506111e3602084016111a9565b90509250929050565b803580151581146110a257600080fd5b60008060008060008060c0878903121561121557600080fd5b61121e8761108b565b95506020808801356001600160401b038082111561123b57600080fd5b6112478b838c016110ed565b975060408a0135915060ff8216821461125f57600080fd5b81965061126e60608b016111ec565b955060808a013591508082111561128457600080fd5b818a0191508a601f83011261129857600080fd5b8135818111156112aa576112aa6110a7565b8060051b91506112bb8483016110bd565b818152918301840191848101908d8411156112d557600080fd5b938501935b838510156112fa576112eb856111a9565b825293850193908501906112da565b80975050505050505061130f60a0880161108b565b90509295509295509295565b60008060006060848603121561133057600080fd5b6113398461108b565b925060208401356001600160401b038082111561135557600080fd5b611361878388016110ed565b9350604086013591508082111561137757600080fd5b50611384868287016110ed565b9150509250925092565b600080604083850312156113a157600080fd5b8235915060208301356001600160401b0381111561119357600080fd5b6000806000606084860312156113d357600080fd5b833592506113e3602085016111a9565b91506113f1604085016111ec565b90509250925092565b6000806040838503121561140d57600080fd5b50508035926020909101359150565b6080810161142a828761105b565b84602083015260ff8416604083015264ffffffffff8316606083015295945050505050565b60005b8381101561146a578181015183820152602001611452565b50506000910152565b6001600160401b0360c01b8360c01b1681526000825161149a81600885016020870161144f565b919091016008019392505050565b60208082526021908201527f4f6e6c792061646d696e2063616e2063616c6c20746869732066756e6374696f6040820152603760f91b606082015260800190565b8281526000825161150181602085016020870161144f565b919091016020019392505050565b6060810161151d828661105b565b602082019390935260400152919050565b634e487b7160e01b600052601160045260246000fd5b818103818111156104295761042961152e565b600060ff821660ff810361156d5761156d61152e565b60010192915050565b6000815180845261158e81602086016020860161144f565b601f01601f19169290920160200192915050565b60006001600160401b038088168352808716602084015280861660408401525060a060608301526115d660a0830185611576565b82810360808401526115e88185611576565b98975050505050505050565b634e487b7160e01b600052603260045260246000fd5b808201808211156104295761042961152e56feab737635c90eb54fdb0ea02155a55603ff65ef45c987f7486d99561ff24609efa2646970667358221220aadc99cbbee3c06c1771b331f2cd8248475657995496008069070843cbc76c1664736f6c63430008190033","linkReferences":{}},"methodIdentifiers":{"MAX_VOTERS()":"3ceed692","_proposals(bytes32)":"f2e2af94","adminSetForwarder(bytes32,address,bool)":"a72cd030","admins(bytes32)":"d079661b","calculatePhase1ProposalId(uint64,bytes)":"1001d830","calculatePhase2JobHash(bytes32,bytes)":"a0a0c516","expiry(bytes32)":"d2ec5fca","getProposalState(bytes32)":"0a704f48","getProposalYesVotes(bytes32)":"a9b62d8d","getProposalYesVotesTotal(bytes32)":"1b35b0cc","initialize(uint64,bytes,uint8,bool,address[],uint64)":"28d7fb2b","initialized()":"158ef93e","isValidForwarder(bytes32,address)":"22b87b97","refreshVoters(bytes32)":"1cba5b04","submitGovernanceProposal(uint64,bytes,bytes)":"6717a360","threshold(bytes32)":"25605b6d","useDemocracy(bytes32)":"cf108ab9","useValidators(bytes32)":"bc20f44e","voteProposal(uint64,bytes,bytes)":"9e344fc0","voters(bytes32,uint256)":"ef67b8ed"},"id":25}