{"abi":[{"type":"function","name":"MAX_VOTERS","inputs":[],"outputs":[{"name":"","type":"uint256","internalType":"uint256"}],"stateMutability":"view"},{"type":"function","name":"_proposals","inputs":[{"name":"","type":"bytes32","internalType":"bytes32"}],"outputs":[{"name":"_status","type":"uint8","internalType":"enum ProposalStatus"},{"name":"_yesVotes","type":"uint256","internalType":"uint256"},{"name":"_yesVotesTotal","type":"uint8","internalType":"uint8"},{"name":"_proposedBlock","type":"uint40","internalType":"uint40"}],"stateMutability":"view"},{"type":"function","name":"adminSetForwarder","inputs":[{"name":"phase1JobId","type":"uint64","internalType":"uint64"},{"name":"forwarder","type":"address","internalType":"address"},{"name":"valid","type":"bool","internalType":"bool"}],"outputs":[],"stateMutability":"nonpayable"},{"type":"function","name":"admins","inputs":[{"name":"","type":"uint64","internalType":"uint64"}],"outputs":[{"name":"","type":"address","internalType":"address"}],"stateMutability":"view"},{"type":"function","name":"calculatePhase2JobHash","inputs":[{"name":"phase1JobId","type":"uint64","internalType":"uint64"},{"name":"phase2JobDetails","type":"bytes","internalType":"bytes"}],"outputs":[{"name":"","type":"bytes32","internalType":"bytes32"}],"stateMutability":"pure"},{"type":"function","name":"expiry","inputs":[{"name":"","type":"uint64","internalType":"uint64"}],"outputs":[{"name":"","type":"uint64","internalType":"uint64"}],"stateMutability":"view"},{"type":"function","name":"getProposalState","inputs":[{"name":"phase2JobHash","type":"bytes32","internalType":"bytes32"}],"outputs":[{"name":"","type":"uint8","internalType":"enum ProposalStatus"}],"stateMutability":"view"},{"type":"function","name":"getProposalYesVotes","inputs":[{"name":"phase2JobHash","type":"bytes32","internalType":"bytes32"}],"outputs":[{"name":"","type":"uint256","internalType":"uint256"}],"stateMutability":"view"},{"type":"function","name":"getProposalYesVotesTotal","inputs":[{"name":"phase2JobHash","type":"bytes32","internalType":"bytes32"}],"outputs":[{"name":"","type":"uint8","internalType":"uint8"}],"stateMutability":"view"},{"type":"function","name":"initialize","inputs":[{"name":"phase1JobId","type":"uint64","internalType":"uint64"},{"name":"_threshold","type":"uint8","internalType":"uint8"},{"name":"_useDemocracy","type":"bool","internalType":"bool"},{"name":"_voters","type":"address[]","internalType":"address[]"},{"name":"_expiry","type":"uint64","internalType":"uint64"},{"name":"_ttl","type":"uint64","internalType":"uint64"}],"outputs":[],"stateMutability":"nonpayable"},{"type":"function","name":"initialized","inputs":[],"outputs":[{"name":"","type":"bool","internalType":"bool"}],"stateMutability":"view"},{"type":"function","name":"isValidForwarder","inputs":[{"name":"","type":"uint64","internalType":"uint64"},{"name":"","type":"address","internalType":"address"}],"outputs":[{"name":"","type":"bool","internalType":"bool"}],"stateMutability":"view"},{"type":"function","name":"refreshVoters","inputs":[{"name":"phase1JobId","type":"uint64","internalType":"uint64"}],"outputs":[],"stateMutability":"nonpayable"},{"type":"function","name":"submitGovernanceProposal","inputs":[{"name":"phase1JobId","type":"uint64","internalType":"uint64"},{"name":"phase2JobDetails","type":"bytes","internalType":"bytes"}],"outputs":[],"stateMutability":"nonpayable"},{"type":"function","name":"threshold","inputs":[{"name":"","type":"uint64","internalType":"uint64"}],"outputs":[{"name":"","type":"uint8","internalType":"uint8"}],"stateMutability":"view"},{"type":"function","name":"ttl","inputs":[{"name":"","type":"uint64","internalType":"uint64"}],"outputs":[{"name":"","type":"uint64","internalType":"uint64"}],"stateMutability":"view"},{"type":"function","name":"useDemocracy","inputs":[{"name":"","type":"uint64","internalType":"uint64"}],"outputs":[{"name":"","type":"bool","internalType":"bool"}],"stateMutability":"view"},{"type":"function","name":"useValidators","inputs":[{"name":"","type":"uint64","internalType":"uint64"}],"outputs":[{"name":"","type":"bool","internalType":"bool"}],"stateMutability":"view"},{"type":"function","name":"voteProposal","inputs":[{"name":"phase1JobId","type":"uint64","internalType":"uint64"},{"name":"phase2JobDetails","type":"bytes","internalType":"bytes"}],"outputs":[],"stateMutability":"nonpayable"},{"type":"function","name":"voters","inputs":[{"name":"","type":"uint64","internalType":"uint64"},{"name":"","type":"uint256","internalType":"uint256"}],"outputs":[{"name":"","type":"address","internalType":"address"}],"stateMutability":"view"},{"type":"event","name":"FailedHandlerExecution","inputs":[{"name":"lowLevelData","type":"bytes","indexed":false,"internalType":"bytes"}],"anonymous":false},{"type":"event","name":"ProposalEvent","inputs":[{"name":"status","type":"uint8","indexed":false,"internalType":"enum ProposalStatus"},{"name":"phase1JobId","type":"uint64","indexed":false,"internalType":"uint64"},{"name":"phase2JobHash","type":"bytes32","indexed":false,"internalType":"bytes32"}],"anonymous":false},{"type":"event","name":"ProposalVote","inputs":[{"name":"status","type":"uint8","indexed":false,"internalType":"enum ProposalStatus"},{"name":"phase1JobId","type":"uint64","indexed":false,"internalType":"uint64"},{"name":"phase2JobHash","type":"bytes32","indexed":false,"internalType":"bytes32"}],"anonymous":false}],"bytecode":{"object":"0x6080604052348015600f57600080fd5b506115808061001f6000396000f3fe608060405234801561001057600080fd5b506004361061012c5760003560e01c80635b9a5eb7116100ad578063db56b93411610071578063db56b93414610359578063eea22ba21461036c578063f2e2af941461037f578063f768b74d146103d1578063f8d4858d146103fa57600080fd5b80635b9a5eb7146102ac57806368217337146102cf5780636a30ed1c146102e25780638a9a20931461030b578063a9b62d8d1461033657600080fd5b80631b35b0cc116100f45780631b35b0cc146101f0578063217d75ab146102165780633718acf8146102575780633ceed69214610282578063426c58631461029957600080fd5b806307ff4197146101315780630a704f481461016957806311f8dec614610199578063158ef93e146101ce57806319bddc61146101db575b600080fd5b61015461013f36600461100b565b60076020526000908152604090205460ff1681565b60405190151581526020015b60405180910390f35b61018c61017736600461102d565b60009081526008602052604090205460ff1690565b604051610160919061107e565b6101bc6101a736600461100b565b60036020526000908152604090205460ff1681565b60405160ff9091168152602001610160565b6009546101549060ff1681565b6101ee6101e936600461100b565b61040d565b005b6101bc6101fe36600461102d565b60009081526008602052604090206002015460ff1690565b61023f61022436600461100b565b6004602052600090815260409020546001600160401b031681565b6040516001600160401b039091168152602001610160565b6101546102653660046110a3565b600060208181529281526040808220909352908152205460ff1681565b61028b61010081565b604051908152602001610160565b6101ee6102a736600461111c565b61045c565b6101546102ba36600461100b565b60066020526000908152604090205460ff1681565b6101ee6102dd3660046111d1565b6104bc565b61023f6102f036600461100b565b6005602052600090815260409020546001600160401b031681565b61031e6103193660046112d9565b610641565b6040516001600160a01b039091168152602001610160565b61028b61034436600461102d565b60009081526008602052604090206001015490565b6101ee610367366004611303565b610679565b61028b61037a36600461111c565b6106fa565b6103c161038d36600461102d565b60086020526000908152604090208054600182015460029092015460ff9182169291811690610100900464ffffffffff1684565b6040516101609493929190611346565b61031e6103df36600461100b565b6001602052600090815260409020546001600160a01b031681565b6101ee61040836600461111c565b61072e565b6001600160401b03811660009081526001602052604090205481906001600160a01b031633146104585760405162461bcd60e51b815260040161044f90611379565b60405180910390fd5b5050565b6104668282610848565b6104b25760405162461bcd60e51b815260206004820152601860248201527f50726f706f73616c206d75737420626520766f7461626c650000000000000000604482015260640161044f565b61045882826108a4565b610100835111156105015760405162461bcd60e51b815260206004820152600f60248201526e546f6f206d616e7920766f7465727360881b604482015260640161044f565b60095460ff161561054a5760405162461bcd60e51b8152602060048201526013602482015272105b1c9958591e481a5b9a5d1a585b1a5e9959606a1b604482015260640161044f565b60098054600160ff1991821681179092556001600160401b0388811660009081526003602090815260408083208054861660ff8d161790556006825280832080549095168a15151790945560048152838220805467ffffffffffffffff19908116898616179091556005825284832080549091169387169390931790925592905290208054336001600160a01b0319909116179055825115610615576001600160401b0386166000908152600260209081526040909120845161060f92860190610f75565b50610639565b6001600160401b0386166000908152600760205260409020805460ff191660011790555b505050505050565b6002602052816000526040600020818154811061065d57600080fd5b6000918252602090912001546001600160a01b03169150829050565b6001600160401b03831660009081526001602052604090205483906001600160a01b031633146106bb5760405162461bcd60e51b815260040161044f90611379565b506001600160401b039092166000908152602081815260408083206001600160a01b03909416835292905220805491151560ff19909216919091179055565b6000828260405160200161070f9291906113de565b6040516020818303038152906040528051906020012090505b92915050565b600082826040516020016107439291906113de565b60408051601f1981840301815291905280516020909101209050600360008281526008602052604090205460ff16600481111561078257610782611046565b036107cf5760405162461bcd60e51b815260206004820181905260248201527f50726f706f73616c206d7573742068617665206265656e206578656375746564604482015260640161044f565b6001600160401b03831660009081526006602052604090205460ff166108435760405162461bcd60e51b8152602060048201526024808201527f50726f706f73616c206d75737420616c6c6f77207573696e6720676f7665726e604482015263616e636560e01b606482015260840161044f565b505050565b6000815160000361089b5760405162461bcd60e51b815260206004820152601d60248201527f4a6f622064657461696c73206d757374206265206e6f6e2d656d707479000000604482015260640161044f565b50600192915050565b600082826040516020016108b99291906113de565b60408051601f1981840301815291815281516020928301206000818152600890935291209091506002815460ff1660048111156108f8576108f8611046565b0361090e57610908848385610d01565b50505050565b600061091985610e3c565b825490915060019060ff16600481111561093557610935611046565b111561098f5760405162461bcd60e51b815260206004820152602360248201527f70726f706f73616c20616c72656164792065786563757465642f63616e63656c6044820152621b195960ea1b606482015260840161044f565b61099a858483610e8e565b156109df5760405162461bcd60e51b81526020600482015260156024820152741c995b185e595c88185b1c9958591e481d9bdd1959605a1b604482015260640161044f565b6000825460ff1660048111156109f7576109f7611046565b03610acd576040805160808101909152806001815260006020808301829052604080840183905264ffffffffff4316606090940193909352868252600890522081518154829060ff19166001836004811115610a5557610a55611046565b021790555060208201516001808301919091556040808401516002909301805460609095015164ffffffffff166101000265ffffffffffff1990951660ff9094169390931793909317909155905160008051602061152b83398151915291610ac09188908790611413565b60405180910390a1610b48565b6001600160401b038581166000908152600460205260409020546002840154911690610b0590610100900464ffffffffff1643611451565b64ffffffffff161115610b4857815460ff19166004908117835560405160008051602061152b83398151915291610b3f9188908790611413565b60405180910390a15b6004825460ff166004811115610b6057610b60611046565b14610c5557610b6f8582610eb8565b60018301805491909117905560028201805460ff16906000610b9083611464565b91906101000a81548160ff021916908360ff160217905550507f20ff4a81542c924d8f65d7ab8727f9e352b64f288a402ace0a5e7edb68c247db8260000160009054906101000a900460ff168685604051610bed93929190611413565b60405180910390a16001600160401b038516600090815260036020526040902054600283015460ff918216911610610c5557815460ff19166002908117835560405160008051602061152b83398151915291610c4c9188908790611413565b60405180910390a15b60008381526008602052604090208254815484929160ff1690829060ff19166001836004811115610c8857610c88611046565b02179055506001828101549082015560029182018054918301805460ff19811660ff9094169384178255915464ffffffffff61010091829004160265ffffffffffff19909216909217179055825460ff166004811115610cea57610cea611046565b03610cfa57610cfa858486610d01565b5050505050565b60008281526008602052604090206002815460ff166004811115610d2757610d27611046565b14610d745760405162461bcd60e51b815260206004820181905260248201527f50726f706f73616c206d75737420686176652050617373656420737461747573604482015260640161044f565b6001600160401b038085166000908152600460208181526040808420546005835281852054825193840183529483529051631075334160e01b815261081495631075334195610dcf95938216949116928b928a9291016114af565b600060405180830381600087803b158015610de957600080fd5b505af1158015610dfd573d6000803e3d6000fd5b5050825460ff19166003908117845560405160008051602061152b8339815191529350610e2e925087908790611413565b60405180910390a150505050565b60003360143610801590610e7a57506001600160401b0383166000908152602081815260408083206001600160a01b038516845290915290205460ff165b156107285750505036601319013560601c90565b600082815260086020526040812060018101548290610ead8786610eb8565b161195945050505050565b60006001610ec68484610edb565b610ed09190611451565b6001901b9392505050565b6000805b6001600160401b038416600090815260026020526040902054811015610f6a576001600160401b038416600090815260026020526040902080546001600160a01b038516919083908110610f3557610f35611501565b6000918252602090912001546001600160a01b031603610f6257610f5a816001611517565b915050610728565b600101610edf565b506101009392505050565b828054828255906000526020600020908101928215610fca579160200282015b82811115610fca57825182546001600160a01b0319166001600160a01b03909116178255602090920191600190910190610f95565b50610fd6929150610fda565b5090565b5b80821115610fd65760008155600101610fdb565b80356001600160401b038116811461100657600080fd5b919050565b60006020828403121561101d57600080fd5b61102682610fef565b9392505050565b60006020828403121561103f57600080fd5b5035919050565b634e487b7160e01b600052602160045260246000fd5b6005811061107a57634e487b7160e01b600052602160045260246000fd5b9052565b60208101610728828461105c565b80356001600160a01b038116811461100657600080fd5b600080604083850312156110b657600080fd5b6110bf83610fef565b91506110cd6020840161108c565b90509250929050565b634e487b7160e01b600052604160045260246000fd5b604051601f8201601f191681016001600160401b0381118282101715611114576111146110d6565b604052919050565b6000806040838503121561112f57600080fd5b61113883610fef565b91506020808401356001600160401b038082111561115557600080fd5b818601915086601f83011261116957600080fd5b81358181111561117b5761117b6110d6565b61118d601f8201601f191685016110ec565b915080825287848285010111156111a357600080fd5b80848401858401376000848284010152508093505050509250929050565b8035801515811461100657600080fd5b60008060008060008060c087890312156111ea57600080fd5b6111f387610fef565b955060208088013560ff8116811461120a57600080fd5b9550611218604089016111c1565b945060608801356001600160401b038082111561123457600080fd5b818a0191508a601f83011261124857600080fd5b81358181111561125a5761125a6110d6565b8060051b915061126b8483016110ec565b818152918301840191848101908d84111561128557600080fd5b938501935b838510156112aa5761129b8561108c565b8252938501939085019061128a565b8098505050505050506112bf60808801610fef565b91506112cd60a08801610fef565b90509295509295509295565b600080604083850312156112ec57600080fd5b6112f583610fef565b946020939093013593505050565b60008060006060848603121561131857600080fd5b61132184610fef565b925061132f6020850161108c565b915061133d604085016111c1565b90509250925092565b60808101611354828761105c565b84602083015260ff8416604083015264ffffffffff8316606083015295945050505050565b60208082526021908201527f4f6e6c792061646d696e2063616e2063616c6c20746869732066756e6374696f6040820152603760f91b606082015260800190565b60005b838110156113d55781810151838201526020016113bd565b50506000910152565b6001600160401b0360c01b8360c01b168152600082516114058160088501602087016113ba565b919091016008019392505050565b60608101611421828661105c565b6001600160401b0393909316602082015260400152919050565b634e487b7160e01b600052601160045260246000fd5b818103818111156107285761072861143b565b600060ff821660ff810361147a5761147a61143b565b60010192915050565b6000815180845261149b8160208601602086016113ba565b601f01601f19169290920160200192915050565b60006001600160401b038088168352808716602084015280861660408401525060a060608301526114e360a0830185611483565b82810360808401526114f58185611483565b98975050505050505050565b634e487b7160e01b600052603260045260246000fd5b808201808211156107285761072861143b56fe1da747736e36d4b28919e58cfcb847754a7604d8afb51c6123b35214eee0b48ba26469706673582212205513ab92e5f3e7b9830a1c5dc0b06ceb3ed61b23ee9454b5437b8396b09ad52c64736f6c63430008190033","linkReferences":{}},"methodIdentifiers":{"MAX_VOTERS()":"3ceed692","_proposals(bytes32)":"f2e2af94","adminSetForwarder(uint64,address,bool)":"db56b934","admins(uint64)":"f768b74d","calculatePhase2JobHash(uint64,bytes)":"eea22ba2","expiry(uint64)":"217d75ab","getProposalState(bytes32)":"0a704f48","getProposalYesVotes(bytes32)":"a9b62d8d","getProposalYesVotesTotal(bytes32)":"1b35b0cc","initialize(uint64,uint8,bool,address[],uint64,uint64)":"68217337","initialized()":"158ef93e","isValidForwarder(uint64,address)":"3718acf8","refreshVoters(uint64)":"19bddc61","submitGovernanceProposal(uint64,bytes)":"f8d4858d","threshold(uint64)":"11f8dec6","ttl(uint64)":"6a30ed1c","useDemocracy(uint64)":"5b9a5eb7","useValidators(uint64)":"07ff4197","voteProposal(uint64,bytes)":"426c5863","voters(uint64,uint256)":"8a9a2093"},"id":25}