{"abi":[{"type":"function","name":"ROOT_CHAIN","inputs":[],"outputs":[{"name":"","type":"address","internalType":"address"}],"stateMutability":"view"},{"type":"function","name":"blueprintOperators","inputs":[{"name":"","type":"uint256","internalType":"uint256"}],"outputs":[{"name":"addr","type":"address","internalType":"address"},{"name":"publicKey","type":"bytes","internalType":"bytes"}],"stateMutability":"view"},{"type":"function","name":"keygens","inputs":[{"name":"","type":"uint64","internalType":"uint64"},{"name":"","type":"uint64","internalType":"uint64"}],"outputs":[{"name":"","type":"uint8","internalType":"uint8"}],"stateMutability":"view"},{"type":"function","name":"onJobCall","inputs":[{"name":"serviceId","type":"uint64","internalType":"uint64"},{"name":"job","type":"uint8","internalType":"uint8"},{"name":"jobCallId","type":"uint64","internalType":"uint64"},{"name":"inputs","type":"bytes","internalType":"bytes"}],"outputs":[],"stateMutability":"payable"},{"type":"function","name":"onJobResult","inputs":[{"name":"serviceId","type":"uint64","internalType":"uint64"},{"name":"job","type":"uint8","internalType":"uint8"},{"name":"jobCallId","type":"uint64","internalType":"uint64"},{"name":"participant","type":"bytes","internalType":"bytes"},{"name":"inputs","type":"bytes","internalType":"bytes"},{"name":"outputs","type":"bytes","internalType":"bytes"}],"outputs":[],"stateMutability":"payable"},{"type":"function","name":"onRegister","inputs":[{"name":"operator","type":"bytes","internalType":"bytes"},{"name":"registrationInputs","type":"bytes","internalType":"bytes"}],"outputs":[],"stateMutability":"payable"},{"type":"function","name":"onRequest","inputs":[{"name":"serviceId","type":"uint64","internalType":"uint64"},{"name":"operators","type":"bytes[]","internalType":"bytes[]"},{"name":"requestInputs","type":"bytes","internalType":"bytes"}],"outputs":[],"stateMutability":"payable"},{"type":"function","name":"onSlash","inputs":[{"name":"serviceId","type":"uint64","internalType":"uint64"},{"name":"offender","type":"bytes","internalType":"bytes"},{"name":"slashPercent","type":"uint8","internalType":"uint8"},{"name":"totalPayout","type":"uint256","internalType":"uint256"}],"outputs":[],"stateMutability":"nonpayable"},{"type":"function","name":"onUnappliedSlash","inputs":[{"name":"serviceId","type":"uint64","internalType":"uint64"},{"name":"offender","type":"bytes","internalType":"bytes"},{"name":"slashPercent","type":"uint8","internalType":"uint8"},{"name":"totalPayout","type":"uint256","internalType":"uint256"}],"outputs":[],"stateMutability":"nonpayable"},{"type":"function","name":"operatorAddressFromPublicKey","inputs":[{"name":"publicKey","type":"bytes","internalType":"bytes"}],"outputs":[{"name":"","type":"address","internalType":"address"}],"stateMutability":"pure"},{"type":"function","name":"queryDisputeOrigin","inputs":[{"name":"serviceId","type":"uint64","internalType":"uint64"}],"outputs":[{"name":"disputeOrigin","type":"address","internalType":"address"}],"stateMutability":"view"},{"type":"function","name":"querySlashingOrigin","inputs":[{"name":"serviceId","type":"uint64","internalType":"uint64"}],"outputs":[{"name":"slashingOrigin","type":"address","internalType":"address"}],"stateMutability":"view"},{"type":"function","name":"services","inputs":[{"name":"","type":"uint64","internalType":"uint64"}],"outputs":[{"name":"id","type":"uint64","internalType":"uint64"}],"stateMutability":"view"},{"type":"error","name":"InvalidDKGThreshold","inputs":[]},{"type":"error","name":"InvalidJob","inputs":[]},{"type":"error","name":"InvalidRequestInputs","inputs":[]},{"type":"error","name":"KeygenJobNotFound","inputs":[]}],"bytecode":{"object":"0x6080604052348015600f57600080fd5b50610e7c8061001f6000396000f3fe6080604052600436106100c25760003560e01c8063884673ac1161007f578063d32e11e211610059578063d32e11e21461021d578063d4e5fe2714610230578063e40b0d491461025e578063e926cbd1146100c757600080fd5b8063884673ac146101d45780639838caa3146101f7578063a7c66f861461020a57600080fd5b80630af7d743146100c757806314b4df4c146100e957806334a324e41461012657806356270e17146101735780636dfee236146101c157806374ceeb55146100e9575b600080fd5b3480156100d357600080fd5b506100e76100e236600461081d565b61027e565b005b3480156100f557600080fd5b50610109610104366004610889565b503090565b6040516001600160a01b0390911681526020015b60405180910390f35b34801561013257600080fd5b506101616101413660046108ab565b600160209081526000928352604080842090915290825290205460ff1681565b60405160ff909116815260200161011d565b34801561017f57600080fd5b506101a961018e366004610889565b6002602052600090815260409020546001600160401b031681565b6040516001600160401b03909116815260200161011d565b6100e76101cf3660046108de565b6102bc565b3480156101e057600080fd5b506101096b6d6f646c70792f737276637360401b81565b6100e761020536600461098f565b610446565b6100e76102183660046109f3565b6105a3565b6100e761022b366004610a5e565b61068b565b34801561023c57600080fd5b5061025061024b366004610b2b565b6106c4565b60405161011d929190610b44565b34801561026a57600080fd5b50610109610279366004610ba3565b610786565b336b6d6f646c70792f737276637360401b146102b55760405162461bcd60e51b81526004016102ac90610be4565b60405180910390fd5b5050505050565b336b6d6f646c70792f737276637360401b146102ea5760405162461bcd60e51b81526004016102ac90610be4565b80156103095760405163702e9b1960e11b815260040160405180910390fd5b6001600160401b0385166000818152600260205260408120805467ffffffffffffffff191690921782555b8481101561043d57600061036587878481811061035357610353610c35565b90506020028101906102799190610c4b565b9050826001016040518060400160405280836001600160a01b0316815260200189898681811061039757610397610c35565b90506020028101906103a99190610c4b565b8080601f0160208091040260200160405190810160405280939291908181526020018383808284376000920182905250939094525050835460018082018655948252602091829020845160029092020180546001600160a01b0319166001600160a01b039092169190911781559083015192939092908301915061042d9082610d32565b5050600190920191506103349050565b50505050505050565b336b6d6f646c70792f737276637360401b146104745760405162461bcd60e51b81526004016102ac90610be4565b60ff841661051657600061048a82840184610df1565b6001600160401b03871660009081526002602052604090206001015490915060ff821615806104bb5750808260ff16115b156104d95760405163b65cad8d60e01b815260040160405180910390fd5b506001600160401b038681166000908152600160209081526040808320938816835292905220805460ff191660ff929092169190911790556102b5565b60001960ff85160161058a5760008061053183850185610e0c565b6001600160401b03808a16600090815260016020908152604080832093861683529290529081205492945090925060ff90911690036105835760405163648bd07f60e11b815260040160405180910390fd5b50506102b5565b60405163038e47a360e51b815260040160405180910390fd5b336b6d6f646c70792f737276637360401b146105d15760405162461bcd60e51b81526004016102ac90610be4565b60006105dd8585610786565b905060006040518060400160405280836001600160a01b0316815260200187878080601f0160208091040260200160405190810160405280939291908181526020018383808284376000920182905250939094525050835460018082018655948252602091829020845160029092020180546001600160a01b0319166001600160a01b03909216919091178155908301519293909290830191506106819082610d32565b5050505050505050565b336b6d6f646c70792f737276637360401b146106b95760405162461bcd60e51b81526004016102ac90610be4565b505050505050505050565b600081815481106106d457600080fd5b6000918252602090912060029091020180546001820180546001600160a01b0390921693509061070390610ca7565b80601f016020809104026020016040519081016040528092919081815260200182805461072f90610ca7565b801561077c5780601f106107515761010080835404028352916020019161077c565b820191906000526020600020905b81548152906001019060200180831161075f57829003601f168201915b5050505050905082565b60008282604051610798929190610e36565b6040519081900390209392505050565b80356001600160401b03811681146107bf57600080fd5b919050565b60008083601f8401126107d657600080fd5b5081356001600160401b038111156107ed57600080fd5b60208301915083602082850101111561080557600080fd5b9250929050565b803560ff811681146107bf57600080fd5b60008060008060006080868803121561083557600080fd5b61083e866107a8565b945060208601356001600160401b0381111561085957600080fd5b610865888289016107c4565b909550935061087890506040870161080c565b949793965091946060013592915050565b60006020828403121561089b57600080fd5b6108a4826107a8565b9392505050565b600080604083850312156108be57600080fd5b6108c7836107a8565b91506108d5602084016107a8565b90509250929050565b6000806000806000606086880312156108f657600080fd5b6108ff866107a8565b945060208601356001600160401b038082111561091b57600080fd5b818801915088601f83011261092f57600080fd5b81358181111561093e57600080fd5b8960208260051b850101111561095357600080fd5b60208301965080955050604088013591508082111561097157600080fd5b5061097e888289016107c4565b969995985093965092949392505050565b6000806000806000608086880312156109a757600080fd5b6109b0866107a8565b94506109be6020870161080c565b93506109cc604087016107a8565b925060608601356001600160401b038111156109e757600080fd5b61097e888289016107c4565b60008060008060408587031215610a0957600080fd5b84356001600160401b0380821115610a2057600080fd5b610a2c888389016107c4565b90965094506020870135915080821115610a4557600080fd5b50610a52878288016107c4565b95989497509550505050565b600080600080600080600080600060c08a8c031215610a7c57600080fd5b610a858a6107a8565b9850610a9360208b0161080c565b9750610aa160408b016107a8565b965060608a01356001600160401b0380821115610abd57600080fd5b610ac98d838e016107c4565b909850965060808c0135915080821115610ae257600080fd5b610aee8d838e016107c4565b909650945060a08c0135915080821115610b0757600080fd5b50610b148c828d016107c4565b915080935050809150509295985092959850929598565b600060208284031215610b3d57600080fd5b5035919050565b60018060a01b03831681526000602060406020840152835180604085015260005b81811015610b8157858101830151858201606001528201610b65565b506000606082860101526060601f19601f830116850101925050509392505050565b60008060208385031215610bb657600080fd5b82356001600160401b03811115610bcc57600080fd5b610bd8858286016107c4565b90969095509350505050565b60208082526031908201527f526f6f74436861696e3a204f6e6c7920726f6f7420636861696e2063616e206360408201527030b636103a3434b990333ab731ba34b7b760791b606082015260800190565b634e487b7160e01b600052603260045260246000fd5b6000808335601e19843603018112610c6257600080fd5b8301803591506001600160401b03821115610c7c57600080fd5b60200191503681900382131561080557600080fd5b634e487b7160e01b600052604160045260246000fd5b600181811c90821680610cbb57607f821691505b602082108103610cdb57634e487b7160e01b600052602260045260246000fd5b50919050565b601f821115610d2d576000816000526020600020601f850160051c81016020861015610d0a5750805b601f850160051c820191505b81811015610d2957828155600101610d16565b5050505b505050565b81516001600160401b03811115610d4b57610d4b610c91565b610d5f81610d598454610ca7565b84610ce1565b602080601f831160018114610d945760008415610d7c5750858301515b600019600386901b1c1916600185901b178555610d29565b600085815260208120601f198616915b82811015610dc357888601518255948401946001909101908401610da4565b5085821015610de15787850151600019600388901b60f8161c191681555b5050505050600190811b01905550565b600060208284031215610e0357600080fd5b6108a48261080c565b60008060408385031215610e1f57600080fd5b610e28836107a8565b946020939093013593505050565b818382376000910190815291905056fea264697066735822122055f3e02035080f611479594acd7a82f0f041619f35935466925bece4c675178164736f6c63430008190033","linkReferences":{}},"methodIdentifiers":{"ROOT_CHAIN()":"884673ac","blueprintOperators(uint256)":"d4e5fe27","keygens(uint64,uint64)":"34a324e4","onJobCall(uint64,uint8,uint64,bytes)":"9838caa3","onJobResult(uint64,uint8,uint64,bytes,bytes,bytes)":"d32e11e2","onRegister(bytes,bytes)":"a7c66f86","onRequest(uint64,bytes[],bytes)":"6dfee236","onSlash(uint64,bytes,uint8,uint256)":"0af7d743","onUnappliedSlash(uint64,bytes,uint8,uint256)":"e926cbd1","operatorAddressFromPublicKey(bytes)":"e40b0d49","queryDisputeOrigin(uint64)":"14b4df4c","querySlashingOrigin(uint64)":"74ceeb55","services(uint64)":"56270e17"},"id":28}