{"abi":[{"type":"function","name":"getRuntimeAddress","inputs":[],"outputs":[{"name":"","type":"address","internalType":"address"}],"stateMutability":"pure"},{"type":"function","name":"onRegister","inputs":[{"name":"participant","type":"bytes","internalType":"bytes"},{"name":"registrationInputs","type":"bytes","internalType":"bytes"}],"outputs":[],"stateMutability":"payable"},{"type":"function","name":"participants","inputs":[{"name":"","type":"uint256","internalType":"uint256"}],"outputs":[{"name":"addr","type":"address","internalType":"address"},{"name":"publicKey","type":"bytes","internalType":"bytes"}],"stateMutability":"view"},{"type":"error","name":"InvalidRegistrationInputs","inputs":[]}],"bytecode":{"object":"0x6080604052348015600f57600080fd5b5061058d8061001f6000396000f3fe6080604052600436106100345760003560e01c806312532e451461003957806335c1d34914610068578063a7c66f8614610096575b600080fd5b34801561004557600080fd5b506040516b6d6f646c70792f736572767360401b81526020015b60405180910390f35b34801561007457600080fd5b506100886100833660046102b9565b6100ab565b60405161005f9291906102d2565b6100a96100a4366004610378565b61016d565b005b600081815481106100bb57600080fd5b6000918252602090912060029091020180546001820180546001600160a01b039092169350906100ea906103e9565b80601f0160208091040260200160405190810160405280929190818152602001828054610116906103e9565b80156101635780601f1061013857610100808354040283529160200191610163565b820191906000526020600020905b81548152906001019060200180831161014657829003601f168201915b5050505050905082565b336b6d6f646c70792f736572767360401b146101cf5760405162461bcd60e51b815260206004820152601b60248201527f416363657373436f6e74726f6c3a204f6e6c792052756e74696d650000000000604482015260640160405180910390fd5b80156101ee57604051635395c50960e01b815260040160405180910390fd5b60008484604051610200929190610423565b604051809103902060001c905060006040518060400160405280836001600160a01b0316815260200187878080601f0160208091040260200160405190810160405280939291908181526020018383808284376000920182905250939094525050835460018082018655948252602091829020845160029092020180546001600160a01b0319166001600160a01b03909216919091178155908301519293909290830191506102af9082610498565b5050505050505050565b6000602082840312156102cb57600080fd5b5035919050565b60018060a01b0383168152604060208201526000825180604084015260005b8181101561030e57602081860181015160608684010152016102f1565b506000606082850101526060601f19601f8301168401019150509392505050565b60008083601f84011261034157600080fd5b50813567ffffffffffffffff81111561035957600080fd5b60208301915083602082850101111561037157600080fd5b9250929050565b6000806000806040858703121561038e57600080fd5b843567ffffffffffffffff8111156103a557600080fd5b6103b18782880161032f565b909550935050602085013567ffffffffffffffff8111156103d157600080fd5b6103dd8782880161032f565b95989497509550505050565b600181811c908216806103fd57607f821691505b60208210810361041d57634e487b7160e01b600052602260045260246000fd5b50919050565b8183823760009101908152919050565b634e487b7160e01b600052604160045260246000fd5b601f82111561049357806000526020600020601f840160051c810160208510156104705750805b601f840160051c820191505b81811015610490576000815560010161047c565b50505b505050565b815167ffffffffffffffff8111156104b2576104b2610433565b6104c6816104c084546103e9565b84610449565b6020601f8211600181146104fa57600083156104e25750848201515b600019600385901b1c1916600184901b178455610490565b600084815260208120601f198516915b8281101561052a578785015182556020948501946001909201910161050a565b50848210156105485786840151600019600387901b60f8161c191681555b50505050600190811b0190555056fea26469706673582212207d23867bb212883e6417d511e639b9fb78a7edf59ad6f00e1210115b55b75bfc64736f6c634300081a0033","linkReferences":{}},"methodIdentifiers":{"getRuntimeAddress()":"12532e45","onRegister(bytes,bytes)":"a7c66f86","participants(uint256)":"35c1d349"},"id":26}