{"abi":[{"type":"function","name":"ROOT_CHAIN","inputs":[],"outputs":[{"name":"","type":"address","internalType":"address"}],"stateMutability":"view"},{"type":"function","name":"onApprove","inputs":[{"name":"operator","type":"tuple","internalType":"struct IBlueprintServiceManager.OperatorPreferences","components":[{"name":"ecdsaPublicKey","type":"bytes","internalType":"bytes"},{"name":"priceTargets","type":"tuple","internalType":"struct IBlueprintServiceManager.PriceTargets","components":[{"name":"cpu","type":"uint64","internalType":"uint64"},{"name":"mem","type":"uint64","internalType":"uint64"},{"name":"storage_hdd","type":"uint64","internalType":"uint64"},{"name":"storage_ssd","type":"uint64","internalType":"uint64"},{"name":"storage_nvme","type":"uint64","internalType":"uint64"}]}]},{"name":"requestId","type":"uint64","internalType":"uint64"},{"name":"restakingPercent","type":"uint8","internalType":"uint8"}],"outputs":[],"stateMutability":"payable"},{"type":"function","name":"onJobCall","inputs":[{"name":"serviceId","type":"uint64","internalType":"uint64"},{"name":"job","type":"uint8","internalType":"uint8"},{"name":"jobCallId","type":"uint64","internalType":"uint64"},{"name":"inputs","type":"bytes","internalType":"bytes"}],"outputs":[],"stateMutability":"payable"},{"type":"function","name":"onJobResult","inputs":[{"name":"serviceId","type":"uint64","internalType":"uint64"},{"name":"job","type":"uint8","internalType":"uint8"},{"name":"jobCallId","type":"uint64","internalType":"uint64"},{"name":"participant","type":"bytes","internalType":"bytes"},{"name":"inputs","type":"bytes","internalType":"bytes"},{"name":"outputs","type":"bytes","internalType":"bytes"}],"outputs":[],"stateMutability":"payable"},{"type":"function","name":"onRegister","inputs":[{"name":"operator","type":"tuple","internalType":"struct IBlueprintServiceManager.OperatorPreferences","components":[{"name":"ecdsaPublicKey","type":"bytes","internalType":"bytes"},{"name":"priceTargets","type":"tuple","internalType":"struct IBlueprintServiceManager.PriceTargets","components":[{"name":"cpu","type":"uint64","internalType":"uint64"},{"name":"mem","type":"uint64","internalType":"uint64"},{"name":"storage_hdd","type":"uint64","internalType":"uint64"},{"name":"storage_ssd","type":"uint64","internalType":"uint64"},{"name":"storage_nvme","type":"uint64","internalType":"uint64"}]}]},{"name":"registrationInputs","type":"bytes","internalType":"bytes"}],"outputs":[],"stateMutability":"payable"},{"type":"function","name":"onReject","inputs":[{"name":"operator","type":"tuple","internalType":"struct IBlueprintServiceManager.OperatorPreferences","components":[{"name":"ecdsaPublicKey","type":"bytes","internalType":"bytes"},{"name":"priceTargets","type":"tuple","internalType":"struct IBlueprintServiceManager.PriceTargets","components":[{"name":"cpu","type":"uint64","internalType":"uint64"},{"name":"mem","type":"uint64","internalType":"uint64"},{"name":"storage_hdd","type":"uint64","internalType":"uint64"},{"name":"storage_ssd","type":"uint64","internalType":"uint64"},{"name":"storage_nvme","type":"uint64","internalType":"uint64"}]}]},{"name":"requestId","type":"uint64","internalType":"uint64"}],"outputs":[],"stateMutability":"nonpayable"},{"type":"function","name":"onRequest","inputs":[{"name":"requestId","type":"uint64","internalType":"uint64"},{"name":"requester","type":"address","internalType":"address"},{"name":"operators","type":"tuple[]","internalType":"struct IBlueprintServiceManager.OperatorPreferences[]","components":[{"name":"ecdsaPublicKey","type":"bytes","internalType":"bytes"},{"name":"priceTargets","type":"tuple","internalType":"struct IBlueprintServiceManager.PriceTargets","components":[{"name":"cpu","type":"uint64","internalType":"uint64"},{"name":"mem","type":"uint64","internalType":"uint64"},{"name":"storage_hdd","type":"uint64","internalType":"uint64"},{"name":"storage_ssd","type":"uint64","internalType":"uint64"},{"name":"storage_nvme","type":"uint64","internalType":"uint64"}]}]},{"name":"requestInputs","type":"bytes","internalType":"bytes"},{"name":"permittedCallers","type":"address[]","internalType":"address[]"},{"name":"ttl","type":"uint64","internalType":"uint64"}],"outputs":[],"stateMutability":"payable"},{"type":"function","name":"onServiceInitialized","inputs":[{"name":"requestId","type":"uint64","internalType":"uint64"},{"name":"serviceId","type":"uint64","internalType":"uint64"},{"name":"owner","type":"address","internalType":"address"},{"name":"permittedCallers","type":"address[]","internalType":"address[]"},{"name":"ttl","type":"uint64","internalType":"uint64"}],"outputs":[],"stateMutability":"nonpayable"},{"type":"function","name":"onServiceTermination","inputs":[{"name":"serviceId","type":"uint64","internalType":"uint64"},{"name":"owner","type":"address","internalType":"address"}],"outputs":[],"stateMutability":"nonpayable"},{"type":"function","name":"onSlash","inputs":[{"name":"serviceId","type":"uint64","internalType":"uint64"},{"name":"offender","type":"bytes","internalType":"bytes"},{"name":"slashPercent","type":"uint8","internalType":"uint8"},{"name":"totalPayout","type":"uint256","internalType":"uint256"}],"outputs":[],"stateMutability":"nonpayable"},{"type":"function","name":"onUnappliedSlash","inputs":[{"name":"serviceId","type":"uint64","internalType":"uint64"},{"name":"offender","type":"bytes","internalType":"bytes"},{"name":"slashPercent","type":"uint8","internalType":"uint8"},{"name":"totalPayout","type":"uint256","internalType":"uint256"}],"outputs":[],"stateMutability":"nonpayable"},{"type":"function","name":"onUnregister","inputs":[{"name":"operator","type":"tuple","internalType":"struct IBlueprintServiceManager.OperatorPreferences","components":[{"name":"ecdsaPublicKey","type":"bytes","internalType":"bytes"},{"name":"priceTargets","type":"tuple","internalType":"struct IBlueprintServiceManager.PriceTargets","components":[{"name":"cpu","type":"uint64","internalType":"uint64"},{"name":"mem","type":"uint64","internalType":"uint64"},{"name":"storage_hdd","type":"uint64","internalType":"uint64"},{"name":"storage_ssd","type":"uint64","internalType":"uint64"},{"name":"storage_nvme","type":"uint64","internalType":"uint64"}]}]}],"outputs":[],"stateMutability":"nonpayable"},{"type":"function","name":"onUpdatePriceTargets","inputs":[{"name":"operator","type":"tuple","internalType":"struct IBlueprintServiceManager.OperatorPreferences","components":[{"name":"ecdsaPublicKey","type":"bytes","internalType":"bytes"},{"name":"priceTargets","type":"tuple","internalType":"struct IBlueprintServiceManager.PriceTargets","components":[{"name":"cpu","type":"uint64","internalType":"uint64"},{"name":"mem","type":"uint64","internalType":"uint64"},{"name":"storage_hdd","type":"uint64","internalType":"uint64"},{"name":"storage_ssd","type":"uint64","internalType":"uint64"},{"name":"storage_nvme","type":"uint64","internalType":"uint64"}]}]}],"outputs":[],"stateMutability":"payable"},{"type":"function","name":"queryDisputeOrigin","inputs":[{"name":"","type":"uint64","internalType":"uint64"}],"outputs":[{"name":"disputeOrigin","type":"address","internalType":"address"}],"stateMutability":"view"},{"type":"function","name":"querySlashingOrigin","inputs":[{"name":"","type":"uint64","internalType":"uint64"}],"outputs":[{"name":"slashingOrigin","type":"address","internalType":"address"}],"stateMutability":"view"},{"type":"function","name":"rootChain","inputs":[],"outputs":[{"name":"rootChainAddress","type":"address","internalType":"address"}],"stateMutability":"pure"}],"bytecode":{"object":"0x608060405234801561001057600080fd5b506109c7806100206000396000f3fe6080604052600436106100f35760003560e01c8063987ab9db1161008a578063d32e11e211610059578063d32e11e214610242578063d7deb48214610250578063e926cbd1146100f8578063fe0dd3711461027057600080fd5b8063987ab9db146101df5780639d0410ee14610206578063a24e8a9014610219578063bb43abd91461023457600080fd5b806374ceeb55116100c657806374ceeb551461011a578063821c7be214610189578063884673ac146101a95780639838caa3146101d157600080fd5b80630af7d743146100f857806314b4df4c1461011a578063434698bb1461015657806365ce59fa14610176575b600080fd5b34801561010457600080fd5b50610118610113366004610456565b61027e565b005b34801561012657600080fd5b5061013a6101353660046104c3565b503090565b6040516001600160a01b03909116815260200160405180910390f35b34801561016257600080fd5b506101186101713660046104fd565b6102c1565b610118610184366004610596565b6102f7565b34801561019557600080fd5b506101186101a4366004610661565b610335565b3480156101b557600080fd5b5061013a73111111111111111111111111111111111111111181565b6101186101133660046106af565b3480156101eb57600080fd5b5073111111111111111111111111111111111111111161013a565b610118610214366004610725565b61036c565b34801561022557600080fd5b506101186101a436600461078e565b6101186102143660046107b8565b610118610184366004610816565b34801561025c57600080fd5b5061011861026b3660046108e4565b6103a4565b6101186101713660046104fd565b33731111111111111111111111111111111111111111146102ba5760405162461bcd60e51b81526004016102b190610969565b60405180910390fd5b5050505050565b33731111111111111111111111111111111111111111146102f45760405162461bcd60e51b81526004016102b190610969565b50565b337311111111111111111111111111111111111111111461032a5760405162461bcd60e51b81526004016102b190610969565b505050505050505050565b33731111111111111111111111111111111111111111146103685760405162461bcd60e51b81526004016102b190610969565b5050565b337311111111111111111111111111111111111111111461039f5760405162461bcd60e51b81526004016102b190610969565b505050565b33731111111111111111111111111111111111111111146103d75760405162461bcd60e51b81526004016102b190610969565b505050505050565b803567ffffffffffffffff811681146103f757600080fd5b919050565b60008083601f84011261040e57600080fd5b50813567ffffffffffffffff81111561042657600080fd5b60208301915083602082850101111561043e57600080fd5b9250929050565b803560ff811681146103f757600080fd5b60008060008060006080868803121561046e57600080fd5b610477866103df565b9450602086013567ffffffffffffffff81111561049357600080fd5b61049f888289016103fc565b90955093506104b2905060408701610445565b949793965091946060013592915050565b6000602082840312156104d557600080fd5b6104de826103df565b9392505050565b600060c082840312156104f757600080fd5b50919050565b60006020828403121561050f57600080fd5b813567ffffffffffffffff81111561052657600080fd5b610532848285016104e5565b949350505050565b80356001600160a01b03811681146103f757600080fd5b60008083601f84011261056357600080fd5b50813567ffffffffffffffff81111561057b57600080fd5b6020830191508360208260051b850101111561043e57600080fd5b600080600080600080600080600060c08a8c0312156105b457600080fd5b6105bd8a6103df565b98506105cb60208b0161053a565b975060408a013567ffffffffffffffff808211156105e857600080fd5b6105f48d838e01610551565b909950975060608c013591508082111561060d57600080fd5b6106198d838e016103fc565b909750955060808c013591508082111561063257600080fd5b5061063f8c828d01610551565b9094509250610652905060a08b016103df565b90509295985092959850929598565b6000806040838503121561067457600080fd5b823567ffffffffffffffff81111561068b57600080fd5b610697858286016104e5565b9250506106a6602084016103df565b90509250929050565b6000806000806000608086880312156106c757600080fd5b6106d0866103df565b94506106de60208701610445565b93506106ec604087016103df565b9250606086013567ffffffffffffffff81111561070857600080fd5b610714888289016103fc565b969995985093965092949392505050565b60008060006040848603121561073a57600080fd5b833567ffffffffffffffff8082111561075257600080fd5b61075e878388016104e5565b9450602086013591508082111561077457600080fd5b50610781868287016103fc565b9497909650939450505050565b600080604083850312156107a157600080fd5b6107aa836103df565b91506106a66020840161053a565b6000806000606084860312156107cd57600080fd5b833567ffffffffffffffff8111156107e457600080fd5b6107f0868287016104e5565b9350506107ff602085016103df565b915061080d60408501610445565b90509250925092565b600080600080600080600080600060c08a8c03121561083457600080fd5b61083d8a6103df565b985061084b60208b01610445565b975061085960408b016103df565b965060608a013567ffffffffffffffff8082111561087657600080fd5b6108828d838e016103fc565b909850965060808c013591508082111561089b57600080fd5b6108a78d838e016103fc565b909650945060a08c01359150808211156108c057600080fd5b506108cd8c828d016103fc565b915080935050809150509295985092959850929598565b60008060008060008060a087890312156108fd57600080fd5b610906876103df565b9550610914602088016103df565b94506109226040880161053a565b9350606087013567ffffffffffffffff81111561093e57600080fd5b61094a89828a01610551565b909450925061095d9050608088016103df565b90509295509295509295565b60208082526031908201527f526f6f74436861696e3a204f6e6c7920726f6f7420636861696e2063616e206360408201527030b636103a3434b990333ab731ba34b7b760791b60608201526080019056fea164736f6c6343000813000a","linkReferences":{}},"methodIdentifiers":{"ROOT_CHAIN()":"884673ac","onApprove((bytes,(uint64,uint64,uint64,uint64,uint64)),uint64,uint8)":"bb43abd9","onJobCall(uint64,uint8,uint64,bytes)":"9838caa3","onJobResult(uint64,uint8,uint64,bytes,bytes,bytes)":"d32e11e2","onRegister((bytes,(uint64,uint64,uint64,uint64,uint64)),bytes)":"9d0410ee","onReject((bytes,(uint64,uint64,uint64,uint64,uint64)),uint64)":"821c7be2","onRequest(uint64,address,(bytes,(uint64,uint64,uint64,uint64,uint64))[],bytes,address[],uint64)":"65ce59fa","onServiceInitialized(uint64,uint64,address,address[],uint64)":"d7deb482","onServiceTermination(uint64,address)":"a24e8a90","onSlash(uint64,bytes,uint8,uint256)":"0af7d743","onUnappliedSlash(uint64,bytes,uint8,uint256)":"e926cbd1","onUnregister((bytes,(uint64,uint64,uint64,uint64,uint64)))":"434698bb","onUpdatePriceTargets((bytes,(uint64,uint64,uint64,uint64,uint64)))":"fe0dd371","queryDisputeOrigin(uint64)":"14b4df4c","querySlashingOrigin(uint64)":"74ceeb55","rootChain()":"987ab9db"},"id":0}