{"abi":[{"type":"function","name":"getRuntimeAddress","inputs":[],"outputs":[{"name":"","type":"address","internalType":"address"}],"stateMutability":"pure"},{"type":"function","name":"keygens","inputs":[{"name":"","type":"uint64","internalType":"uint64"},{"name":"","type":"uint64","internalType":"uint64"}],"outputs":[{"name":"","type":"uint8","internalType":"uint8"}],"stateMutability":"view"},{"type":"function","name":"onJobCall","inputs":[{"name":"serviceId","type":"uint64","internalType":"uint64"},{"name":"job","type":"uint8","internalType":"uint8"},{"name":"jobCallId","type":"uint64","internalType":"uint64"},{"name":"inputs","type":"bytes","internalType":"bytes"}],"outputs":[],"stateMutability":"payable"},{"type":"function","name":"onRequest","inputs":[{"name":"serviceId","type":"uint64","internalType":"uint64"},{"name":"participants","type":"bytes[]","internalType":"bytes[]"},{"name":"requestInputs","type":"bytes","internalType":"bytes"}],"outputs":[],"stateMutability":"payable"},{"type":"function","name":"services","inputs":[{"name":"","type":"uint64","internalType":"uint64"}],"outputs":[{"name":"id","type":"uint64","internalType":"uint64"}],"stateMutability":"view"},{"type":"error","name":"InvalidDKGThreshold","inputs":[]},{"type":"error","name":"InvalidJob","inputs":[]},{"type":"error","name":"InvalidRequestInputs","inputs":[]},{"type":"error","name":"KeygenJobNotFound","inputs":[]}],"bytecode":{"object":"0x6080604052348015600f57600080fd5b5061095e8061001f6000396000f3fe60806040526004361061004a5760003560e01c806312532e451461004f57806334a324e41461007e57806356270e17146100c85780636dfee236146101165780639838caa31461012b575b600080fd5b34801561005b57600080fd5b506040516b6d6f646c70792f736572767360401b81526020015b60405180910390f35b34801561008a57600080fd5b506100b66100993660046104b3565b600060208181529281526040808220909352908152205460ff1681565b60405160ff9091168152602001610075565b3480156100d457600080fd5b506100fe6100e33660046104e6565b6001602052600090815260409020546001600160401b031681565b6040516001600160401b039091168152602001610075565b610129610124366004610550565b61013e565b005b610129610139366004610619565b610241565b336b6d6f646c70792f736572767360401b146101a15760405162461bcd60e51b815260206004820152601b60248201527f416363657373436f6e74726f6c3a204f6e6c792052756e74696d65000000000060448201526064015b60405180910390fd5b80156101c05760405163702e9b1960e11b815260040160405180910390fd5b60408051808201909152606060208201526001600160401b03861681526101e784866106b7565b60208281019182526001600160401b038881166000908152600180845260409091208551815467ffffffffffffffff1916931692909217825592518051859492936102369385019201906103d2565b505050505050505050565b336b6d6f646c70792f736572767360401b1461029f5760405162461bcd60e51b815260206004820152601b60248201527f416363657373436f6e74726f6c3a204f6e6c792052756e74696d6500000000006044820152606401610198565b60ff84166103405760006102b58284018461079f565b6001600160401b0387166000908152600160208190526040909120015490915060ff821615806102e75750808260ff16115b156103055760405163b65cad8d60e01b815260040160405180910390fd5b506001600160401b03868116600090815260208181526040808320938816835292905220805460ff191660ff929092169190911790556103cb565b60001960ff8516016103b25760008061035b838501856107ba565b6001600160401b03808a1660009081526020818152604080832093861683529290529081205492945090925060ff90911690036103ab5760405163648bd07f60e11b815260040160405180910390fd5b50506103cb565b60405163038e47a360e51b815260040160405180910390fd5b5050505050565b828054828255906000526020600020908101928215610418579160200282015b828111156104185782518290610408908261086a565b50916020019190600101906103f2565b50610424929150610428565b5090565b8082111561042457600061043c8282610445565b50600101610428565b508054610451906107e4565b6000825580601f10610461575050565b601f01602090049060005260206000209081019061047f9190610482565b50565b5b808211156104245760008155600101610483565b80356001600160401b03811681146104ae57600080fd5b919050565b600080604083850312156104c657600080fd5b6104cf83610497565b91506104dd60208401610497565b90509250929050565b6000602082840312156104f857600080fd5b61050182610497565b9392505050565b60008083601f84011261051a57600080fd5b5081356001600160401b0381111561053157600080fd5b60208301915083602082850101111561054957600080fd5b9250929050565b60008060008060006060868803121561056857600080fd5b61057186610497565b945060208601356001600160401b0381111561058c57600080fd5b8601601f8101881361059d57600080fd5b80356001600160401b038111156105b357600080fd5b8860208260051b84010111156105c857600080fd5b6020919091019450925060408601356001600160401b038111156105eb57600080fd5b6105f788828901610508565b969995985093965092949392505050565b803560ff811681146104ae57600080fd5b60008060008060006080868803121561063157600080fd5b61063a86610497565b945061064860208701610608565b935061065660408701610497565b925060608601356001600160401b038111156105eb57600080fd5b634e487b7160e01b600052604160045260246000fd5b604051601f8201601f191681016001600160401b03811182821017156106af576106af610671565b604052919050565b60006001600160401b038311156106d0576106d0610671565b8260051b6106e060208201610687565b848152908301906020810190368311156106f957600080fd5b845b838110156107955780356001600160401b0381111561071957600080fd5b860136601f82011261072a57600080fd5b80356001600160401b0381111561074357610743610671565b610756601f8201601f1916602001610687565b81815236602083850101111561076b57600080fd5b816020840160208301376000602083830101528086525050506020830192506020810190506106fb565b5095945050505050565b6000602082840312156107b157600080fd5b61050182610608565b600080604083850312156107cd57600080fd5b6107d683610497565b946020939093013593505050565b600181811c908216806107f857607f821691505b60208210810361081857634e487b7160e01b600052602260045260246000fd5b50919050565b601f82111561086557806000526020600020601f840160051c810160208510156108455750805b601f840160051c820191505b818110156103cb5760008155600101610851565b505050565b81516001600160401b0381111561088357610883610671565b6108978161089184546107e4565b8461081e565b6020601f8211600181146108cb57600083156108b35750848201515b600019600385901b1c1916600184901b1784556103cb565b600084815260208120601f198516915b828110156108fb57878501518255602094850194600190920191016108db565b50848210156109195786840151600019600387901b60f8161c191681555b50505050600190811b0190555056fea2646970667358221220a12026b3e1b163f742df017fb039f68adea8e743ebcc60da6407881db8a8686664736f6c634300081a0033","linkReferences":{}},"methodIdentifiers":{"getRuntimeAddress()":"12532e45","keygens(uint64,uint64)":"34a324e4","onJobCall(uint64,uint8,uint64,bytes)":"9838caa3","onRequest(uint64,bytes[],bytes)":"6dfee236","services(uint64)":"56270e17"},"id":26}