{"abi":[{"type":"function","name":"ROOT_CHAIN","inputs":[],"outputs":[{"name":"","type":"address","internalType":"address"}],"stateMutability":"view"},{"type":"function","name":"onApprove","inputs":[{"name":"operator","type":"tuple","internalType":"struct IBlueprintServiceManager.OperatorPreferences","components":[{"name":"ecdsaPublicKey","type":"bytes","internalType":"bytes"},{"name":"priceTargets","type":"tuple","internalType":"struct IBlueprintServiceManager.PriceTargets","components":[{"name":"cpu","type":"uint64","internalType":"uint64"},{"name":"mem","type":"uint64","internalType":"uint64"},{"name":"storage_hdd","type":"uint64","internalType":"uint64"},{"name":"storage_ssd","type":"uint64","internalType":"uint64"},{"name":"storage_nvme","type":"uint64","internalType":"uint64"}]}]},{"name":"requestId","type":"uint64","internalType":"uint64"},{"name":"restakingPercent","type":"uint8","internalType":"uint8"}],"outputs":[],"stateMutability":"payable"},{"type":"function","name":"onJobCall","inputs":[{"name":"serviceId","type":"uint64","internalType":"uint64"},{"name":"job","type":"uint8","internalType":"uint8"},{"name":"jobCallId","type":"uint64","internalType":"uint64"},{"name":"inputs","type":"bytes","internalType":"bytes"}],"outputs":[],"stateMutability":"payable"},{"type":"function","name":"onJobResult","inputs":[{"name":"serviceId","type":"uint64","internalType":"uint64"},{"name":"job","type":"uint8","internalType":"uint8"},{"name":"jobCallId","type":"uint64","internalType":"uint64"},{"name":"operator","type":"tuple","internalType":"struct IBlueprintServiceManager.OperatorPreferences","components":[{"name":"ecdsaPublicKey","type":"bytes","internalType":"bytes"},{"name":"priceTargets","type":"tuple","internalType":"struct IBlueprintServiceManager.PriceTargets","components":[{"name":"cpu","type":"uint64","internalType":"uint64"},{"name":"mem","type":"uint64","internalType":"uint64"},{"name":"storage_hdd","type":"uint64","internalType":"uint64"},{"name":"storage_ssd","type":"uint64","internalType":"uint64"},{"name":"storage_nvme","type":"uint64","internalType":"uint64"}]}]},{"name":"inputs","type":"bytes","internalType":"bytes"},{"name":"outputs","type":"bytes","internalType":"bytes"}],"outputs":[],"stateMutability":"payable"},{"type":"function","name":"onRegister","inputs":[{"name":"operator","type":"tuple","internalType":"struct IBlueprintServiceManager.OperatorPreferences","components":[{"name":"ecdsaPublicKey","type":"bytes","internalType":"bytes"},{"name":"priceTargets","type":"tuple","internalType":"struct IBlueprintServiceManager.PriceTargets","components":[{"name":"cpu","type":"uint64","internalType":"uint64"},{"name":"mem","type":"uint64","internalType":"uint64"},{"name":"storage_hdd","type":"uint64","internalType":"uint64"},{"name":"storage_ssd","type":"uint64","internalType":"uint64"},{"name":"storage_nvme","type":"uint64","internalType":"uint64"}]}]},{"name":"registrationInputs","type":"bytes","internalType":"bytes"}],"outputs":[],"stateMutability":"payable"},{"type":"function","name":"onReject","inputs":[{"name":"operator","type":"tuple","internalType":"struct IBlueprintServiceManager.OperatorPreferences","components":[{"name":"ecdsaPublicKey","type":"bytes","internalType":"bytes"},{"name":"priceTargets","type":"tuple","internalType":"struct IBlueprintServiceManager.PriceTargets","components":[{"name":"cpu","type":"uint64","internalType":"uint64"},{"name":"mem","type":"uint64","internalType":"uint64"},{"name":"storage_hdd","type":"uint64","internalType":"uint64"},{"name":"storage_ssd","type":"uint64","internalType":"uint64"},{"name":"storage_nvme","type":"uint64","internalType":"uint64"}]}]},{"name":"requestId","type":"uint64","internalType":"uint64"}],"outputs":[],"stateMutability":"nonpayable"},{"type":"function","name":"onRequest","inputs":[{"name":"requestId","type":"uint64","internalType":"uint64"},{"name":"requester","type":"address","internalType":"address"},{"name":"operators","type":"tuple[]","internalType":"struct IBlueprintServiceManager.OperatorPreferences[]","components":[{"name":"ecdsaPublicKey","type":"bytes","internalType":"bytes"},{"name":"priceTargets","type":"tuple","internalType":"struct IBlueprintServiceManager.PriceTargets","components":[{"name":"cpu","type":"uint64","internalType":"uint64"},{"name":"mem","type":"uint64","internalType":"uint64"},{"name":"storage_hdd","type":"uint64","internalType":"uint64"},{"name":"storage_ssd","type":"uint64","internalType":"uint64"},{"name":"storage_nvme","type":"uint64","internalType":"uint64"}]}]},{"name":"requestInputs","type":"bytes","internalType":"bytes"},{"name":"permittedCallers","type":"address[]","internalType":"address[]"},{"name":"ttl","type":"uint64","internalType":"uint64"}],"outputs":[],"stateMutability":"payable"},{"type":"function","name":"onServiceInitialized","inputs":[{"name":"requestId","type":"uint64","internalType":"uint64"},{"name":"serviceId","type":"uint64","internalType":"uint64"},{"name":"owner","type":"address","internalType":"address"},{"name":"permittedCallers","type":"address[]","internalType":"address[]"},{"name":"ttl","type":"uint64","internalType":"uint64"}],"outputs":[],"stateMutability":"nonpayable"},{"type":"function","name":"onServiceTermination","inputs":[{"name":"serviceId","type":"uint64","internalType":"uint64"},{"name":"owner","type":"address","internalType":"address"}],"outputs":[],"stateMutability":"nonpayable"},{"type":"function","name":"onSlash","inputs":[{"name":"serviceId","type":"uint64","internalType":"uint64"},{"name":"offender","type":"bytes","internalType":"bytes"},{"name":"slashPercent","type":"uint8","internalType":"uint8"},{"name":"totalPayout","type":"uint256","internalType":"uint256"}],"outputs":[],"stateMutability":"nonpayable"},{"type":"function","name":"onUnappliedSlash","inputs":[{"name":"serviceId","type":"uint64","internalType":"uint64"},{"name":"offender","type":"bytes","internalType":"bytes"},{"name":"slashPercent","type":"uint8","internalType":"uint8"},{"name":"totalPayout","type":"uint256","internalType":"uint256"}],"outputs":[],"stateMutability":"nonpayable"},{"type":"function","name":"onUnregister","inputs":[{"name":"operator","type":"tuple","internalType":"struct IBlueprintServiceManager.OperatorPreferences","components":[{"name":"ecdsaPublicKey","type":"bytes","internalType":"bytes"},{"name":"priceTargets","type":"tuple","internalType":"struct IBlueprintServiceManager.PriceTargets","components":[{"name":"cpu","type":"uint64","internalType":"uint64"},{"name":"mem","type":"uint64","internalType":"uint64"},{"name":"storage_hdd","type":"uint64","internalType":"uint64"},{"name":"storage_ssd","type":"uint64","internalType":"uint64"},{"name":"storage_nvme","type":"uint64","internalType":"uint64"}]}]}],"outputs":[],"stateMutability":"nonpayable"},{"type":"function","name":"onUpdatePriceTargets","inputs":[{"name":"operator","type":"tuple","internalType":"struct IBlueprintServiceManager.OperatorPreferences","components":[{"name":"ecdsaPublicKey","type":"bytes","internalType":"bytes"},{"name":"priceTargets","type":"tuple","internalType":"struct IBlueprintServiceManager.PriceTargets","components":[{"name":"cpu","type":"uint64","internalType":"uint64"},{"name":"mem","type":"uint64","internalType":"uint64"},{"name":"storage_hdd","type":"uint64","internalType":"uint64"},{"name":"storage_ssd","type":"uint64","internalType":"uint64"},{"name":"storage_nvme","type":"uint64","internalType":"uint64"}]}]}],"outputs":[],"stateMutability":"payable"},{"type":"function","name":"queryDisputeOrigin","inputs":[{"name":"","type":"uint64","internalType":"uint64"}],"outputs":[{"name":"disputeOrigin","type":"address","internalType":"address"}],"stateMutability":"view"},{"type":"function","name":"querySlashingOrigin","inputs":[{"name":"","type":"uint64","internalType":"uint64"}],"outputs":[{"name":"slashingOrigin","type":"address","internalType":"address"}],"stateMutability":"view"},{"type":"function","name":"rootChain","inputs":[],"outputs":[{"name":"rootChainAddress","type":"address","internalType":"address"}],"stateMutability":"pure"},{"type":"error","name":"OnlyRootChainAllowed","inputs":[{"name":"caller","type":"address","internalType":"address"},{"name":"rootChain","type":"address","internalType":"address"}]}],"bytecode":{"object":"0x608060405234801561001057600080fd5b50610a37806100206000396000f3fe6080604052600436106100f35760003560e01c80639838caa31161008a578063bb43abd911610059578063bb43abd91461023b578063d7deb48214610249578063e926cbd1146100f8578063fe0dd3711461026957600080fd5b80639838caa3146101de578063987ab9db146101ec5780639d0410ee1461020d578063a24e8a901461022057600080fd5b806365ce59fa116100c657806365ce59fa1461018957806374ceeb551461011a578063821c7be21461019c578063884673ac146101bc57600080fd5b80630af7d743146100f857806314b4df4c1461011a57806337c2966214610156578063434698bb14610169575b600080fd5b34801561010457600080fd5b506101186101133660046104ff565b610277565b005b34801561012657600080fd5b5061013a61013536600461056c565b503090565b6040516001600160a01b03909116815260200160405180910390f35b6101186101643660046105a6565b6102c7565b34801561017557600080fd5b5061011861018436600461066c565b610315565b610118610197366004610705565b61035c565b3480156101a857600080fd5b506101186101b73660046107d0565b6103ab565b3480156101c857600080fd5b5061013a600080516020610a0b83398151915281565b61011861011336600461081e565b3480156101f857600080fd5b50600080516020610a0b83398151915261013a565b61011861021b366004610894565b6103f3565b34801561022c57600080fd5b506101186101b73660046108fd565b61011861021b366004610927565b34801561025557600080fd5b50610118610264366004610985565b61043c565b61011861018436600461066c565b33600080516020610a0b833981519152146102c0576040516359afe8af60e11b8152336004820152600080516020610a0b83398151915260248201526044015b60405180910390fd5b5050505050565b33600080516020610a0b8339815191521461030b576040516359afe8af60e11b8152336004820152600080516020610a0b83398151915260248201526044016102b7565b5050505050505050565b33600080516020610a0b83398151915214610359576040516359afe8af60e11b8152336004820152600080516020610a0b83398151915260248201526044016102b7565b50565b33600080516020610a0b833981519152146103a0576040516359afe8af60e11b8152336004820152600080516020610a0b83398151915260248201526044016102b7565b505050505050505050565b33600080516020610a0b833981519152146103ef576040516359afe8af60e11b8152336004820152600080516020610a0b83398151915260248201526044016102b7565b5050565b33600080516020610a0b83398151915214610437576040516359afe8af60e11b8152336004820152600080516020610a0b83398151915260248201526044016102b7565b505050565b33600080516020610a0b83398151915214610480576040516359afe8af60e11b8152336004820152600080516020610a0b83398151915260248201526044016102b7565b505050505050565b803567ffffffffffffffff811681146104a057600080fd5b919050565b60008083601f8401126104b757600080fd5b50813567ffffffffffffffff8111156104cf57600080fd5b6020830191508360208285010111156104e757600080fd5b9250929050565b803560ff811681146104a057600080fd5b60008060008060006080868803121561051757600080fd5b61052086610488565b9450602086013567ffffffffffffffff81111561053c57600080fd5b610548888289016104a5565b909550935061055b9050604087016104ee565b949793965091946060013592915050565b60006020828403121561057e57600080fd5b61058782610488565b9392505050565b600060c082840312156105a057600080fd5b50919050565b60008060008060008060008060c0898b0312156105c257600080fd5b6105cb89610488565b97506105d960208a016104ee565b96506105e760408a01610488565b9550606089013567ffffffffffffffff8082111561060457600080fd5b6106108c838d0161058e565b965060808b013591508082111561062657600080fd5b6106328c838d016104a5565b909650945060a08b013591508082111561064b57600080fd5b506106588b828c016104a5565b999c989b5096995094979396929594505050565b60006020828403121561067e57600080fd5b813567ffffffffffffffff81111561069557600080fd5b6106a18482850161058e565b949350505050565b80356001600160a01b03811681146104a057600080fd5b60008083601f8401126106d257600080fd5b50813567ffffffffffffffff8111156106ea57600080fd5b6020830191508360208260051b85010111156104e757600080fd5b600080600080600080600080600060c08a8c03121561072357600080fd5b61072c8a610488565b985061073a60208b016106a9565b975060408a013567ffffffffffffffff8082111561075757600080fd5b6107638d838e016106c0565b909950975060608c013591508082111561077c57600080fd5b6107888d838e016104a5565b909750955060808c01359150808211156107a157600080fd5b506107ae8c828d016106c0565b90945092506107c1905060a08b01610488565b90509295985092959850929598565b600080604083850312156107e357600080fd5b823567ffffffffffffffff8111156107fa57600080fd5b6108068582860161058e565b92505061081560208401610488565b90509250929050565b60008060008060006080868803121561083657600080fd5b61083f86610488565b945061084d602087016104ee565b935061085b60408701610488565b9250606086013567ffffffffffffffff81111561087757600080fd5b610883888289016104a5565b969995985093965092949392505050565b6000806000604084860312156108a957600080fd5b833567ffffffffffffffff808211156108c157600080fd5b6108cd8783880161058e565b945060208601359150808211156108e357600080fd5b506108f0868287016104a5565b9497909650939450505050565b6000806040838503121561091057600080fd5b61091983610488565b9150610815602084016106a9565b60008060006060848603121561093c57600080fd5b833567ffffffffffffffff81111561095357600080fd5b61095f8682870161058e565b93505061096e60208501610488565b915061097c604085016104ee565b90509250925092565b60008060008060008060a0878903121561099e57600080fd5b6109a787610488565b95506109b560208801610488565b94506109c3604088016106a9565b9350606087013567ffffffffffffffff8111156109df57600080fd5b6109eb89828a016106c0565b90945092506109fe905060808801610488565b9050929550929550929556fe0000000000000000000000001111111111111111111111111111111111111111a164736f6c6343000813000a","linkReferences":{}},"methodIdentifiers":{"ROOT_CHAIN()":"884673ac","onApprove((bytes,(uint64,uint64,uint64,uint64,uint64)),uint64,uint8)":"bb43abd9","onJobCall(uint64,uint8,uint64,bytes)":"9838caa3","onJobResult(uint64,uint8,uint64,(bytes,(uint64,uint64,uint64,uint64,uint64)),bytes,bytes)":"37c29662","onRegister((bytes,(uint64,uint64,uint64,uint64,uint64)),bytes)":"9d0410ee","onReject((bytes,(uint64,uint64,uint64,uint64,uint64)),uint64)":"821c7be2","onRequest(uint64,address,(bytes,(uint64,uint64,uint64,uint64,uint64))[],bytes,address[],uint64)":"65ce59fa","onServiceInitialized(uint64,uint64,address,address[],uint64)":"d7deb482","onServiceTermination(uint64,address)":"a24e8a90","onSlash(uint64,bytes,uint8,uint256)":"0af7d743","onUnappliedSlash(uint64,bytes,uint8,uint256)":"e926cbd1","onUnregister((bytes,(uint64,uint64,uint64,uint64,uint64)))":"434698bb","onUpdatePriceTargets((bytes,(uint64,uint64,uint64,uint64,uint64)))":"fe0dd371","queryDisputeOrigin(uint64)":"14b4df4c","querySlashingOrigin(uint64)":"74ceeb55","rootChain()":"987ab9db"},"id":0}