{"abi":[{"type":"function","name":"ROOT_CHAIN","inputs":[],"outputs":[{"name":"","type":"address","internalType":"address"}],"stateMutability":"view"},{"type":"function","name":"blueprintOperators","inputs":[{"name":"","type":"uint256","internalType":"uint256"}],"outputs":[{"name":"addr","type":"address","internalType":"address"},{"name":"publicKey","type":"bytes","internalType":"bytes"}],"stateMutability":"view"},{"type":"function","name":"keygens","inputs":[{"name":"","type":"uint64","internalType":"uint64"},{"name":"","type":"uint64","internalType":"uint64"}],"outputs":[{"name":"","type":"uint8","internalType":"uint8"}],"stateMutability":"view"},{"type":"function","name":"onJobCall","inputs":[{"name":"serviceId","type":"uint64","internalType":"uint64"},{"name":"job","type":"uint8","internalType":"uint8"},{"name":"jobCallId","type":"uint64","internalType":"uint64"},{"name":"inputs","type":"bytes","internalType":"bytes"}],"outputs":[],"stateMutability":"payable"},{"type":"function","name":"onJobCallResult","inputs":[{"name":"serviceId","type":"uint64","internalType":"uint64"},{"name":"job","type":"uint8","internalType":"uint8"},{"name":"jobCallId","type":"uint64","internalType":"uint64"},{"name":"participant","type":"bytes","internalType":"bytes"},{"name":"inputs","type":"bytes","internalType":"bytes"},{"name":"outputs","type":"bytes","internalType":"bytes"}],"outputs":[],"stateMutability":"nonpayable"},{"type":"function","name":"onRegister","inputs":[{"name":"operator","type":"bytes","internalType":"bytes"},{"name":"registrationInputs","type":"bytes","internalType":"bytes"}],"outputs":[],"stateMutability":"payable"},{"type":"function","name":"onRequest","inputs":[{"name":"serviceId","type":"uint64","internalType":"uint64"},{"name":"operators","type":"bytes[]","internalType":"bytes[]"},{"name":"requestInputs","type":"bytes","internalType":"bytes"}],"outputs":[],"stateMutability":"payable"},{"type":"function","name":"operatorAddressFromPublicKey","inputs":[{"name":"publicKey","type":"bytes","internalType":"bytes"}],"outputs":[{"name":"","type":"address","internalType":"address"}],"stateMutability":"pure"},{"type":"function","name":"services","inputs":[{"name":"","type":"uint64","internalType":"uint64"}],"outputs":[{"name":"id","type":"uint64","internalType":"uint64"}],"stateMutability":"view"},{"type":"function","name":"verifyJobCallResult","inputs":[{"name":"serviceId","type":"uint64","internalType":"uint64"},{"name":"job","type":"uint8","internalType":"uint8"},{"name":"jobCallId","type":"uint64","internalType":"uint64"},{"name":"participant","type":"bytes","internalType":"bytes"},{"name":"inputs","type":"bytes","internalType":"bytes"},{"name":"outputs","type":"bytes","internalType":"bytes"}],"outputs":[{"name":"","type":"bool","internalType":"bool"}],"stateMutability":"view"},{"type":"error","name":"InvalidDKGThreshold","inputs":[]},{"type":"error","name":"InvalidJob","inputs":[]},{"type":"error","name":"InvalidRequestInputs","inputs":[]},{"type":"error","name":"KeygenJobNotFound","inputs":[]}],"bytecode":{"object":"0x6080604052348015600f57600080fd5b50610deb8061001f6000396000f3fe6080604052600436106100915760003560e01c80639838caa3116100595780639838caa3146101b6578063a7c66f86146101c9578063d4e5fe27146101dc578063d6c4336d1461020a578063e40b0d491461022a57600080fd5b806334a324e41461009657806356270e17146100e8578063667cddc1146101365780636dfee23614610166578063884673ac1461017b575b600080fd5b3480156100a257600080fd5b506100d16100b136600461079f565b600160209081526000928352604080842090915290825290205460ff1681565b60405160ff90911681526020015b60405180910390f35b3480156100f457600080fd5b5061011e6101033660046107d2565b6002602052600090815260409020546001600160401b031681565b6040516001600160401b0390911681526020016100df565b34801561014257600080fd5b5061015661015136600461084d565b61024a565b60405190151581526020016100df565b61017961017436600461091a565b610290565b005b34801561018757600080fd5b5061019e6b6d6f646c70792f737276637360401b81565b6040516001600160a01b0390911681526020016100df565b6101796101c43660046109cb565b61041a565b6101796101d7366004610a2f565b61057e565b3480156101e857600080fd5b506101fc6101f7366004610a9a565b610666565b6040516100df929190610ab3565b34801561021657600080fd5b5061017961022536600461084d565b610728565b34801561023657600080fd5b5061019e610245366004610b12565b610761565b6000336b6d6f646c70792f737276637360401b146102835760405162461bcd60e51b815260040161027a90610b53565b60405180910390fd5b9998505050505050505050565b336b6d6f646c70792f737276637360401b146102be5760405162461bcd60e51b815260040161027a90610b53565b80156102dd5760405163702e9b1960e11b815260040160405180910390fd5b6001600160401b0385166000818152600260205260408120805467ffffffffffffffff191690921782555b8481101561041157600061033987878481811061032757610327610ba4565b90506020028101906102459190610bba565b9050826001016040518060400160405280836001600160a01b0316815260200189898681811061036b5761036b610ba4565b905060200281019061037d9190610bba565b8080601f0160208091040260200160405190810160405280939291908181526020018383808284376000920182905250939094525050835460018082018655948252602091829020845160029092020180546001600160a01b0319166001600160a01b03909216919091178155908301519293909290830191506104019082610ca1565b5050600190920191506103089050565b50505050505050565b336b6d6f646c70792f737276637360401b146104485760405162461bcd60e51b815260040161027a90610b53565b60ff84166104ea57600061045e82840184610d60565b6001600160401b03871660009081526002602052604090206001015490915060ff8216158061048f5750808260ff16115b156104ad5760405163b65cad8d60e01b815260040160405180910390fd5b506001600160401b038681166000908152600160209081526040808320938816835292905220805460ff191660ff92909216919091179055610577565b60001960ff85160161055e5760008061050583850185610d7b565b6001600160401b03808a16600090815260016020908152604080832093861683529290529081205492945090925060ff90911690036105575760405163648bd07f60e11b815260040160405180910390fd5b5050610577565b60405163038e47a360e51b815260040160405180910390fd5b5050505050565b336b6d6f646c70792f737276637360401b146105ac5760405162461bcd60e51b815260040161027a90610b53565b60006105b88585610761565b905060006040518060400160405280836001600160a01b0316815260200187878080601f0160208091040260200160405190810160405280939291908181526020018383808284376000920182905250939094525050835460018082018655948252602091829020845160029092020180546001600160a01b0319166001600160a01b039092169190911781559083015192939092908301915061065c9082610ca1565b5050505050505050565b6000818154811061067657600080fd5b6000918252602090912060029091020180546001820180546001600160a01b039092169350906106a590610c16565b80601f01602080910402602001604051908101604052809291908181526020018280546106d190610c16565b801561071e5780601f106106f35761010080835404028352916020019161071e565b820191906000526020600020905b81548152906001019060200180831161070157829003601f168201915b5050505050905082565b336b6d6f646c70792f737276637360401b146107565760405162461bcd60e51b815260040161027a90610b53565b505050505050505050565b60008282604051610773929190610da5565b6040519081900390209392505050565b80356001600160401b038116811461079a57600080fd5b919050565b600080604083850312156107b257600080fd5b6107bb83610783565b91506107c960208401610783565b90509250929050565b6000602082840312156107e457600080fd5b6107ed82610783565b9392505050565b803560ff8116811461079a57600080fd5b60008083601f84011261081757600080fd5b5081356001600160401b0381111561082e57600080fd5b60208301915083602082850101111561084657600080fd5b9250929050565b600080600080600080600080600060c08a8c03121561086b57600080fd5b6108748a610783565b985061088260208b016107f4565b975061089060408b01610783565b965060608a01356001600160401b03808211156108ac57600080fd5b6108b88d838e01610805565b909850965060808c01359150808211156108d157600080fd5b6108dd8d838e01610805565b909650945060a08c01359150808211156108f657600080fd5b506109038c828d01610805565b915080935050809150509295985092959850929598565b60008060008060006060868803121561093257600080fd5b61093b86610783565b945060208601356001600160401b038082111561095757600080fd5b818801915088601f83011261096b57600080fd5b81358181111561097a57600080fd5b8960208260051b850101111561098f57600080fd5b6020830196508095505060408801359150808211156109ad57600080fd5b506109ba88828901610805565b969995985093965092949392505050565b6000806000806000608086880312156109e357600080fd5b6109ec86610783565b94506109fa602087016107f4565b9350610a0860408701610783565b925060608601356001600160401b03811115610a2357600080fd5b6109ba88828901610805565b60008060008060408587031215610a4557600080fd5b84356001600160401b0380821115610a5c57600080fd5b610a6888838901610805565b90965094506020870135915080821115610a8157600080fd5b50610a8e87828801610805565b95989497509550505050565b600060208284031215610aac57600080fd5b5035919050565b60018060a01b03831681526000602060406020840152835180604085015260005b81811015610af057858101830151858201606001528201610ad4565b506000606082860101526060601f19601f830116850101925050509392505050565b60008060208385031215610b2557600080fd5b82356001600160401b03811115610b3b57600080fd5b610b4785828601610805565b90969095509350505050565b60208082526031908201527f526f6f74436861696e3a204f6e6c7920726f6f7420636861696e2063616e206360408201527030b636103a3434b990333ab731ba34b7b760791b606082015260800190565b634e487b7160e01b600052603260045260246000fd5b6000808335601e19843603018112610bd157600080fd5b8301803591506001600160401b03821115610beb57600080fd5b60200191503681900382131561084657600080fd5b634e487b7160e01b600052604160045260246000fd5b600181811c90821680610c2a57607f821691505b602082108103610c4a57634e487b7160e01b600052602260045260246000fd5b50919050565b601f821115610c9c576000816000526020600020601f850160051c81016020861015610c795750805b601f850160051c820191505b81811015610c9857828155600101610c85565b5050505b505050565b81516001600160401b03811115610cba57610cba610c00565b610cce81610cc88454610c16565b84610c50565b602080601f831160018114610d035760008415610ceb5750858301515b600019600386901b1c1916600185901b178555610c98565b600085815260208120601f198616915b82811015610d3257888601518255948401946001909101908401610d13565b5085821015610d505787850151600019600388901b60f8161c191681555b5050505050600190811b01905550565b600060208284031215610d7257600080fd5b6107ed826107f4565b60008060408385031215610d8e57600080fd5b610d9783610783565b946020939093013593505050565b818382376000910190815291905056fea264697066735822122019d1498ac738076fcae7e7a80ee49044303e5be1afb57166f0b7eeb6c4efea5864736f6c63430008190033","linkReferences":{}},"methodIdentifiers":{"ROOT_CHAIN()":"884673ac","blueprintOperators(uint256)":"d4e5fe27","keygens(uint64,uint64)":"34a324e4","onJobCall(uint64,uint8,uint64,bytes)":"9838caa3","onJobCallResult(uint64,uint8,uint64,bytes,bytes,bytes)":"d6c4336d","onRegister(bytes,bytes)":"a7c66f86","onRequest(uint64,bytes[],bytes)":"6dfee236","operatorAddressFromPublicKey(bytes)":"e40b0d49","services(uint64)":"56270e17","verifyJobCallResult(uint64,uint8,uint64,bytes,bytes,bytes)":"667cddc1"},"id":3}