{"abi":[{"type":"function","name":"ROOT_CHAIN","inputs":[],"outputs":[{"name":"","type":"address","internalType":"address"}],"stateMutability":"view"},{"type":"function","name":"blueprintOwner","inputs":[],"outputs":[{"name":"","type":"address","internalType":"address"}],"stateMutability":"view"},{"type":"function","name":"currentBlueprintId","inputs":[],"outputs":[{"name":"","type":"uint256","internalType":"uint256"}],"stateMutability":"view"},{"type":"function","name":"masterBlueprintServiceManager","inputs":[],"outputs":[{"name":"","type":"address","internalType":"address"}],"stateMutability":"view"},{"type":"function","name":"masterBlueprintServiceManagerAddress","inputs":[],"outputs":[{"name":"mbsm","type":"address","internalType":"address"}],"stateMutability":"view"},{"type":"function","name":"onApprove","inputs":[{"name":"operator","type":"tuple","internalType":"struct ServiceOperators.OperatorPreferences","components":[{"name":"ecdsaPublicKey","type":"bytes","internalType":"bytes"},{"name":"priceTargets","type":"tuple","internalType":"struct ServiceOperators.PriceTargets","components":[{"name":"cpu","type":"uint64","internalType":"uint64"},{"name":"mem","type":"uint64","internalType":"uint64"},{"name":"storage_hdd","type":"uint64","internalType":"uint64"},{"name":"storage_ssd","type":"uint64","internalType":"uint64"},{"name":"storage_nvme","type":"uint64","internalType":"uint64"}]}]},{"name":"requestId","type":"uint64","internalType":"uint64"},{"name":"restakingPercent","type":"uint8","internalType":"uint8"}],"outputs":[],"stateMutability":"payable"},{"type":"function","name":"onBlueprintCreated","inputs":[{"name":"blueprintId","type":"uint64","internalType":"uint64"},{"name":"owner","type":"address","internalType":"address"},{"name":"mbsm","type":"address","internalType":"address"}],"outputs":[],"stateMutability":"nonpayable"},{"type":"function","name":"onJobCall","inputs":[{"name":"serviceId","type":"uint64","internalType":"uint64"},{"name":"job","type":"uint8","internalType":"uint8"},{"name":"jobCallId","type":"uint64","internalType":"uint64"},{"name":"inputs","type":"bytes","internalType":"bytes"}],"outputs":[],"stateMutability":"payable"},{"type":"function","name":"onJobResult","inputs":[{"name":"serviceId","type":"uint64","internalType":"uint64"},{"name":"job","type":"uint8","internalType":"uint8"},{"name":"jobCallId","type":"uint64","internalType":"uint64"},{"name":"operator","type":"tuple","internalType":"struct ServiceOperators.OperatorPreferences","components":[{"name":"ecdsaPublicKey","type":"bytes","internalType":"bytes"},{"name":"priceTargets","type":"tuple","internalType":"struct ServiceOperators.PriceTargets","components":[{"name":"cpu","type":"uint64","internalType":"uint64"},{"name":"mem","type":"uint64","internalType":"uint64"},{"name":"storage_hdd","type":"uint64","internalType":"uint64"},{"name":"storage_ssd","type":"uint64","internalType":"uint64"},{"name":"storage_nvme","type":"uint64","internalType":"uint64"}]}]},{"name":"inputs","type":"bytes","internalType":"bytes"},{"name":"outputs","type":"bytes","internalType":"bytes"}],"outputs":[],"stateMutability":"payable"},{"type":"function","name":"onRegister","inputs":[{"name":"operator","type":"tuple","internalType":"struct ServiceOperators.OperatorPreferences","components":[{"name":"ecdsaPublicKey","type":"bytes","internalType":"bytes"},{"name":"priceTargets","type":"tuple","internalType":"struct ServiceOperators.PriceTargets","components":[{"name":"cpu","type":"uint64","internalType":"uint64"},{"name":"mem","type":"uint64","internalType":"uint64"},{"name":"storage_hdd","type":"uint64","internalType":"uint64"},{"name":"storage_ssd","type":"uint64","internalType":"uint64"},{"name":"storage_nvme","type":"uint64","internalType":"uint64"}]}]},{"name":"registrationInputs","type":"bytes","internalType":"bytes"}],"outputs":[],"stateMutability":"payable"},{"type":"function","name":"onReject","inputs":[{"name":"operator","type":"tuple","internalType":"struct ServiceOperators.OperatorPreferences","components":[{"name":"ecdsaPublicKey","type":"bytes","internalType":"bytes"},{"name":"priceTargets","type":"tuple","internalType":"struct ServiceOperators.PriceTargets","components":[{"name":"cpu","type":"uint64","internalType":"uint64"},{"name":"mem","type":"uint64","internalType":"uint64"},{"name":"storage_hdd","type":"uint64","internalType":"uint64"},{"name":"storage_ssd","type":"uint64","internalType":"uint64"},{"name":"storage_nvme","type":"uint64","internalType":"uint64"}]}]},{"name":"requestId","type":"uint64","internalType":"uint64"}],"outputs":[],"stateMutability":"nonpayable"},{"type":"function","name":"onRequest","inputs":[{"name":"requestId","type":"uint64","internalType":"uint64"},{"name":"requester","type":"address","internalType":"address"},{"name":"operators","type":"tuple[]","internalType":"struct ServiceOperators.OperatorPreferences[]","components":[{"name":"ecdsaPublicKey","type":"bytes","internalType":"bytes"},{"name":"priceTargets","type":"tuple","internalType":"struct ServiceOperators.PriceTargets","components":[{"name":"cpu","type":"uint64","internalType":"uint64"},{"name":"mem","type":"uint64","internalType":"uint64"},{"name":"storage_hdd","type":"uint64","internalType":"uint64"},{"name":"storage_ssd","type":"uint64","internalType":"uint64"},{"name":"storage_nvme","type":"uint64","internalType":"uint64"}]}]},{"name":"requestInputs","type":"bytes","internalType":"bytes"},{"name":"permittedCallers","type":"address[]","internalType":"address[]"},{"name":"ttl","type":"uint64","internalType":"uint64"}],"outputs":[],"stateMutability":"payable"},{"type":"function","name":"onServiceInitialized","inputs":[{"name":"requestId","type":"uint64","internalType":"uint64"},{"name":"serviceId","type":"uint64","internalType":"uint64"},{"name":"owner","type":"address","internalType":"address"},{"name":"permittedCallers","type":"address[]","internalType":"address[]"},{"name":"ttl","type":"uint64","internalType":"uint64"}],"outputs":[],"stateMutability":"nonpayable"},{"type":"function","name":"onServiceTermination","inputs":[{"name":"serviceId","type":"uint64","internalType":"uint64"},{"name":"owner","type":"address","internalType":"address"}],"outputs":[],"stateMutability":"nonpayable"},{"type":"function","name":"onSlash","inputs":[{"name":"serviceId","type":"uint64","internalType":"uint64"},{"name":"offender","type":"bytes","internalType":"bytes"},{"name":"slashPercent","type":"uint8","internalType":"uint8"},{"name":"totalPayout","type":"uint256","internalType":"uint256"}],"outputs":[],"stateMutability":"nonpayable"},{"type":"function","name":"onUnappliedSlash","inputs":[{"name":"serviceId","type":"uint64","internalType":"uint64"},{"name":"offender","type":"bytes","internalType":"bytes"},{"name":"slashPercent","type":"uint8","internalType":"uint8"},{"name":"totalPayout","type":"uint256","internalType":"uint256"}],"outputs":[],"stateMutability":"nonpayable"},{"type":"function","name":"onUnregister","inputs":[{"name":"operator","type":"tuple","internalType":"struct ServiceOperators.OperatorPreferences","components":[{"name":"ecdsaPublicKey","type":"bytes","internalType":"bytes"},{"name":"priceTargets","type":"tuple","internalType":"struct ServiceOperators.PriceTargets","components":[{"name":"cpu","type":"uint64","internalType":"uint64"},{"name":"mem","type":"uint64","internalType":"uint64"},{"name":"storage_hdd","type":"uint64","internalType":"uint64"},{"name":"storage_ssd","type":"uint64","internalType":"uint64"},{"name":"storage_nvme","type":"uint64","internalType":"uint64"}]}]}],"outputs":[],"stateMutability":"nonpayable"},{"type":"function","name":"onUpdatePriceTargets","inputs":[{"name":"operator","type":"tuple","internalType":"struct ServiceOperators.OperatorPreferences","components":[{"name":"ecdsaPublicKey","type":"bytes","internalType":"bytes"},{"name":"priceTargets","type":"tuple","internalType":"struct ServiceOperators.PriceTargets","components":[{"name":"cpu","type":"uint64","internalType":"uint64"},{"name":"mem","type":"uint64","internalType":"uint64"},{"name":"storage_hdd","type":"uint64","internalType":"uint64"},{"name":"storage_ssd","type":"uint64","internalType":"uint64"},{"name":"storage_nvme","type":"uint64","internalType":"uint64"}]}]}],"outputs":[],"stateMutability":"payable"},{"type":"function","name":"queryDisputeOrigin","inputs":[{"name":"","type":"uint64","internalType":"uint64"}],"outputs":[{"name":"disputeOrigin","type":"address","internalType":"address"}],"stateMutability":"view"},{"type":"function","name":"querySlashingOrigin","inputs":[{"name":"","type":"uint64","internalType":"uint64"}],"outputs":[{"name":"slashingOrigin","type":"address","internalType":"address"}],"stateMutability":"view"},{"type":"function","name":"rootChain","inputs":[],"outputs":[{"name":"rootChainAddress","type":"address","internalType":"address"}],"stateMutability":"pure"},{"type":"error","name":"OnlyMasterBlueprintServiceManagerAllowed","inputs":[{"name":"caller","type":"address","internalType":"address"},{"name":"masterBlueprintServiceManager","type":"address","internalType":"address"}]},{"type":"error","name":"OnlyRootChainAllowed","inputs":[{"name":"caller","type":"address","internalType":"address"},{"name":"rootChain","type":"address","internalType":"address"}]}],"bytecode":{"object":"0x608060405234801561001057600080fd5b50610b9a806100206000396000f3fe60806040526004361061012a5760003560e01c8063884673ac116100ab578063a4d91fe91161006f578063a4d91fe9146102e3578063bb43abd914610301578063d7deb4821461030f578063e926cbd11461012f578063f84076621461032f578063fe0dd3711461034f57600080fd5b8063884673ac146102585780639838caa314610280578063987ab9db1461028e5780639d0410ee146102b5578063a24e8a90146102c857600080fd5b8063434698bb116100f2578063434698bb146101e15780635d79ea291461020157806365ce59fa1461022557806374ceeb55146101ae578063821c7be21461023857600080fd5b80630af7d7431461012f5780630b6535d7146101515780630d0dd3991461017157806314b4df4c146101ae57806337c29662146101ce575b600080fd5b34801561013b57600080fd5b5061014f61014a366004610638565b61035d565b005b34801561015d57600080fd5b5061014f61016c3660046106bb565b6103a9565b34801561017d57600080fd5b50600054610191906001600160a01b031681565b6040516001600160a01b0390911681526020015b60405180910390f35b3480156101ba57600080fd5b506101916101c93660046106fe565b503090565b61014f6101dc366004610738565b610432565b3480156101ed57600080fd5b5061014f6101fc3660046107fd565b610478565b34801561020d57600080fd5b5061021760015481565b6040519081526020016101a5565b61014f61023336600461087d565b6104b7565b34801561024457600080fd5b5061014f610253366004610947565b6104fe565b34801561026457600080fd5b5061019173111111111111111111111111111111111111111181565b61014f61014a366004610994565b34801561029a57600080fd5b50731111111111111111111111111111111111111111610191565b61014f6102c3366004610a09565b61053e565b3480156102d457600080fd5b5061014f610253366004610a71565b3480156102ef57600080fd5b506000546001600160a01b0316610191565b61014f6102c3366004610a9b565b34801561031b57600080fd5b5061014f61032a366004610aef565b61057f565b34801561033b57600080fd5b50600254610191906001600160a01b031681565b61014f6101fc3660046107fd565b6000546001600160a01b031633146103a257600054604051630c423fcf60e01b81526103999133916001600160a01b0390911690600401610b73565b60405180910390fd5b5050505050565b33731111111111111111111111111111111111111111146103f557337311111111111111111111111111111111111111116040516359afe8af60e11b8152600401610399929190610b73565b6001600160401b0392909216600155600280546001600160a01b039283166001600160a01b03199182161790915560008054929093169116179055565b6000546001600160a01b0316331461046e57600054604051630c423fcf60e01b81526103999133916001600160a01b0390911690600401610b73565b5050505050505050565b6000546001600160a01b031633146104b457600054604051630c423fcf60e01b81526103999133916001600160a01b0390911690600401610b73565b50565b6000546001600160a01b031633146104f357600054604051630c423fcf60e01b81526103999133916001600160a01b0390911690600401610b73565b505050505050505050565b6000546001600160a01b0316331461053a57600054604051630c423fcf60e01b81526103999133916001600160a01b0390911690600401610b73565b5050565b6000546001600160a01b0316331461057a57600054604051630c423fcf60e01b81526103999133916001600160a01b0390911690600401610b73565b505050565b6000546001600160a01b031633146105bb57600054604051630c423fcf60e01b81526103999133916001600160a01b0390911690600401610b73565b505050505050565b80356001600160401b03811681146105da57600080fd5b919050565b60008083601f8401126105f157600080fd5b5081356001600160401b0381111561060857600080fd5b60208301915083602082850101111561062057600080fd5b9250929050565b803560ff811681146105da57600080fd5b60008060008060006080868803121561065057600080fd5b610659866105c3565b945060208601356001600160401b0381111561067457600080fd5b610680888289016105df565b9095509350610693905060408701610627565b949793965091946060013592915050565b80356001600160a01b03811681146105da57600080fd5b6000806000606084860312156106d057600080fd5b6106d9846105c3565b92506106e7602085016106a4565b91506106f5604085016106a4565b90509250925092565b60006020828403121561071057600080fd5b610719826105c3565b9392505050565b600060c0828403121561073257600080fd5b50919050565b60008060008060008060008060c0898b03121561075457600080fd5b61075d896105c3565b975061076b60208a01610627565b965061077960408a016105c3565b955060608901356001600160401b038082111561079557600080fd5b6107a18c838d01610720565b965060808b01359150808211156107b757600080fd5b6107c38c838d016105df565b909650945060a08b01359150808211156107dc57600080fd5b506107e98b828c016105df565b999c989b5096995094979396929594505050565b60006020828403121561080f57600080fd5b81356001600160401b0381111561082557600080fd5b61083184828501610720565b949350505050565b60008083601f84011261084b57600080fd5b5081356001600160401b0381111561086257600080fd5b6020830191508360208260051b850101111561062057600080fd5b600080600080600080600080600060c08a8c03121561089b57600080fd5b6108a48a6105c3565b98506108b260208b016106a4565b975060408a01356001600160401b03808211156108ce57600080fd5b6108da8d838e01610839565b909950975060608c01359150808211156108f357600080fd5b6108ff8d838e016105df565b909750955060808c013591508082111561091857600080fd5b506109258c828d01610839565b9094509250610938905060a08b016105c3565b90509295985092959850929598565b6000806040838503121561095a57600080fd5b82356001600160401b0381111561097057600080fd5b61097c85828601610720565b92505061098b602084016105c3565b90509250929050565b6000806000806000608086880312156109ac57600080fd5b6109b5866105c3565b94506109c360208701610627565b93506109d1604087016105c3565b925060608601356001600160401b038111156109ec57600080fd5b6109f8888289016105df565b969995985093965092949392505050565b600080600060408486031215610a1e57600080fd5b83356001600160401b0380821115610a3557600080fd5b610a4187838801610720565b94506020860135915080821115610a5757600080fd5b50610a64868287016105df565b9497909650939450505050565b60008060408385031215610a8457600080fd5b610a8d836105c3565b915061098b602084016106a4565b600080600060608486031215610ab057600080fd5b83356001600160401b03811115610ac657600080fd5b610ad286828701610720565b935050610ae1602085016105c3565b91506106f560408501610627565b60008060008060008060a08789031215610b0857600080fd5b610b11876105c3565b9550610b1f602088016105c3565b9450610b2d604088016106a4565b935060608701356001600160401b03811115610b4857600080fd5b610b5489828a01610839565b9094509250610b679050608088016105c3565b90509295509295509295565b6001600160a01b039283168152911660208201526040019056fea164736f6c6343000814000a","linkReferences":{}},"methodIdentifiers":{"ROOT_CHAIN()":"884673ac","blueprintOwner()":"f8407662","currentBlueprintId()":"5d79ea29","masterBlueprintServiceManager()":"0d0dd399","masterBlueprintServiceManagerAddress()":"a4d91fe9","onApprove((bytes,(uint64,uint64,uint64,uint64,uint64)),uint64,uint8)":"bb43abd9","onBlueprintCreated(uint64,address,address)":"0b6535d7","onJobCall(uint64,uint8,uint64,bytes)":"9838caa3","onJobResult(uint64,uint8,uint64,(bytes,(uint64,uint64,uint64,uint64,uint64)),bytes,bytes)":"37c29662","onRegister((bytes,(uint64,uint64,uint64,uint64,uint64)),bytes)":"9d0410ee","onReject((bytes,(uint64,uint64,uint64,uint64,uint64)),uint64)":"821c7be2","onRequest(uint64,address,(bytes,(uint64,uint64,uint64,uint64,uint64))[],bytes,address[],uint64)":"65ce59fa","onServiceInitialized(uint64,uint64,address,address[],uint64)":"d7deb482","onServiceTermination(uint64,address)":"a24e8a90","onSlash(uint64,bytes,uint8,uint256)":"0af7d743","onUnappliedSlash(uint64,bytes,uint8,uint256)":"e926cbd1","onUnregister((bytes,(uint64,uint64,uint64,uint64,uint64)))":"434698bb","onUpdatePriceTargets((bytes,(uint64,uint64,uint64,uint64,uint64)))":"fe0dd371","queryDisputeOrigin(uint64)":"14b4df4c","querySlashingOrigin(uint64)":"74ceeb55","rootChain()":"987ab9db"},"id":2}