{"abi":[{"type":"function","name":"MAX_VOTERS","inputs":[],"outputs":[{"name":"","type":"uint256","internalType":"uint256"}],"stateMutability":"view"},{"type":"function","name":"_proposals","inputs":[{"name":"","type":"bytes32","internalType":"bytes32"}],"outputs":[{"name":"_status","type":"uint8","internalType":"enum ProposalStatus"},{"name":"_yesVotes","type":"uint256","internalType":"uint256"},{"name":"_yesVotesTotal","type":"uint8","internalType":"uint8"},{"name":"_proposedBlock","type":"uint40","internalType":"uint40"}],"stateMutability":"view"},{"type":"function","name":"adminSetForwarder","inputs":[{"name":"proposalId","type":"bytes32","internalType":"bytes32"},{"name":"forwarder","type":"address","internalType":"address"},{"name":"valid","type":"bool","internalType":"bool"}],"outputs":[],"stateMutability":"nonpayable"},{"type":"function","name":"admins","inputs":[{"name":"","type":"bytes32","internalType":"bytes32"}],"outputs":[{"name":"","type":"address","internalType":"address"}],"stateMutability":"view"},{"type":"function","name":"calculatePhase1ProposalId","inputs":[{"name":"phase1JobId","type":"bytes32","internalType":"bytes32"},{"name":"phase1JobDetails","type":"bytes","internalType":"bytes"}],"outputs":[{"name":"","type":"bytes32","internalType":"bytes32"}],"stateMutability":"pure"},{"type":"function","name":"calculatePhase2JobHash","inputs":[{"name":"proposalId","type":"bytes32","internalType":"bytes32"},{"name":"phase2JobDetails","type":"bytes","internalType":"bytes"}],"outputs":[{"name":"","type":"bytes32","internalType":"bytes32"}],"stateMutability":"pure"},{"type":"function","name":"expiry","inputs":[{"name":"","type":"bytes32","internalType":"bytes32"}],"outputs":[{"name":"","type":"uint40","internalType":"uint40"}],"stateMutability":"view"},{"type":"function","name":"getProposalState","inputs":[{"name":"phase2JobHash","type":"bytes32","internalType":"bytes32"}],"outputs":[{"name":"","type":"uint8","internalType":"enum ProposalStatus"}],"stateMutability":"view"},{"type":"function","name":"getProposalYesVotes","inputs":[{"name":"phase2JobHash","type":"bytes32","internalType":"bytes32"}],"outputs":[{"name":"","type":"uint256","internalType":"uint256"}],"stateMutability":"view"},{"type":"function","name":"getProposalYesVotesTotal","inputs":[{"name":"phase2JobHash","type":"bytes32","internalType":"bytes32"}],"outputs":[{"name":"","type":"uint8","internalType":"uint8"}],"stateMutability":"view"},{"type":"function","name":"initialize","inputs":[{"name":"phase1JobId","type":"bytes32","internalType":"bytes32"},{"name":"phase1JobDetails","type":"bytes","internalType":"bytes"},{"name":"_threshold","type":"uint8","internalType":"uint8"},{"name":"_useDemocracy","type":"bool","internalType":"bool"},{"name":"_voters","type":"address[]","internalType":"address[]"},{"name":"_expiry","type":"uint40","internalType":"uint40"}],"outputs":[],"stateMutability":"nonpayable"},{"type":"function","name":"initialized","inputs":[],"outputs":[{"name":"","type":"bool","internalType":"bool"}],"stateMutability":"view"},{"type":"function","name":"isValidForwarder","inputs":[{"name":"","type":"bytes32","internalType":"bytes32"},{"name":"","type":"address","internalType":"address"}],"outputs":[{"name":"","type":"bool","internalType":"bool"}],"stateMutability":"view"},{"type":"function","name":"refreshVoters","inputs":[{"name":"phase1ProposalId","type":"bytes32","internalType":"bytes32"}],"outputs":[],"stateMutability":"nonpayable"},{"type":"function","name":"submitGovernanceProposal","inputs":[{"name":"phase1JobId","type":"bytes32","internalType":"bytes32"},{"name":"phase1JobDetails","type":"bytes","internalType":"bytes"},{"name":"phase2JobDetails","type":"bytes","internalType":"bytes"}],"outputs":[],"stateMutability":"nonpayable"},{"type":"function","name":"threshold","inputs":[{"name":"","type":"bytes32","internalType":"bytes32"}],"outputs":[{"name":"","type":"uint8","internalType":"uint8"}],"stateMutability":"view"},{"type":"function","name":"useDemocracy","inputs":[{"name":"","type":"bytes32","internalType":"bytes32"}],"outputs":[{"name":"","type":"bool","internalType":"bool"}],"stateMutability":"view"},{"type":"function","name":"useValidators","inputs":[{"name":"","type":"bytes32","internalType":"bytes32"}],"outputs":[{"name":"","type":"bool","internalType":"bool"}],"stateMutability":"view"},{"type":"function","name":"voteProposal","inputs":[{"name":"phase1JobId","type":"bytes32","internalType":"bytes32"},{"name":"phase1JobDetails","type":"bytes","internalType":"bytes"},{"name":"phase2JobDetails","type":"bytes","internalType":"bytes"}],"outputs":[],"stateMutability":"nonpayable"},{"type":"function","name":"voters","inputs":[{"name":"","type":"bytes32","internalType":"bytes32"},{"name":"","type":"uint256","internalType":"uint256"}],"outputs":[{"name":"","type":"address","internalType":"address"}],"stateMutability":"view"},{"type":"event","name":"FailedHandlerExecution","inputs":[{"name":"lowLevelData","type":"bytes","indexed":false,"internalType":"bytes"}],"anonymous":false},{"type":"event","name":"ProposalEvent","inputs":[{"name":"status","type":"uint8","indexed":false,"internalType":"enum ProposalStatus"},{"name":"proposalId","type":"bytes32","indexed":false,"internalType":"bytes32"},{"name":"phase2JobHash","type":"bytes32","indexed":false,"internalType":"bytes32"}],"anonymous":false},{"type":"event","name":"ProposalVote","inputs":[{"name":"status","type":"uint8","indexed":false,"internalType":"enum ProposalStatus"},{"name":"proposalId","type":"bytes32","indexed":false,"internalType":"bytes32"},{"name":"phase2JobHash","type":"bytes32","indexed":false,"internalType":"bytes32"}],"anonymous":false}],"bytecode":{"object":"0x6080604052348015600f57600080fd5b506114c58061001f6000396000f3fe608060405234801561001057600080fd5b506004361061012c5760003560e01c8063a72cd030116100ad578063d079661b11610071578063d079661b146102ee578063d2ec5fca1461032f578063df1a3f3a1461036c578063ef67b8ed1461037f578063f2e2af941461039257600080fd5b8063a72cd03014610272578063a9b62d8d14610285578063bc20f44e146102a8578063cf108ab9146102cb578063d020a66f1461025f57600080fd5b806325605b6d116100f457806325605b6d146101ff5780632d1ef7f6146102225780633ceed692146102355780636f85e71a1461024c578063a0a0c5161461025f57600080fd5b80630a704f4814610131578063158ef93e1461016a5780631b35b0cc146101875780631cba5b04146101bf57806322b87b97146101d4575b600080fd5b61015461013f366004610f85565b60009081526007602052604090205460ff1690565b6040516101619190610fd6565b60405180910390f35b6008546101779060ff1681565b6040519015158152602001610161565b6101ad610195366004610f85565b60009081526007602052604090206002015460ff1690565b60405160ff9091168152602001610161565b6101d26101cd366004610f85565b6103e4565b005b6101776101e2366004611000565b600060208181529281526040808220909352908152205460ff1681565b6101ad61020d366004610f85565b60036020526000908152604090205460ff1681565b6101d26102303660046110e3565b610429565b61023e61010081565b604051908152602001610161565b6101d261025a3660046110e3565b6104eb565b61023e61026d366004611150565b610628565b6101d26102803660046111a7565b61065c565b61023e610293366004610f85565b60009081526007602052604090206001015490565b6101776102b6366004610f85565b60066020526000908152604090205460ff1681565b6101776102d9366004610f85565b60056020526000908152604090205460ff1681565b6103176102fc366004610f85565b6001602052600090815260409020546001600160a01b031681565b6040516001600160a01b039091168152602001610161565b61035661033d366004610f85565b60046020526000908152604090205464ffffffffff1681565b60405164ffffffffff9091168152602001610161565b6101d261037a3660046111f8565b6106c8565b61031761038d366004611311565b610846565b6103d46103a0366004610f85565b60076020526000908152604090208054600182015460029092015460ff9182169291811690610100900464ffffffffff1684565b6040516101619493929190611333565b60008181526001602052604090205481906001600160a01b031633146104255760405162461bcd60e51b815260040161041c90611366565b60405180910390fd5b5050565b61043483838361087e565b6104805760405162461bcd60e51b815260206004820152601860248201527f50726f706f73616c206d75737420626520766f7461626c650000000000000000604482015260640161041c565b600083836040516020016104959291906113a7565b604051602081830303815290604052805190602001209050600081836040516020016104c29291906113a7565b6040516020818303038152906040528051906020012090506104e4828261092c565b5050505050565b600083836040516020016105009291906113a7565b6040516020818303038152906040528051906020012090506000818360405160200161052d9291906113a7565b60408051601f1981840301815291905280516020909101209050600360008281526007602052604090205460ff16600481111561056c5761056c610f9e565b036105b95760405162461bcd60e51b815260206004820181905260248201527f50726f706f73616c206d7573742068617665206265656e206578656375746564604482015260640161041c565b60008281526005602052604090205460ff166106235760405162461bcd60e51b8152602060048201526024808201527f50726f706f73616c206d75737420616c6c6f77207573696e6720676f7665726e604482015263616e636560e01b606482015260840161041c565b6104e4565b6000828260405160200161063d9291906113a7565b6040516020818303038152906040528051906020012090505b92915050565b60008381526001602052604090205483906001600160a01b031633146106945760405162461bcd60e51b815260040161041c90611366565b506000928352602083815260408085206001600160a01b039490941685529290529120805460ff1916911515919091179055565b6101008251111561070d5760405162461bcd60e51b815260206004820152600f60248201526e546f6f206d616e7920766f7465727360881b604482015260640161041c565b60085460ff16156107565760405162461bcd60e51b8152602060048201526013602482015272105b1c9958591e481a5b9a5d1a585b1a5e9959606a1b604482015260640161041c565b6008805460ff1916600117905560405160009061077990889088906020016113a7565b60408051808303601f190181529181528151602092830120600081815260038452828120805460ff1990811660ff8c161790915560058552838220805490911689151517905560048452828120805464ffffffffff191664ffffffffff8816179055600190935291208054336001600160a01b0319909116179055835190915015610823576000818152600260209081526040909120845161081d92860190610f0b565b5061083d565b6000818152600660205260409020805460ff191660011790555b50505050505050565b6002602052816000526040600020818154811061086257600080fd5b6000918252602090912001546001600160a01b03169150829050565b600082516000036108d15760405162461bcd60e51b815260206004820152601d60248201527f4a6f622064657461696c73206d757374206265206e6f6e2d656d707479000000604482015260640161041c565b81516000036109225760405162461bcd60e51b815260206004820152601d60248201527f4a6f622064657461696c73206d757374206265206e6f6e2d656d707479000000604482015260640161041c565b5060019392505050565b60008181526007602052604090206002815460ff16600481111561095257610952610f9e565b03610966576109618383610d43565b505050565b600061097184610df0565b825490915060019060ff16600481111561098d5761098d610f9e565b11156109e75760405162461bcd60e51b815260206004820152602360248201527f70726f706f73616c20616c72656164792065786563757465642f63616e63656c6044820152621b195960ea1b606482015260840161041c565b6109f2848483610e38565b15610a375760405162461bcd60e51b81526020600482015260156024820152741c995b185e595c88185b1c9958591e481d9bdd1959605a1b604482015260640161041c565b6000825460ff166004811115610a4f57610a4f610f9e565b03610b25576040805160808101909152806001815260006020808301829052604080840183905264ffffffffff4316606090940193909352868252600790522081518154829060ff19166001836004811115610aad57610aad610f9e565b021790555060208201516001808301919091556040808401516002909301805460609095015164ffffffffff166101000265ffffffffffff1990951660ff9094169390931793909317909155905160008051602061147083398151915291610b1891879087906113df565b60405180910390a1610b96565b600084815260046020526040902054600283015464ffffffffff91821691610b539161010090041643611414565b64ffffffffff161115610b9657815460ff19166004908117835560405160008051602061147083398151915291610b8d91879087906113df565b60405180910390a15b6004825460ff166004811115610bae57610bae610f9e565b14610c9957610bbd8482610e62565b60018301805491909117905560028201805460ff16906000610bde83611427565b91906101000a81548160ff021916908360ff160217905550507f961015e6a4653a891033ea3ea3ce41566aad79e0097ece8cb102ae7cd135ab868260000160009054906101000a900460ff168585604051610c3b939291906113df565b60405180910390a1600084815260036020526040902054600283015460ff918216911610610c9957815460ff19166002908117835560405160008051602061147083398151915291610c9091879087906113df565b60405180910390a15b60008481526007602052604090208254815484929160ff1690829060ff19166001836004811115610ccc57610ccc610f9e565b02179055506001828101549082015560029182018054918301805460ff19811660ff9094169384178255915464ffffffffff61010091829004160265ffffffffffff19909216909217179055825460ff166004811115610d2e57610d2e610f9e565b03610d3d57610d3d8484610d43565b50505050565b60008181526007602052604090206002815460ff166004811115610d6957610d69610f9e565b14610db65760405162461bcd60e51b815260206004820181905260248201527f50726f706f73616c206d75737420686176652050617373656420737461747573604482015260640161041c565b805460ff19166003908117825560405160008051602061147083398151915291610de391869086906113df565b60405180910390a1505050565b60003360143610801590610e2457506000838152602081815260408083206001600160a01b038516845290915290205460ff165b156106565750505036601319013560601c90565b600082815260076020526040812060018101548290610e578786610e62565b161195945050505050565b60006001610e708484610e85565b610e7a9190611414565b6001901b9392505050565b6000805b600084815260026020526040902054811015610f0057600084815260026020526040902080546001600160a01b038516919083908110610ecb57610ecb611446565b6000918252602090912001546001600160a01b031603610ef857610ef081600161145c565b915050610656565b600101610e89565b506101009392505050565b828054828255906000526020600020908101928215610f60579160200282015b82811115610f6057825182546001600160a01b0319166001600160a01b03909116178255602090920191600190910190610f2b565b50610f6c929150610f70565b5090565b5b80821115610f6c5760008155600101610f71565b600060208284031215610f9757600080fd5b5035919050565b634e487b7160e01b600052602160045260246000fd5b60058110610fd257634e487b7160e01b600052602160045260246000fd5b9052565b602081016106568284610fb4565b80356001600160a01b0381168114610ffb57600080fd5b919050565b6000806040838503121561101357600080fd5b8235915061102360208401610fe4565b90509250929050565b634e487b7160e01b600052604160045260246000fd5b604051601f8201601f1916810167ffffffffffffffff8111828210171561106b5761106b61102c565b604052919050565b600082601f83011261108457600080fd5b813567ffffffffffffffff81111561109e5761109e61102c565b6110b1601f8201601f1916602001611042565b8181528460208386010111156110c657600080fd5b816020850160208301376000918101602001919091529392505050565b6000806000606084860312156110f857600080fd5b83359250602084013567ffffffffffffffff8082111561111757600080fd5b61112387838801611073565b9350604086013591508082111561113957600080fd5b5061114686828701611073565b9150509250925092565b6000806040838503121561116357600080fd5b82359150602083013567ffffffffffffffff81111561118157600080fd5b61118d85828601611073565b9150509250929050565b80358015158114610ffb57600080fd5b6000806000606084860312156111bc57600080fd5b833592506111cc60208501610fe4565b91506111da60408501611197565b90509250925092565b803564ffffffffff81168114610ffb57600080fd5b60008060008060008060c0878903121561121157600080fd5b8635955060208088013567ffffffffffffffff8082111561123157600080fd5b61123d8b838c01611073565b975060408a0135915060ff8216821461125557600080fd5b81965061126460608b01611197565b955060808a013591508082111561127a57600080fd5b818a0191508a601f83011261128e57600080fd5b8135818111156112a0576112a061102c565b8060051b91506112b1848301611042565b818152918301840191848101908d8411156112cb57600080fd5b938501935b838510156112f0576112e185610fe4565b825293850193908501906112d0565b80975050505050505061130560a088016111e3565b90509295509295509295565b6000806040838503121561132457600080fd5b50508035926020909101359150565b608081016113418287610fb4565b84602083015260ff8416604083015264ffffffffff8316606083015295945050505050565b60208082526021908201527f4f6e6c792061646d696e2063616e2063616c6c20746869732066756e6374696f6040820152603760f91b606082015260800190565b8281526000825160005b818110156113cd576020818601810151858301820152016113b1565b50600092016020019182525092915050565b606081016113ed8286610fb4565b602082019390935260400152919050565b634e487b7160e01b600052601160045260246000fd5b81810381811115610656576106566113fe565b600060ff821660ff810361143d5761143d6113fe565b60010192915050565b634e487b7160e01b600052603260045260246000fd5b80820180821115610656576106566113fe56feab737635c90eb54fdb0ea02155a55603ff65ef45c987f7486d99561ff24609efa264697066735822122092ecb6b6575399be52f8f4553ad7efc3f025af6f4d800ff535480dff1bcdfa3a64736f6c63430008190033","linkReferences":{}},"methodIdentifiers":{"MAX_VOTERS()":"3ceed692","_proposals(bytes32)":"f2e2af94","adminSetForwarder(bytes32,address,bool)":"a72cd030","admins(bytes32)":"d079661b","calculatePhase1ProposalId(bytes32,bytes)":"d020a66f","calculatePhase2JobHash(bytes32,bytes)":"a0a0c516","expiry(bytes32)":"d2ec5fca","getProposalState(bytes32)":"0a704f48","getProposalYesVotes(bytes32)":"a9b62d8d","getProposalYesVotesTotal(bytes32)":"1b35b0cc","initialize(bytes32,bytes,uint8,bool,address[],uint40)":"df1a3f3a","initialized()":"158ef93e","isValidForwarder(bytes32,address)":"22b87b97","refreshVoters(bytes32)":"1cba5b04","submitGovernanceProposal(bytes32,bytes,bytes)":"6f85e71a","threshold(bytes32)":"25605b6d","useDemocracy(bytes32)":"cf108ab9","useValidators(bytes32)":"bc20f44e","voteProposal(bytes32,bytes,bytes)":"2d1ef7f6","voters(bytes32,uint256)":"ef67b8ed"},"id":24}